:020000040800F2
:10000000000002201D540008592A00085B2A00083D
:100010005D2A00085F2A0008612A0008000000002D
:10002000000000000000000000000000632A00083B
:10003000652A000800000000672A0008692A0008F5
:100040006D5400086D5400086D5400086D5400088C
:100050006D5400086D5400086D5400086D5400087C
:100060006D5400086D5400086D5400086D5400086C
:100070006D5400086D5400086D5400086D5400085C
:100080006D5400086D5400086D5400086D5400084C
:100090006D5400086D5400086D5400086D5400083C
:1000A0006D5400086D5400086D5400086D5400082C
:1000B0006D5400086D5400086D5400086D5400081C
:1000C0006D5400086D5400086D5400086D5400080C
:1000D0006D5400086D5400086D5400086D540008FC
:1000E0006D5400086D5400086D5400086D540008EC
:1000F0006D5400086D5400086D5400086D540008DC
:100100006D5400086D5400086D5400086D540008CB
:100110006D5400086D5400086D5400086D540008BB
:100120006D5400086D5400086D5400086D540008AB
:100130006D5400086D5400086D5400086D5400089B
:100140006D5400086D5400086D5400086D5400088B
:100150006D5400086D5400086D5400086D5400087B
:100160006D5400086D5400086D5400086D5400086B
:100170006D5400086D5400086D5400080000000024
:080180006D5400086D540008E5
:1001C00010B5054C237833B9044B13B10448AFF391
:1001D00000800123237010BDC00900200000000032
:1001E00060A0000808B5034B1BB103490348AFF3F7
:1001F000008008BD00000000C409002060A00008C5
:1002000081F0004102E000BF83F0004330B54FEAC7
:1002100041044FEA430594EA050F08BF90EA020F34
:100220001FBF54EA000C55EA020C7FEA645C7FEAC7
:10023000655C00F0E2804FEA5454D4EB5555B8BFEA
:100240006D420CDD2C4480EA020281EA030382EA5B
:10025000000083EA010180EA020281EA0303362DED
:1002600088BF30BD11F0004F4FEA01314FF4801CC0
:100270004CEA113102D0404261EB410113F0004FD2
:100280004FEA03334CEA133302D0524263EB430389
:1002900094EA050F00F0A780A4F10104D5F1200E27
:1002A0000DDB02FA0EFC22FA05F2801841F1000182
:1002B00003FA0EF2801843FA05F359410EE0A5F156
:1002C00020050EF1200E012A03FA0EFC28BF4CF087
:1002D000020C43FA05F3C01851EBE37101F000453D
:1002E00007D54FF0000EDCF1000C7EEB00006EEB4A
:1002F0000101B1F5801F1BD3B1F5001F0CD34908D4
:100300005FEA30004FEA3C0C04F101044FEA44522A
:1003100012F5800F80F09A80BCF1004F08BF5FEAB1
:10032000500C50F1000041EB045141EA050130BD91
:100330005FEA4C0C404141EB0101013C28BFB1F5A3
:10034000801FE9D291F0000F04BF01460020B1FAEE
:1003500081F308BF2033A3F10B03B3F120020CDAC1
:100360000C3208DD02F1140CC2F10C0201FA0CF09F
:1003700021FA02F10CE002F11402D8BFC2F1200C04
:1003800001FA02F120FA0CFCDCBF41EA0C019040BA
:10039000E41AA2BF01EB0451294330BD6FEA040403
:1003A0001F3C1CDA0C340EDC04F11404C4F12002EE
:1003B00020FA04F001FA02F340EA030021FA04F300
:1003C00045EA030130BDC4F10C04C4F1200220FA57
:1003D00002F001FA04F340EA0300294630BD21FA95
:1003E00004F0294630BD94F0000F83F4801306BF5B
:1003F00081F480110134013D4EE77FEA645C18BF4F
:100400007FEA655C29D094EA050F08BF90EA020FE5
:1004100005D054EA000C04BF1946104630BD91EADD
:10042000030F1EBF0021002030BD5FEA545C05D1E0
:100430004000494128BF41F0004130BD14F580041F
:100440003CBF01F5801130BD01F0004545F0FE4193
:1004500041F470014FF0000030BD7FEA645C1ABFC8
:10046000194610467FEA655C1CBF0B46024650EAFF
:10047000013406BF52EA033591EA030F41F400212B
:1004800030BD00BF90F0000F04BF0021704730B5B1
:100490004FF4806404F132044FF000054FF0000186
:1004A00050E700BF90F0000F04BF0021704730B547
:1004B0004FF4806404F1320410F0004548BF40421C
:1004C0004FF000013EE700BF42004FEAE2014FEA71
:1004D00031014FEA02701FBF12F07F4393F07F4F4C
:1004E00081F06051704732F07F4208BF704793F04F
:1004F0007F4F04BF41F40021704730B54FF4607462
:1005000001F0004521F000411CE700BF50EA010264
:1005100008BF704730B54FF000050AE050EA01020D
:1005200008BF704730B511F0004502D5404261EB7D
:1005300041014FF4806404F132045FEA915C3FF4BE
:10054000D8AE4FF003025FEADC0C18BF03325FEA5B
:10055000DC0C18BF033202EBDC02C2F1200300FA0C
:1005600003FC20FA02F001FA03FE40EA0E0021FA31
:1005700002F11444BDE600BF70B54FF0FF0C4CF41F
:10058000E06C1CEA11541DBF1CEA135594EA0C0FD1
:1005900095EA0C0F00F0DEF82C4481EA030621EA0C
:1005A0004C5123EA4C5350EA013518BF52EA033547
:1005B00041F4801143F4801338D0A0FB02CE4FF0F9
:1005C0000005E1FB02E506F00042E0FB03E54FF029
:1005D0000006E1FB03569CF0000F18BF4EF0010E21
:1005E000A4F1FF04B6F5007F64F5407404D25FEA1D
:1005F0004E0E6D4146EB060642EAC62141EA5551D0
:100600004FEAC52040EA5E504FEACE2EB4F1FD0C11
:1006100088BFBCF5E06F1ED8BEF1004F08BF5FEA8F
:10062000500E50F1000041EB045170BD06F0004641
:1006300046EA010140EA020081EA0301B4EB5C04EE
:10064000C2BFD4EB0C0541EA045170BD41F48011E6
:100650004FF0000E013C00F3AB8014F1360FDEBF0B
:10066000002001F0004170BDC4F10004203C35DAE7
:100670000C341BDC04F11404C4F1200500FA05F36A
:1006800020FA04F001FA05F240EA020001F000420B
:1006900021F0004110EBD37021FA04F642EB060181
:1006A0005EEA430E08BF20EAD37070BDC4F10C04AB
:1006B000C4F1200500FA04F320FA05F001FA04F26F
:1006C00040EA020001F0004110EBD37041F100015B
:1006D0005EEA430E08BF20EAD37070BDC4F1200566
:1006E00000FA05F24EEA020E20FA04F301FA05F2CE
:1006F00043EA020321FA04F001F0004121FA04F276
:1007000020EA020000EBD3705EEA430E08BF20EA45
:10071000D37070BD94F0000F0FD101F0004640007F
:1007200041EB010111F4801F08BF013CF7D041EA01
:10073000060195F0000F18BF704703F00046520005
:1007400043EB030313F4801F08BF013DF7D043EAD6
:100750000603704794EA0C0F0CEA135518BF95EA8C
:100760000C0F0CD050EA410618BF52EA4306D1D113
:1007700081EA030101F000414FF0000070BD50EA32
:10078000410606BF1046194652EA430619D094EABC
:100790000C0F02D150EA013613D195EA0C0F05D1A6
:1007A00052EA03361CBF104619460AD181EA0301FA
:1007B00001F0004141F0FE4141F470014FF00000B2
:1007C00070BD41F0FE4141F4780170BD70B54FF04D
:1007D000FF0C4CF4E06C1CEA11541DBF1CEA1355CD
:1007E00094EA0C0F95EA0C0F00F0A7F8A4EB0504AF
:1007F00081EA030E52EA03354FEA013100F08880A6
:100800004FEA03334FF0805545EA131343EA12636E
:100810004FEA022245EA111545EA10654FEA002623
:100820000EF000419D4208BF964244F1FD0404F5DC
:10083000407402D25B084FEA3202B61A65EB030538
:100840005B084FEA32024FF480104FF4002CB6EBF5
:10085000020E75EB030E22BFB61A754640EA0C0075
:100860005B084FEA3202B6EB020E75EB030E22BFB5
:10087000B61A754640EA5C005B084FEA3202B6EBF6
:10088000020E75EB030E22BFB61A754640EA9C00B5
:100890005B084FEA3202B6EB020E75EB030E22BF85
:1008A000B61A754640EADC0055EA060E18D04FEA43
:1008B000051545EA16754FEA06164FEAC30343EAE3
:1008C00052734FEAC2025FEA1C1CC0D111F4801FB0
:1008D0000BD141EA00014FF000004FF0004CB6E7A9
:1008E00011F4801F04BF01430020B4F1FD0C88BF48
:1008F000BCF5E06F3FF6AFAEB5EB030C04BFB6EB53
:10090000020C5FEA500C50F1000041EB045170BD45
:100910000EF0004E4EEA113114EB5C04C2BFD4EB72
:100920000C0541EA045170BD41F480114FF0000EF6
:10093000013C90E645EA060E8DE60CEA135594EA72
:100940000C0F08BF95EA0C0F3FF43BAF94EA0C0F75
:100950000AD150EA01347FF434AF95EA0C0F7FF4EA
:1009600025AF104619462CE795EA0C0F06D152EA3E
:1009700003353FF4FDAE1046194622E750EA410622
:1009800018BF52EA43067FF4C5AE50EA41047FF433
:100990000DAF52EA43057FF4EBAE12E74FF0FF3C98
:1009A00006E000BF4FF0010C02E000BF4FF0010C69
:1009B0004DF804CD4FEA410C7FEA6C5C4FEA430CE2
:1009C00018BF7FEA6C5C1BD001B050EA410C0CBF31
:1009D00052EA430C91EA030F02BF90EA020F002093
:1009E000704710F1000F91EA030F58BF994208BFFA
:1009F00090422CBFD8176FEAE37040F001007047B7
:100A00004FEA410C7FEA6C5C02D150EA013C07D10D
:100A10004FEA430C7FEA6C5CD6D152EA033CD3D058
:100A20005DF8040B704700BF8446104662468C4652
:100A30001946634600E000BF01B5FFF7B7FF002885
:100A400048BF10F1000F01BD4DF808EDFFF7F4FFAE
:100A50000CBF012000205DF808FB00BF4DF808ED39
:100A6000FFF7EAFF34BF012000205DF808FB00BF5C
:100A70004DF808EDFFF7E0FF94BF012000205DF87E
:100A800008FB00BF4DF808EDFFF7CEFF94BF012033
:100A900000205DF808FB00BF4DF808EDFFF7C4FF2C
:100AA00034BF012000205DF808FB00BF4FEA410C75
:100AB0007FEA6C5C02D150EA013C0AD14FEA430C58
:100AC0007FEA6C5C02D152EA033C02D14FF0000095
:100AD00070474FF0010070474A0011D212F5001222
:100AE00011D20DD56FF47873B3EB62520ED44FEA86
:100AF000C12343F0004343EA505323FA02F0704706
:100B00004FF00000704750EA013002D14FF0FF3043
:100B100070474FF0000070474FEA4102B2F1E043E6
:100B200024BFB3F5001CDCF1FE5C0DD901F0004CD4
:100B30004FEAC0024CEA5070B2F1004F40EB830024
:100B400008BF20F00100704711F0804F21D113F150
:100B50003872BCBF01F00040704741F480114FEA89
:100B60005252C2F11802C2F1200C10FA0CF320FA12
:100B700002F018BF40F001004FEAC1234FEAD3232F
:100B800003FA0CFC40EA0C0023FA02F34FEA430399
:100B9000CCE77FEA625307D150EA01331EBF4FF022
:100BA000FE4040F44000704701F0004040F0FE403D
:100BB00040F40000704700BF80F0004002E000BF3A
:100BC00081F0004142001FBF5FEA410392EA030F38
:100BD0007FEA226C7FEA236C6AD04FEA1262D2EB82
:100BE0001363C1BFD218414048404140B8BF5B4287
:100BF000192B88BF704710F0004F40F4000020F020
:100C00007F4018BF404211F0004F41F4000121F035
:100C10007F4118BF494292EA030F3FD0A2F101027F
:100C200041FA03FC10EB0C00C3F1200301FA03F1BD
:100C300000F0004302D5494260EB4000B0F5000FE0
:100C400013D3B0F1807F06D340084FEA310102F19F
:100C50000102FE2A51D2B1F1004F40EBC25008BF51
:100C600020F0010040EA03007047490040EB00001B
:100C7000013A28BFB0F5000FEDD2B0FA80FCACF11C
:100C8000080CB2EB0C0200FA0CF0AABF00EBC25049
:100C900052421843BCBFD0401843704792F0000F37
:100CA00081F4000106BF80F400000132013BB5E78A
:100CB0004FEA41037FEA226C18BF7FEA236C21D000
:100CC00092EA030F04D092F0000F08BF0846704765
:100CD00090EA010F1CBF0020704712F07F4F04D133
:100CE000400028BF40F00040704712F100723CBF46
:100CF00000F50000704700F0004343F0FE4040F470
:100D0000000070477FEA226216BF08467FEA23632D
:100D10000146420206BF5FEA412390EA010F40F418
:100D2000800070474FF0000304E000BF10F0004364
:100D300048BF40425FEA000C08BF704743F096434B
:100D400001464FF000001CE050EA010208BF704766
:100D50004FF000030AE000BF50EA010208BF7047ED
:100D600011F0004302D5404261EB41015FEA010C02
:100D700002BF84460146002043F0B64308BFA3F1FA
:100D80008053A3F50003BCFA8CF2083AA3EBC253DC
:100D900010DB01FA02FC634400FA02FCC2F12002FB
:100DA000BCF1004F20FA02F243EB020008BF20F032
:100DB0000100704702F1200201FA02FCC2F1200298
:100DC00050EA4C0021FA02F243EB020008BF20EA8D
:100DD000DC7070474FF0FF0C1CEAD0521EBF1CEABB
:100DE000D15392EA0C0F93EA0C0F6FD01A4480EAA9
:100DF000010C400218BF5FEA41211ED04FF0006392
:100E000043EA501043EA5111A0FB01310CF00040BD
:100E1000B1F5000F3EBF490041EAD3715B0040EAE3
:100E2000010062F17F02FD2A1DD8B3F1004F40EBB3
:100E3000C25008BF20F00100704790F0000F0CF086
:100E4000004C08BF49024CEA502040EA51207F3A4A
:100E5000C2BFD2F1FF0340EAC250704740F4000025
:100E60004FF00003013A5DDC12F1190FDCBF00F016
:100E700000407047C2F10002410021FA02F1C2F1C4
:100E8000200200FA02FC5FEA310040F1000053EA60
:100E90004C0308BF20EADC70704792F0000F00F0AE
:100EA000004C02BF400010F4000F013AF9D040EAB4
:100EB0000C0093F0000F01F0004C02BF490011F448
:100EC000000F013BF9D041EA0C018FE70CEAD15346
:100ED00092EA0C0F18BF93EA0C0F0AD030F0004CC6
:100EE00018BF31F0004CD8D180EA010000F000407A
:100EF000704790F0000F17BF90F0004F084691F038
:100F0000000F91F0004F14D092EA0C0F01D1420271
:100F10000FD193EA0C0F03D14B0218BF084608D13A
:100F200080EA010000F0004040F0FE4040F4000084
:100F3000704740F0FE4040F4400070474FF0FF0C17
:100F40001CEAD0521EBF1CEAD15392EA0C0F93EA5E
:100F50000C0F69D0A2EB030280EA010C49024FEAB0
:100F6000402037D04FF0805343EA111143EA101369
:100F70000CF000408B4238BF5B0042F17D024FF421
:100F8000000C8B4224BF5B1A40EA0C00B3EB510FFC
:100F900024BFA3EB510340EA5C00B3EB910F24BFE5
:100FA000A3EB910340EA9C00B3EBD10F24BFA3EB6A
:100FB000D10340EADC001B0118BF5FEA1C1CE0D132
:100FC000FD2A3FF650AF8B4240EBC25008BF20F0E5
:100FD000010070470CF0004C4CEA50207F32C2BF39
:100FE000D2F1FF0340EAC250704740F400004FF0D6
:100FF0000003013A37E792F0000F00F0004C02BF07
:10100000400010F4000F013AF9D040EA0C0093F0D0
:10101000000F01F0004C02BF490011F4000F013B2A
:10102000F9D041EA0C0195E70CEAD15392EA0C0F92
:1010300008D142027FF47DAF93EA0C0F7FF470AFCA
:10104000084676E793EA0C0F04D14B023FF44CAF0D
:1010500008466EE730F0004C18BF31F0004CCAD1A2
:1010600030F000427FF45CAF31F000437FF43CAFDE
:101070005FE700BF4FEA4002B2F1FE4F0FD34FF0DF
:101080009E03B3EB12620DD94FEA002343F00043F5
:1010900010F0004F23FA02F018BF404270474FF0A3
:1010A0000000704712F1610F01D1420205D110F02A
:1010B000004008BF6FF0004070474FF000007047DD
:1010C00042000ED2B2F1FE4F0BD34FF09E03B3EBB2
:1010D000126209D44FEA002343F0004323FA02F0DE
:1010E00070474FF00000704712F1610F01D14202CA
:1010F00002D14FF0FF3070474FF00000704700BF43
:1011000053B94AB9002908BF00281CBF4FF0FF316E
:101110004FF0FF3001F0BEB8ADF1080C6DE904CE20
:1011200000F006F8DDF804E0DDE9022304B07047C2
:101130002DE9F047089E0D4604468E46002B40F0F0
:1011400082808A42174646D9B2FA82F24AB1C2F187
:10115000200105FA02F320FA01F1974041EA030E5B
:1011600094404FEA1748230CBEFBF8FCB9B208FBC9
:101170001CEE43EA0E430CFB01F098420AD9FB181F
:101180000CF1FF3580F01681984240F21381ACF1EA
:10119000020C3B441B1AA4B2B3FBF8F008FB10335B
:1011A00044EA034400FB01F1A14209D93C1900F1D2
:1011B000FF3380F00181A14240F2FE8002383C44BE
:1011C000641A40EA0C4000211EB1D4400023C6E955
:1011D0000043BDE8F08702B9FFDEB2FA82F2002ACE
:1011E0004FD1CB1B4FEA174E1FFA87F80121B3FBF3
:1011F000FEFC250C0EFB1C3345EA034508FB0CF3F3
:10120000AB4207D97D190CF1FF3002D2AB4200F29C
:10121000E7808446ED1AA3B2B5FBFEF00EFB105535
:1012200043EA054408FB00F8A04507D93C1900F142
:10123000FF3302D2A04500F2D7801846A4EB080481
:1012400040EA0C40C0E78B4208D9002E00F0AF8086
:101250000021C6E900050846BDE8F087B3FA83F12E
:1012600000294BD1AB4202D3824200F2B780841AEC
:1012700065EB030301209E46002EAAD0C6E9004E6E
:10128000A7E7C2F1200C01FA02F3974020FA0CF014
:101290004FEA174E21FA0CFC1843BCFBFEF1050C7B
:1012A0000EFB11CC1FFA87F845EA0C4501FB08F349
:1012B000AB4204FA02F409D97D1901F1FF3C80F038
:1012C0008B80AB4240F2888002393D44EB1A85B2F4
:1012D000B3FBFEF00EFB103345EA034500FB08F3B9
:1012E000AB4207D97D1900F1FF3C71D2AB426FD9F7
:1012F00002383D44EB1A40EA014178E7C1F1200C85
:101300008B4022FA0CF71F4320FA0CF405FA01F384
:101310004FEA174E25FA0CF51C43230CB5FBFEF9DA
:101320001FFA87F80EFB195543EA054509FB08FA31
:10133000AA4502FA01F200FA01F308D97D1909F170
:10134000FF3047D2AA4545D9A9F102093D44A5EB92
:101350000A05A4B2B5FBFEF00EFB105544EA0544A5
:1013600000FB08F8A04507D93C1900F1FF352DD244
:10137000A0452BD902383C4440EA0940A4EB0804BC
:10138000A0FB02894C45C6464D4619D316D05EB126
:10139000B3EB0E0264EB050404FA0CFCCA404CEA01
:1013A0000202CC40C6E900240021BDE8F0873146A6
:1013B00030460EE7AC46EDE6184601E74345E6D277
:1013C000B8EB020E69EB07050138E0E72846D3E7E2
:1013D00060468FE78146BAE7614677E708464BE704
:1013E000ACF1020C3D4415E702383C4426E700BF4F
:1013F00003685A004CBF43F0004323F000431844F5
:10140000704700BF2DE9F84329B34F1E0446154627
:101410003E464FF0000808EB060101EBD171491080
:1014200004EBC1094846FFF7E3FF0346C800083054
:101430008F42204409D0AB4209D8FFF7D9FF0138C9
:10144000A8420AD201F10108E5E7AB4205D9884577
:1014500001D04E1EDFE74FF000094846BDE8F88393
:10146000012807D0022807D0044B00280CBF1846DB
:10147000002070470248704702487047251B00084B
:10148000291B00082D1B000830B5234B83B00446F0
:101490008D1E3BB301A92846AFF30080E8B1019946
:1014A0002A46FFF7AFFF0146B8B1FFF7A1FF4B682F
:1014B000A064012B2BD0002B01F1040023DBFFF7EC
:1014C00097FF0023C4E913030368002B10DBFFF729
:1014D0008FFF2061002003B030BD0023092023616D
:1014E00003B030BD0D490E48091AC9100191D7E764
:1014F000C3F30360FFF7B4FF0028206114BF00208E
:10150000092003B030BD0123C4E91303DCE7002345
:1015100023610520DFE700BF000000002CA40008C5
:101520005CA300080368DA0710B5044606D49B07DD
:1015300000F1480009D500F04BFC2368590709D594
:101540001A070ED5DB0613D510BD00F039FC236851
:101550005907F5D404F1D00000F042FC23681A07C3
:10156000F0D404F5A87000F043FC2368DB06EBD44C
:1015700004F5E870BDE8104000F07EBC034600684A
:1015800000B11844704700BF09207047704700BF82
:1015900070B504460E46316C2046FFF775FF0546D0
:1015A00088B9336C6361324623692146012098472C
:1015B0000828F0D0072806D12846316CFFF7E6FF4F
:1015C000301D00F0F1FB04F079F800BF2DE9F04781
:1015D0000D1D064614460FCDADF5727D0DF10C0CB8
:1015E000ACE80F000FCDACE80F000FCDACE80F005A
:1015F00095E80F0002ADF768D6F818808CE80F0068
:1016000000232B6021E02B6C73614FF4F0722946AC
:101610007AA800F041FE33697AAA314650469847CD
:10162000889BCDE9005821466B648146334632469B
:101630000120B8470446E8B94FF4F0727AA9284669
:1016400000F02AFEB9F1080F1BD1296C3046FFF7D4
:101650001BFF09345FFA84FA81460028D3D0AB6BB4
:101660004AF01001CDE9005832466B640120334640
:10167000B84708B14FF0090948460DF5727DBDE83D
:10168000F087B9F1070FF5D12046296CFFF77EFFEF
:1016900003A800F089FB00BF406C7047F0B5CB6B2E
:1016A0000B640E1D0F4605460FCEF9B001AC0FC4FA
:1016B0000FCE0FC40FCE0FC496E80F004FF0FF36C9
:1016C00084E80F00009606E02B696A462946984791
:1016D0000828044608D110992846FFF7D5FE0028AF
:1016E000F2D0092079B0F0BD6846FFF71BFF062C49
:1016F000F7D139462846FFF74BFF00BF30B4DD6B0A
:10170000C160826119461D64002230BC5EE700BFE3
:1017100070B5C66843690B64AEB903690A460446EE
:101720000D46014602209847072805D008280FD10A
:1017300029462046FFF72CFF3046296CFFF726FF8D
:10174000281D00F031FB0122FFF740FF03F0B6FF38
:1017500003F0B4FFC2681AB1CA6B0A64002235E70D
:101760009CE700BF704700BF836801460BB10120B2
:1017700018477047012912D009D873B90F2A0CD81D
:1017800000EB820218465368009A136070470339D1
:10179000012994BF012002207047022070470846AB
:1017A000704700BF10B584B0002303AC0A46009414
:1017B0001946FFF7DFFF039804B010BD012912D0CE
:1017C00009D873B90F2A0CD800EB8200009A12686E
:1017D0004260184670470339012994BF0120022056
:1017E0007047022070470846704700BF10B584B0AC
:1017F000002303AC039200940A461946FFF7DEFF6C
:1018000004B010BDF0B5D36B1364151D8C460646AD
:101810000FCDADF50F7D17AC0FC40FCD0FC40FCD9D
:101820000FC495E80F004FF0FF3784E80F006546BE
:10183000169710E0FFF7DAFF294616A8B0470346CF
:1018400016AA6946082083B9049B984705280446D0
:101850000CD0092809D026996846FFF715FE0346E3
:101860006A460C2116A8002BE4D0092416A8FFF71D
:1018700059FE20460DF50F7DF0BD00BF2DE9F04F5C
:10188000CC6C89B00D4654F8041B0694174600F042
:1018900003081E46002B79D00B0CDAB209048DF830
:1018A0001D30022304EB820405918DF81C302B6D52
:1018B000B8F1020F08BFAC6B13F001030CD038462F
:1018C00005A900F073FB18B9082009B0BDE8F08F36
:1018D000092009B0BDE8F08FD4F800A0BAF1000FDC
:1018E000EDD0019300F008030293022E4AD0B4F821
:1018F00000A0B4F802900434AA6C29F0010B0F2167
:1019000038469344FFF74EFF834539D82AF0010249
:101910005A44824294BF002001204FEA490303F059
:1019200002030AF0010A43EA0A03012B49D0022B01
:1019300032D0002BCCD1B8F1000F02D0002840F0FB
:10194000CD800434D4F800A0BAF1000FCDD105A9A0
:10195000384600F02BFB0028BAD1019B002BB3D0F6
:101960000F213846FFF71EFF0E2102463846FFF7CB
:101970003DFF38466A4A0F21FFF738FF0720A8E7E6
:101980000020CAE7D4F804900834B5E7090203231D
:101990000591ADF81C308AE7236823F0004BB8F1BD
:1019A000000F45D128B1029A002A5CD0BBF1000F8C
:1019B00074D0002B00DA04340BF1010B04EB8B0420
:1019C000C0E7B8F1000F19D1B0B1D4E90023991CD8
:1019D0004FEAD2723FF47CAF05F158010133049114
:1019E00000F09080201DFFF7C9FD04AB014628469A
:1019F000AFF3008000285BD10834A3E70D213846FF
:101A0000D5F82090FFF7CEFE8145F5D1AB6A9C4218
:101A1000F2D12046FFF7ECFC0F2102463846FFF7D3
:101A2000E5FE38462A460021FFF7E0FE072050E792
:101A30000D213846D5F82090FFF7B4FE814501D03E
:101A40002368B6E7AB6A9C42FAD104220021C5E9BB
:101A50000B12A318C5F828B06B6323688B4259DBBF
:101A600001230193A8E705F15803CDF80C8004F198
:101A7000040AB04691461E460DE00496FFF77EFD2F
:101A800004AB014600222846AFF3008009F10109AA
:101A90000AF1040AE8B9D9455046EED138460D217D
:101AA000FFF780FE049B2862C5E90934062010E791
:101AB00081460D213846FFF775FEB9F1020F286205
:101AC00025D12B46049A43F82C2F6B62AC6206207A
:101AD000FFE646462368DDF80C806AE72046FFF7FC
:101AE00087FC04340246AC6328461446AFF30080FA
:101AF00000283FF4EDAE384622460F21FFF776FE70
:101B00000720E6E638460D21FFF74CFE2862049BCD
:101B10006B62DBE70BF1010004EB80007AE700BFAA
:101B2000000000000023A9E60123A7E60223A5E6A2
:101B30002DE9F0430646C3B015461C46042900F2C1
:101B4000B980DFE801F09A53B7290300002C40F078
:101B5000B180102A00F2AE800368D80600F1F3804D
:101B600020AF384600F092F9B06B0023012404FA4C
:101B700003F22A42014604D051F8042B47F82320EF
:101B800008460133042BF2D1B063384600F074F9F3
:101B9000002043B0BDE8F083032C40F08B8094B26A
:101BA00004EB1243102B4FEA124500F283800368C6
:101BB0001F0700F1D08020AF384600F03BF907EB5B
:101BC000C501B56B54B10B46E81A01EBC401E40042
:101BD0001A5843F8042B8B42FAD125443846B56392
:101BE00000F006F9002043B0BDE8F083012C4FEA75
:101BF000124895B25AD0052C5CD108EB0509B9F111
:101C0000200F57D8B8F10F0F77D9A946002D40F013
:101C10008880B36B6DB320AF4FF0000907EBC807A6
:101C2000043F03EBC50553F8041B47F8041FAB4200
:101C3000F9D1B9F1000F0FD06F464146102938BFD6
:101C4000102107EBC101843903EBC90553F8040BDC
:101C500041F8040FAB42F9D1012C00F08480B8F1B7
:101C60000F0FB56345D9B9F1000F02D0684600F0F7
:101C7000B7F8002043B0BDE8F083DCB9876B23469A
:101C8000012094B206F1040C00FA03F22242394614
:101C900004D051F8042B4CF823200F460133102BAD
:101CA000F2D115F40050E4D1B76304E008EB05036A
:101CB000102B03D9022043B0BDE8F083B8F10F0F19
:101CC000F8D83368DA0706D5304623F0030340F826
:101CD000483B00F079F820AF384600F075F8B36B58
:101CE000002D99D11D460435B563384600F068F8DB
:101CF000BFE720A800F06CF8B5E7B9F1100F40D9A4
:101D0000A9F110093368D90708D523F0010330463B
:101D100043F0020340F8483B00F05EF8B9F1000FD1
:101D200032D033685A0720D4B8F10F0F25D96F4647
:101D30003846C8F1100500F057F8002DB36B7FF757
:101D40007CAF20AF6AE723F01003336006F5E8703C
:101D500000F09CF804E723F00803036000F5A87086
:101D600000F068F827E720AFBDE7304623F0040312
:101D700040F8D03B00F038F8D6E720A800F02CF867
:101D8000D5E74FF00009BDE7B8F10F0F3FF641AFBF
:101D900020AF384600F020F8B36B002D7FF43CAF45
:101DA000384600F015F864E700F1340191E8380096
:101DB0009C46A6464CF8045D90E8FF0FE54600BD42
:101DC00090EC210B704700BF80EC210B704700BFE7
:101DD00090EC200B704700BF80EC200B704700BFD9
:101DE000D0EC200B704700BFC0EC200B704700BF49
:101DF000F0EC0201F0EC0211F0EC0221F0EC023107
:101E0000F0EC0241F0EC0251F0EC0261F0EC0271F6
:101E1000F0EC0281F0EC0291F0EC02A1F0EC02B1E6
:101E2000F0EC02C1F0EC02D1F0EC02E1F0EC02F1D6
:101E3000704700BFE0EC0201E0EC0211E0EC02218F
:101E4000E0EC0231E0EC0241E0EC0251E0EC026136
:101E5000E0EC0271E0EC0281E0EC0291E0EC02A126
:101E6000E0EC02B1E0EC02C1E0EC02D1E0EC02E116
:101E7000E0EC02F1704700BFB0FC0181B0FC0191C1
:101E8000B0FC01A1B0FC01B1704700BFA0FC018112
:101E9000A0FC0191A0FC01A1A0FC01B1704700BF12
:101EA000EC4600B52DE900502DE9FF1F4FF000036F
:101EB0002DE90C0001A9FFF7F1FBDDF840E012B0BD
:101EC000704700BFEC4600B52DE900502DE9FF1F1B
:101ED0004FF000032DE90C0001A9FFF719FCDDF814
:101EE00040E012B0704700BFEC4600B52DE900504D
:101EF0002DE9FF1F4FF000032DE90C0001A9FFF7AA
:101F000029FCDDF840E012B0704700BFEC4600B598
:101F10002DE900502DE9FF1F4FF000032DE90C00C3
:101F200001ABFFF7EBFBDDF840E012B0704700BFFC
:101F3000EC4600B52DE900502DE9FF1F4FF00003DE
:101F40002DE90C0001AAFFF75DFCDDF840E012B0BE
:101F5000704700BF027A7AB9437AA3B14268013B65
:101F600010B4437213680321141D01721A024460F5
:101F7000026010BC180E70470368013A02721A0220
:101F80000260180E7047B020704700BF00B585B0E2
:101F900003AA0023009219460C22FFF7EBFB0398DB
:101FA00005B05DF804FB00BFF0E700BF2DE9F0438A
:101FB000054685B00E464FF000083046FFF7CAFFD1
:101FC000B028044600F0B280070620D500F0F003E8
:101FD000802B4DD0902B36D0A02B60D0B02B74D05E
:101FE000C02B00F08B8000F0F803D02B0BD100F059
:101FF0000702013242F40022052301212846FFF79F
:1020000097FD0028D9D0092005B0BDE8F0830DF177
:102010000C09002319468700CDF800900D222846B0
:10202000FFF7A8FBFFB2039BCDF8009004376006D2
:102030004CBFDF1BFF18002319460D2228460397CB
:10204000FFF7BCFBB9E700F00D030D2BDBD003AFAE
:10205000002300F00F02194600972846FFF78AFB7D
:102060000023009719460D222846FFF7A7FBA4E797
:102070003046FFF76FFF24022043B0F5004FC2D077
:1020800004010023A2B219462846FFF751FD00289B
:10209000B9D114F4004F18BF4FF001088DE7C243C7
:1020A00002F007034FF47F621A41010702F47F62D6
:1020B0004FF0000348BF42F4804219462846FFF71C
:1020C00037FD00283FF479AF9DE7B12833D0B2281F
:1020D00000F08B80B32839D000F0FC03B42B92D0F1
:1020E00000F007020132012342F40022194628467B
:1020F000FFF71EFD00283FF460AF84E7C62842D0FA
:10210000C7284CD000F0F803C02B5BD0C82860D0A3
:10211000C9287FF478AF3046FFF71CFF020300F0B8
:102120000F0002F470220130024365E7B8F1000F9E
:1021300018D0002068E73046FFF70CFF0246002861
:102140003FF461AF10F0F003D0D05CE73046FFF70A
:1021500001FF010300F00F0001F47021421C012374
:102160000A43C3E703AC43460E2241460094284687
:10217000FFF700FB0094284643460F224146FFF735
:102180001DFB404640E73046FFF7E4FE010300F048
:102190000F0001F47021421C03230A43A6E73046D6
:1021A000FFF7D8FE024600283FF42DAF10F0F003F1
:1021B0007FF429AF04212846FFF7BAFC00283FF43A
:1021C000FCAE20E700F00F020132032342F420228C
:1021D0008CE73046FFF7BEFE00F0F00200F00F0380
:1021E0001032013343EA023206E700230DF10C09F5
:1021F0000D221946CDF800902846FFF7BBFA30466D
:10220000FFF7A8FE02064FF002070CD5039B00F073
:102210007F00B840034430460393FFF79BFE03065C
:1022200007F10707F2D4039BCDF8009000F07F047C
:1022300003F50172BC400023144419460D222846C0
:102240000394FFF7BBFAB8E610B5C26C84B05368CC
:1022500003248DF80C401B0202F108040846D279D1
:10226000019301A902948DF80D20FFF79FFE04B0A1
:1022700010BD00BF08B5FFF797FE806C08BD00BF1A
:1022800008B5FFF791FEC06CC379023300EB830001
:1022900008BD00BF704700BF844641EA000313F049
:1022A00003036DD1403A41D351F8043B40F8043B5D
:1022B00051F8043B40F8043B51F8043B40F8043B20
:1022C00051F8043B40F8043B51F8043B40F8043B10
:1022D00051F8043B40F8043B51F8043B40F8043B00
:1022E00051F8043B40F8043B51F8043B40F8043BF0
:1022F00051F8043B40F8043B51F8043B40F8043BE0
:1023000051F8043B40F8043B51F8043B40F8043BCF
:1023100051F8043B40F8043B51F8043B40F8043BBF
:1023200051F8043B40F8043B403ABDD2303211D35F
:1023300051F8043B40F8043B51F8043B40F8043B9F
:1023400051F8043B40F8043B51F8043B40F8043B8F
:10235000103AEDD20C3205D351F8043B40F8043B5F
:10236000043AF9D2043208D0D2071CBF11F8013B5D
:1023700000F8013B01D30B8803806046704700BF23
:10238000082A13D38B078DD010F003038AD0C3F132
:102390000403D21ADB071CBF11F8013B00F8013B14
:1023A00080D331F8023B20F8023B7BE7043AD9D3D3
:1023B000013A11F8013B00F8013BF9D20B780370A8
:1023C0004B7843708B788370604670470000000044
:1023D00000000000000000000000000000000000FD
:1023E00000000000000000000000000000000000ED
:1023F00000000000000000000000000000000000DD
:1024000090F800F06DE9024520F007016FF0000C34
:1024100010F0070491F820F040F049804FF00004DC
:102420006FF00700D1E9002391F840F000F10800B7
:1024300082FA4CF2A4FA8CF283FA4CF3A2FA8CF3EF
:102440004BBBD1E9022382FA4CF200F10800A4FA56
:102450008CF283FA4CF3A2FA8CF3E3B9D1E90423AA
:1024600082FA4CF200F10800A4FA8CF283FA4CF3E1
:10247000A2FA8CF37BB9D1E9062301F1200182FA9B
:102480004CF200F10800A4FA8CF283FA4CF3A2FAA1
:102490008CF3002BC6D0002A04BF04301A4612BAAF
:1024A000B2FA82F2FDE8024500EBD2007047D1E9B2
:1024B000002304F00305C4F100004FEAC50514F041
:1024C000040F91F840F00CFA05F562EA05021CBF12
:1024D00063EA050362464FF00004A9E7000000002C
:1024E00001F0FF01102A2BDB10F0070F08D010F8C5
:1024F000013B013A8B422DD010F0070F42B3F6D1C9
:10250000F0B441EA012141EA014122F007047FF0E1
:1025100000070023F0E80256083C85EA010586EA38
:10252000010685FA47F5A3FA87F586FA47F6A5FA74
:1025300087F68EB9EED1F0BC01F0FF0102F0070280
:1025400032B110F8013B013A83EA010313B1F8D12B
:102550000020704701387047002D06BF354603380C
:10256000073815F0010F07D1013015F4807F02BF45
:10257000013015F4C03F0130F0BC0138704700BF96
:102580004FEA410212F5001215D211D56FF478739B
:10259000B3EB625212D94FEAC12343F0004343EA3E
:1025A000505311F0004F23FA02F018BF4042704719
:1025B0004FF00000704750EA013005D111F00040A3
:1025C00008BF6FF0004070474FF00000704700BF39
:1025D000234B1B6803B170472DE9F04186B0204BB7
:1025E00001221A60002400941E4B9A6B42F00102F3
:1025F0009A639B6B03F001030093009B4FF4805898
:10260000CDF80480022702970394032604960C2534
:10261000059501A9144800F071FB4FF680730193F2
:10262000029703940496059501A9104800F066FBF3
:102630004CF233730193029703940496059501A914
:102640000B4800F05BFBCDF80480029703940496DE
:10265000059501A9074800F051FB06B0BDE8F081DF
:10266000DC09002000380240001402400010024043
:10267000000C02400018024030B58FB01C484FF0EB
:102680002043036003F582734360062383600023C5
:10269000C3600361102242618361C36103624362CC
:1026A0004FF480518162C3624FF480410163436300
:1026B000836343640F21079108913C2409940A9392
:1026C0000B9211240C940D9309250095019108217A
:1026D000029103930492059406936A4607A901F0B8
:1026E00087FC08B90FB030BD00F002F9FAE700BF6F
:1026F000E009002008B5FFF76BFF08BD2DE9F041A8
:102700008EB0002409940A940B940C940D940194B7
:10271000474B1A6B42F004021A631A6B02F0040270
:102720000192019A02941A6B42F080021A631A6BAA
:1027300002F080020292029A03941A6B42F00202A3
:102740001A631A6B02F002020392039A04941A6B42
:1027500042F020021A631A6B02F020020492049ADB
:1027600005941A6B42F010021A631A6B02F0100201
:102770000592059A06941A6B42F008021A631A6BC6
:1027800002F008020692069A07941A6B42F00102C0
:102790001A631A6B02F001020792079A08941A6BE7
:1027A00042F040021A631B6B03F040030893089B3E
:1027B000DFF8888022464FF40051404600F08FFB3E
:1027C0001C4E224648F20101304600F088FB1A4FA9
:1027D00022464FF40061384600F081FB4FF400536D
:1027E000099301250A950B940C9409A9404600F021
:1027F00085FA48F2010309930A950B940C9409A9F0
:10280000304600F07BFA062309930A940B9409A939
:10281000304600F073FA4FF4006309930A950B9465
:102820000C9409A9384600F069FA0EB0BDE8F081B1
:102830000038024000040240001402400008024038
:1028400008B50B480B4B03600B4B436000238360C0
:10285000C3604FF48042026143618361C3610362DC
:1028600000F08CFD00B908BD00F042F8FBE700BFA6
:10287000300A002000540040A086010030B589B025
:102880000023039304930593069307930268154B63
:102890009A4201D009B030BD00250195124C236B3E
:1028A00043F002032363236B03F002030193019BB4
:1028B0004FF44073039312230493012305930323DE
:1028C00006930423079303A9084800F017FA02951A
:1028D000236C43F400132364236C03F4001302936A
:1028E000029BD7E700540040003802400004024039
:1028F00072B6FEE700B595B03022002108A802F0BC
:102900000FFF00230393049305930693079301930A
:10291000204A116C41F080511164126C02F0805217
:102920000192019A02931C4B1A6842F480421A6089
:102930001B6803F480430293029B012308934FF426
:102940008033099302220E924FF480030F930423E5
:102950001093A82111911292139308A801F010F876
:1029600098B90F23039302230493002305934FF494
:10297000A05306934FF480530793052103A801F059
:1029800061FA20B915B05DF804FBFFF7B1FFFFF75E
:10299000AFFF00BF003802400070004008B500F0F3
:1029A00011F9FFF7A7FFFFF7A9FEFFF765FE00F09B
:1029B0008FF8FFF745FF00F02FF8FEE770B588B0FD
:1029C00001F0C4FE02F016FD12E0104B5B881049C6
:1029D000684603F067FA6846FFF712FDFF2382B2EC
:1029E00069460C4801F01FFC3146284601F0EEFD17
:1029F000064C25886688002002F01CF92288AA422D
:102A0000E3D16388B342E0D1F2E700BFE40A0020DB
:102A100078A00008880A002008B5FFF7CFFF000063
:102A200082B0002100910B4B5A6C42F480425A64F0
:102A30005A6C02F480420092009A01911A6C42F0A2
:102A400080521A641B6C03F080530193019B02B007
:102A5000704700BF00380240FEE7FEE7FEE7FEE7F2
:102A6000FEE770477047704708B500F0C5F808BD2D
:102A70000120704708B502F029FE162303604FF0CD
:102A8000FF3008BD08B54FF0FF31FFF7F3FFFEE759
:102A900008B503460B4A126842B10A4A106803445B
:102AA0006A46934206D8074A136008BD054A06499C
:102AB0001160F2E702F00AFE0C2303604FF0FF30D2
:102AC000F3E700BF840A0020580B00207047000085
:102AD00008B50A480A4B03604FF4E1334360002312
:102AE0008360C36003610C2242618361C36101F0B2
:102AF0006BFB00B908BDFFF7FBFEFBE7880A00206F
:102B00000010014000B589B000230393049305939E
:102B100006930793026803F1804303F588339A42D2
:102B200002D009B05DF804FB0022019203F5943352
:102B3000596C41F010015964596C01F01001019178
:102B400001990292196B41F0010119631B6B03F0AB
:102B500001030293029B4FF4C06303930223049387
:102B60000592032306930723079303A9014800F066
:102B7000C5F8D6E70000024010B504460E4B1878A1
:102B80004FF47A73B3FBF0F30C4A1068B0FBF3F028
:102B900000F09EF868B90F2C01D901200AE000224C
:102BA00021464FF0FF3000F05FF8054B1C6000201D
:102BB00000E0012010BD00BF040000200000002044
:102BC0000800002008B50B4B1A6842F400721A6026
:102BD0001A6842F480621A601A6842F480721A60BD
:102BE000032000F02FF80020FFF7C6FFFFF718FFC3
:102BF000002008BD003C0240034A1168034B1B78CB
:102C00000B441360704700BFCC0A00200400002072
:102C1000014B1868704700BFCC0A002038B5044645
:102C2000FFF7F6FF0546B4F1FF3F02D0044B1B78D7
:102C30001C44FFF7EDFF401BA042FAD338BD00BF94
:102C400004000020074AD36823F4E0631B041B0C34
:102C5000000200F4E060034343F0BF6343F4003339
:102C6000D360704700ED00E030B4174BDB68C3F36E
:102C70000223C3F10704042C28BF04241D1D062DC4
:102C800018D9033B4FF0FF3505FA04F421EA04019B
:102C9000994005FA03F322EA0303194300280BDBEA
:102CA0000901C9B200F1604000F5614080F80013ED
:102CB00030BC70470023E5E700F00F000901C9B2FE
:102CC000024B1954F4E700BF00ED00E014ED00E002
:102CD0000138B0F1807F0AD2064B5860064AF021D5
:102CE00082F823100020986007221A6070470120A4
:102CF000704700BF10E000E000ED00E000230F2B64
:102D000000F2DD80F0B482B05DE086685F000324ED
:102D1000BC4026EA0406CC68BC4034438460466864
:102D200026EA02064C68C4F300129A40324342601D
:102D300057E0DC08083450F8247003F007029600CE
:102D40000F22B24027EA02070A69B2403A4340F82C
:102D500024205AE0072200E00022B2403A43023425
:102D6000574E46F82420574A1468EA4324EA0506D9
:102D70004F6817F4803F01D045EA0406514C2660A5
:102D8000646802EA04064F6817F4003F01D045EA80
:102D900004064C4C6660A46802EA04064F6817F407
:102DA000801F01D045EA0406464CA660E468224034
:102DB0004E6816F4001F01D045EA0402414CE2605F
:102DC00001330F2B78D801229A400C6804EA0205DF
:102DD00032EA0404F4D14C6804F00304013C012CF1
:102DE00093D94A6802F00302032A09D0C4685E003E
:102DF0000322B24024EA02048A68B2402243C2603D
:102E00004A6802F00302022A93D004685E0003229B
:102E1000B24024EA02044A6802F00302B2402243AC
:102E200002604A6812F0805FCAD000220192264AEE
:102E3000546C44F480445464526C02F48042019215
:102E4000019A9C08A61C1E4A52F8267003F0030241
:102E500096000F22B24027EA02071C4A90423FF434
:102E60007BAF02F5806290421AD002F580629042F8
:102E700018D002F58062904216D002F5806290422E
:102E800014D002F58062904212D002F58062904226
:102E900010D002F5806290423FF45CAF08225CE7FC
:102EA00001225AE7022258E7032256E7042254E798
:102EB000052252E7062250E702B0F0BC7047704787
:102EC00000380140003C0140003802400000024050
:102ED0000369194201D001207047002070470AB1F0
:102EE0008161704709048161704703685A6912F46F
:102EF000806F01D1002070476FF480625A61002317
:102F00000363202280F83D2080F83E30026C42F0BE
:102F10000402026480F83C30012070472DE9F04142
:102F200007460D4690461E4622E0FFF771FE069BBF
:102F3000C01AB04200D8DEB900233B63202287F8D4
:102F40003D2087F83E303A6C42F020023A6487F820
:102F50003C3001201AE03B689C6925EA0404A4B2D5
:102F6000B4FA84F46409A0450FD1B6F1FF3FDCD177
:102F7000C5F30743012BEED13B685C6925EA0404E5
:102F8000A4B2B4FA84F46409EDE70020BDE8F0814E
:102F90002DE9F04105460E46174698463DE01A6871
:102FA00042F400721A602B686FF480625A61002349
:102FB0002B63202285F83D2085F83E302A6C42F0B4
:102FC00004022A6485F83C30012034E0FFF720FE3B
:102FD000A0EB0800B84200D8FFB900232B632022E1
:102FE00085F83D2085F83E302A6C42F020022A64A4
:102FF00085F83C3001201EE02B689C6926EA040419
:10300000A4B2003C18BF0124A4B12B685A6912F481
:10301000806FC4D1B7F1FF3FD8D1C6F30743012B6E
:10302000EAD12B685C6926EA0404A4B2003C18BF0C
:103030000124E9E70020BDE8F08170B504460D46A3
:10304000164623685B6913F0800F1CD12046FFF7FA
:103050004CFFD0B9B5F1FF3FF3D0FFF7D9FD801B8E
:10306000A84201D8002DECD100232363202284F84C
:103070003D2084F83E30226C42F02002226484F825
:103080003C30012000E0002070BD0120FCE7000082
:103090002DE9F04385B004460D4691461F46DDF804
:1030A00030800D9E0368196841F4807119600096A4
:1030B000434600224FF00111FFF730FF60B923684B
:1030C00005F0FE051D613346424626492046FFF7BE
:1030D0005FFF68B1012008E023681B6813F4807F5C
:1030E00002D04FF400732364032005B0BDE8F083E1
:1030F0000023039323685A6903929B690393039BFC
:10310000324641462046FFF798FF30B9012F0FD1D4
:1031100023685FFA89F61E61E7E7236C042B01D070
:103120000120E2E72268136843F400731360F7E7B5
:1031300023684FEA19221A61324641462046FFF7BA
:103140007CFF20B923685FFA89F61E61CDE7236C06
:10315000042B01D00120C8E72268136843F40073F0
:103160001360F7E7020001002DE9F04784B0044640
:103170000D46164699460C9FDDF8348002681368A8
:1031800043F4806313600368196841F48071196027
:10319000CDF800803B4600224FF00111FFF7BEFE44
:1031A00070B95FFA85FA236805F0FE051D61434694
:1031B0003A4641492046FFF7EBFE68B1012008E09E
:1031C00023681B6813F4807F02D04FF400732364DC
:1031D000032004B0BDE8F0870023039323685A69F5
:1031E00003929B690393039B424639462046FFF7AF
:1031F00024FF80B9B9F1010F18D12368F6B21E611E
:10320000424639462046FFF718FF68B3236C042B6B
:1032100024D00120DDE7236C042B01D00120D8E766
:103220002268136843F400731360F7E72368320AD7
:103230001A61424639462046FFF7FFFE18B9236857
:10324000F6B21E61DCE7236C042B01D00120C0E73D
:103250002268136843F400731360F7E72268136869
:1032600043F400731360D4E72268136843F4807357
:103270001360CDF800803B4600224FF0011120463C
:10328000FFF74CFE68B922684AF001031361434618
:103290003A4609492046FFF77BFE002899D00120D5
:1032A00097E723681B6813F4807F02D04FF4007304
:1032B000236403208DE700BF0200010070B50446BF
:1032C0000D46164623685B6913F0040F1CD1204697
:1032D000FFF70BFED0B9B5F1FF3FF3D0FFF798FC35
:1032E000801BA84201D8002DECD1002323632022AB
:1032F00084F83D2084F83E30226C42F020022264A3
:1033000084F83C30012000E0002070BD0120FCE783
:1033100070B505460C4616462B68596911F0400FEA
:1033200029D1596911F0100F15D1FFF771FC801BDD
:10333000A04201D8002CEFD100232B63202285F876
:103340003D2085F83E302A6C42F020022A6485F840
:103350003C30012070BD6FF010025A6100232B63D6
:10336000202285F83D2085F83E302A6C2A6485F8B5
:103370003C300120EEE70020ECE70000002800F0E0
:10338000CC80F8B5044690F83D30002B77D024234C
:1033900084F83D302268136823F00103136022682B
:1033A000136843F4004313602268136823F4004356
:1033B000136000F0FDFD62685A4B9A4264D85A4B84
:1033C00098428CBF00230123002B40F0A880574D6A
:1033D000A5FB0035AF0C2668716821F03F0141EA7A
:1033E0009541716021680B6A23F03F0365684D4A7F
:1033F00095424FD87A1C13430B622568E96921F482
:103400004F4121F0FF016368464A93424CD801388E
:103410005B00B0FBF3F0013040F6FC73184278D04B
:10342000C0F30B030B43EB6121680B6823F0C0036F
:10343000E269206A024313430B6021688B6823F41E
:10344000034323F0FF032269E068024313438B60C8
:103450002168CB6823F0FF036269A069024313432C
:10346000CB602268136843F00103136000202064DE
:10347000202384F83D30206384F83E00F8BD80F8B6
:103480003C30FFF7FBF982E7294B98428CBF0023C1
:10349000012399E74FF4967202FB07F2254DA5FB35
:1034A000025292090132A6E7A268BAB9461E03EB9E
:1034B0004307B6FBF7F60136C6F30B06B6FA86F6F7
:1034C000760946BBC2B9421E03EB4303B2FBF3F2DB
:1034D0000132C2F30B0242F40043A3E7461E03EBA2
:1034E000830707EB8707B6FBF7F60136C6F30B0633
:1034F000B6FA86F67609E4E7421E03EB830303EB94
:103500008303B2FBF3F20132C2F30B0242F44043F5
:1035100088E7042386E7012384E701207047012020
:10352000ACE700BFA08601007F841E0083DE1B4342
:10353000FF083D00D34D62102DE9F04383B00446EF
:103540000F46904699460C9EFFF762FB054694F89D
:103550003D00C0B2202803D0022003B0BDE8F083B4
:103560000095192301224B492046FFF7D7FC00287C
:1035700040F0898094F83C30012B00F086800123D4
:1035800084F83C3023681A6812F0010F03D11A68DE
:1035900042F001021A602268136823F4006313608A
:1035A000212384F83D30402384F83E3000232364F7
:1035B0000A9B6362BDF82C306385638D2385364B8F
:1035C000E362019500964B46424639462046FFF796
:1035D0005FFD00285BD1238D002B35D02A46314674
:1035E0002046FFF72AFD20BB626A236812781A6121
:1035F000616A4B1C6362228D013A92B22285638D0F
:103600009BB2013B9BB263852368586910F0040F9D
:10361000E1D0002ADFD04A781A61636A013363621D
:10362000238D013B2385638D9BB2013B9BB2638558
:10363000D1E7236C042B01D001208EE722681368A8
:1036400043F400731360F7E72A4631462046FFF73C
:1036500035FE50B1236C042B01D001207DE7226898
:10366000136843F400731360F7E72268136843F4A8
:1036700000731360202384F83D30002384F83E302B
:1036800084F83C3069E7022067E7022065E7012003
:1036900063E700BF020010000000FFFF2DE9F043C8
:1036A00087B004460F4690469946109EFFF7B0FA41
:1036B000054694F83D00C0B2202804D002273846C1
:1036C00007B0BDE8F0830095192301229D492046EB
:1036D000FFF724FC002840F0448194F83C30012B93
:1036E00000F04181012384F83C3023681A6812F00D
:1036F000010F03D11A6842F001021A6022681368B0
:1037000023F400631360222384F83D30402384F8BF
:103710003E30002323640E9B6362BDF83C3063851A
:10372000638D2385884BE362019500964B464246A4
:1037300039462046FFF718FD0746002840F015815E
:10374000238D5BB9029323685A6902929A690292A7
:10375000029A1A6842F400721A6098E0012B0AD0AB
:10376000022B1AD00023059323685A6905929B699E
:103770000593059B8BE02268136823F48063136034
:103780000023039323685A6903929A690392039A68
:103790001A6842F400721A6079E02268136823F410
:1037A000806313602268136843F40063136000238E
:1037B000049323685A6904929B690493049B66E00E
:1037C0002A4631462046FFF7A3FD002840F0CF806F
:1037D00023681A69636A1A70636A01336362238D0E
:1037E000013B2385638D9BB2013B9BB263854EE019
:1037F00000953346002255492046FFF78FFB0028ED
:1038000040F0B7802268136843F4007313602368A4
:103810001A69636A1A70626A531C6362238D013BE2
:103820002385638D9BB2013B9BB2638523681B6933
:103830005370636A01336362238D013B2385638D7B
:103840009BB2013B9BB2638521E02268136843F47D
:103850000073136023681A69636A1A70626A531CE2
:103860006362238D013B2385638D9BB2013B9BB239
:10387000638523681B695370636A01336362238D18
:10388000013B2385638D9BB2013B9BB26385238DF6
:10389000002B5DD0032B2BD8012B91D0022BA7D06E
:1038A00000953346002229492046FFF737FB0028C0
:1038B00061D12268136823F48063136023681A6956
:1038C000636A1A70636A01336362238D013B238547
:1038D000638D9BB2013B9BB263850095334600220A
:1038E0001A492046FFF71AFB0028AED00127E6E66A
:1038F0002A4631462046FFF70BFD00283DD12368BC
:103900001A69636A1A70626A531C6362238D013BF1
:103910002385638D9BB2013B9BB263852368596904
:1039200011F0040FB3D01B695370636A01336362F3
:10393000238D013B2385638D9BB2013B9BB2638545
:10394000A5E700BF020010000000FFFF0400010017
:10395000202384F83D30002384F83E3084F83C3046
:10396000ADE60227ABE60227A9E60127A7E6012775
:10397000A5E60127A3E60127A1E601279FE600BFF0
:10398000002800F0DF8170B582B00446036813F0B0
:10399000010F3BD0A64B9B6803F00C03042B2CD0EB
:1039A000A34B9B6803F00C03082B21D06368B3F58D
:1039B000803F4FD0B3F5A02F52D09D4B1A6822F410
:1039C00080321A601A6822F480221A606368002B21
:1039D00050D0FFF71DF90546954B1B6813F4003FC7
:1039E00014D1FFF715F9401B6428F5D90320B0E185
:1039F0008F4B5B6813F4800FD8D08D4B1B6813F48A
:103A0000003F03D06368002B00F09E81236813F011
:103A1000020F54D0864B9B6813F00C0F3ED0844BA2
:103A20009B6803F00C03082B33D0E368002B67D0AE
:103A3000804B01221A60FFF7EBF805467C4B1B68B0
:103A400013F0020F53D1FFF7E3F8401B0228F5D91A
:103A500003207EE1764A136843F480331360B5E7B0
:103A6000734B1A6842F480221A601A6842F480325A
:103A70001A60ABE7FFF7CCF805466D4B1B6813F4F3
:103A8000003FC3D0FFF7C4F8401B6428F5D90320DA
:103A90005FE1674B5B6813F4800FC6D1644B1B6812
:103AA00013F0020F03D0E368012B40F04F81604A0E
:103AB000136823F0F803216943EAC1031360236804
:103AC00013F0080F40D0636963B35B4B01221A60A7
:103AD000FFF79EF80546564B5B6F13F0020F33D18C
:103AE000FFF796F8401B0228F5D9032031E1504A30
:103AF000136823F0F803216943EAC1031360DEE78A
:103B00004C4B00221A60FFF783F80546484B1B68B0
:103B100013F0020FD3D0FFF77BF8401B0228F5D932
:103B2000032016E1444B00221A60FFF771F80546A6
:103B30003F4B5B6F13F0020F06D0FFF769F8401B95
:103B40000228F5D9032004E1236813F0040F78D08C
:103B5000374B1B6C13F0805F0DD100230193344B66
:103B60001A6C42F080521A641B6C03F0805301936C
:103B7000019B012500E00025304B1B6813F4807F7A
:103B800021D0A368012B32D0052B36D0284B1A6FD9
:103B900022F001021A671A6F22F004021A67A36862
:103BA000002B34D0FFF734F80646214B1B6F13F07F
:103BB000020F45D1FFF72CF8801B41F28833984261
:103BC000F3D90320C5E01D4A136843F480731360E2
:103BD000FFF71EF80646194B1B6813F4807FD0D1FF
:103BE000FFF716F8801B0228F5D90320B1E0104A30
:103BF000136F43F001031367D1E70D4B1A6F42F0C7
:103C000004021A671A6F42F001021A67C7E7FEF74B
:103C1000FFFF0646064B1B6F13F0020F10D0FEF796
:103C2000F7FF801B41F288339842F3D9032090E0DC
:103C30000038024000004742800E474200700040BA
:103C4000EDB9A369002B00F08380494A926802F025
:103C50000C02082A51D0022B17D0464B00221A60C2
:103C6000FEF7D6FF0446424B1B6813F0007F42D09C
:103C7000FEF7CEFF001B0228F5D9032069E03C4A7D
:103C8000136C23F080531364DBE73A4B00221A6075
:103C9000FEF7BEFF0546364B1B6813F0007F06D0CB
:103CA000FEF7B6FF401B0228F5D9032051E0E36977
:103CB000226A1343626A43EA8213A26A5208013AF3
:103CC00043EA0243E26A43EA0263294A5360294B0A
:103CD00001221A60FEF79CFF0446254B1B6813F077
:103CE000007F06D1FEF794FF001B0228F5D90320C0
:103CF0002FE000202DE000202BE0012B2BD01C4BCF
:103D00005B6803F48001E269914226D103F03F022F
:103D1000216A8A4223D1616A47F6C0721A40B2EB27
:103D2000811F1ED103F44031A26A5208013AB1EB5F
:103D3000024F18D103F07063E26AB3EB026F14D143
:103D4000002006E001207047012002E0012000E091
:103D5000002002B070BD0120FBE70120F9E701203F
:103D6000F7E70120F5E70120F3E70120F1E700BFC5
:103D70000038024060004742F8B52F4B9B6803F0C3
:103D80000C03042B53D0082B53D12B4B5A6802F051
:103D90003F025B6813F4800F28D0274B5B68C3F3A6
:103DA000881358010021C01A61F100018E0146EA12
:103DB000906687013C1A66EB0105E90041EA5471FF
:103DC000E000C01841F100014B0243EAD053440225
:103DD000204619460023FDF793F9174B5B68C3F3A0
:103DE000014301335B00B0FBF3F023E0124B5B684F
:103DF000C3F388135C010025E41A65F10005AE01E8
:103E000046EA9466A701381B66EB0501CC0044EA3C
:103E10005074C500E81844F100018B0243EA905346
:103E20008402204619460023FDF76AF9D5E70348C6
:103E300000E00348F8BD00BF0038024000127A00DD
:103E40000024F400002800F09B8070B50D46044665
:103E50004F4B1B6803F007038B4208D2CBB24C4A8E
:103E60001370136803F007038B4240F08B802368C4
:103E700013F0020F17D013F0040F04D0454A9368D3
:103E800043F4E0539360236813F0080F04D0414AD1
:103E9000936843F4604393603E4A936823F0F003D1
:103EA000A1680B439360236813F0010F32D063685D
:103EB000012B21D09A1E012A25D9364A126812F008
:103EC000020F61D033498A6822F0030213438B60EA
:103ED000FEF79EFE06462F4B9B6803F00C036268BC
:103EE000B3EB820F16D0FEF793FE801B41F28833AE
:103EF0009842F0D9032042E0264A126812F4003FAB
:103F0000E0D101203BE0234A126812F0007FD9D1B2
:103F1000012034E01E4B1B6803F00703AB4207D9B6
:103F2000EAB21B4B1A701B6803F00703AB422DD19A
:103F3000236813F0040F06D0164A936823F4E05365
:103F4000E1680B439360236813F0080F07D0114A10
:103F5000936823F46043216943EAC1039360FFF748
:103F60000BFF0C4B9B68C3F303130B4AD35CD84085
:103F70000A4B18600A4B1868FEF7FEFD002070BD62
:103F8000012070470120FAE70120F8E70120F6E759
:103F9000003C02400038024084A0000800000020DD
:103FA00008000020014B1868704700BF0000002087
:103FB00008B5FFF7F7FF044B9B68C3F38223034A5E
:103FC000D35CD84008BD00BF0038024094A0000870
:103FD00008B5FFF7E7FF044B9B68C3F34233034A7E
:103FE000D35CD84008BD00BF0038024094A0000850
:103FF00028B370B50E461546044690F84930CBB14B
:10400000214651F8080B00F07BF9A2683146206880
:1040100000F0A4F9236BA2682946606800F0BEF99D
:104020002268A16852F8213043F0010342F82130A0
:10403000002070BD80F84830FEF75CFBE0E701200F
:104040007047000070B504460268136923F44053BA
:10405000C1680B43136183680269134342691343C8
:10406000C2691A430168CB6823F4164323F00C039A
:104070001343CB600268536923F4407381690B4397
:1040800053610368344A934206D002F5806293423A
:1040900002D0FFF78DFF01E0FFF79AFFE369B3F568
:1040A000004F2AD00026051846EB06012D1846EBD6
:1040B0000101CB0043EA5573EA00154619466368CF
:1040C0009A009B0F281846EB0101FDF719F8234DC4
:1040D000A5FB00325109642303FB11031B0132339A
:1040E000A5FB03235B0903F0F00202EB011203F0CE
:1040F0000F03216813448B6070BD0026051846EB42
:1041000006012D1846EB0101CB0043EA5573EA0086
:104110001546194662683346921846EB0303281881
:1041200046EB0101FCF7ECFF0C4DA5FB00325109F9
:10413000642303FB1103DB003233A5FB03235B097C
:104140005A0002F4F87202EB011203F0070321682F
:1041500013448B60D0E700BF001001401F85EB5176
:104160002DE9F84305460F4616469946DDF82080AE
:104170002C68246837EA04030CBF01240024B442ED
:104180001FD1B8F1FF3FF3D0B8F1000F05D0FEF713
:104190003FFDA0EB09004045EAD92A68D36823F423
:1041A000D073D3602A68536923F00103536120233D
:1041B00085F83D3085F83E30002385F83C300320FB
:1041C00000E00020BDE8F88358B310B5044690F82D
:1041D0003D300BB3242384F83D302268D36823F4A8
:1041E0000053D3602046FFF72DFF2268136923F4A4
:1041F000904313612268536923F02A0353612268B4
:10420000D36843F40053D36000202064202384F853
:104210003D3084F83E3010BD80F83C30FEF772FC33
:10422000D8E7012070472DE9F04182B01E4690F892
:104230003D30DBB2202B54D104460D469046002978
:1042400053D0002A53D090F83C30012B51D0012399
:1042500080F83C3000230364212380F83D30FEF7D2
:10426000D7FC0746A4F82480A4F82680A368B3F5F9
:10427000805F05D04FF00008002384F83C3012E046
:10428000236913B14FF00008F6E7A8460025F3E7CD
:1042900038F8023B2268C3F308035360E28C92B201
:1042A000013A92B2E284E38C9BB273B100963B4632
:1042B000002280212046FFF753FFE0B9002DE7D010
:1042C00015F8012B23685A60E8E700963B46002268
:1042D00040212046FFF744FF78B9202384F83D3081
:1042E00000E0022002B0BDE8F0810120FAE70120E1
:1042F000F8E70220F6E70320F4E70320F2E70000E6
:1043000070B40C6850F82430134E1E404A688D6813
:1043100042EA0503CA6813430A6913434A6913430F
:104320008A691343CA6913430A6A13434A6A1343E7
:104330008A6A1343CA6A1343CA6B13430A6B134353
:104340003343082D04D040F82430002070BC70475F
:1043500043F04003F7E700BF8000F0FF30B40132C4
:1043600050F8224004F040440B684D6843EA0513BE
:104370008D6843EA0523CD6843EA05430D69013D95
:1043800043EA05534D69023D43EA056389690B43DE
:10439000234340F82230002030BC7047B3F5804FF3
:1043A00005D06FF0704340F822300020704730B4E1
:1043B00050F82230094C1C400B684D6843EA051345
:1043C0008D6843EA0523CD6843EA054389690B43B9
:1043D000234340F82230002030BC70470000F0CF6B
:1043E00082B0ADF80600BDF80620024B1A8002B07C
:1043F000704700BF7E00006C82B0ADF80600BDF8CB
:104400000620024B5A8002B0704700BF7E00006C4D
:1044100082B0044B5B88ADF80630BDF8060080B270
:1044200002B070477E00006C014B188059807047C5
:104430007E00006C024B1A89024B1A80704700BF45
:10444000D40A00207E00006C10B5072835D8DFE8BC
:1044500000F055534F5132044D4B00213620FFF7E9
:10446000E3FF284C6089FFF7BBFF0020FFF7C4FF84
:104470000020FFF7C1FF20880138C0F30F20FFF7AD
:10448000BBFF20880138C0B2FFF7B6FFA089FFF755
:10449000A7FF0020FFF7B0FF0020FFF7ADFF608807
:1044A0000138C0F30F20FFF7A7FF60880138C0B2C2
:1044B000FFF7A2FF10BD8021D0E7013806281FD8E2
:1044C000DFE800F0100E0C0A08060400E021C5E742
:1044D000A021C3E76021C1E72021BFE7C021BDE7DC
:1044E0004021BBE78021B9E74021B7E7C021B5E70C
:1044F0002021B3E76021B1E7E021AFE7A021ADE7DC
:104500000021ABE7D40A002008B5A8B9134B00225C
:104510009A71F0221A804FF4A0725A802C221A81CC
:104520002A225A812B229A810D4B05221A700C4B9C
:104530001878FFF789FF08BD084B01229A714FF4E4
:10454000A0721A80F0225A802C221A812A225A81C3
:104550002B229A81024B00221A70E8E7D40A00202D
:10456000D00A002070B505460C460A4E7089FFF748
:1045700037FF280AFFF740FFE8B2FFF73DFFB08999
:10458000FFF72EFF200AFFF737FFE0B2FFF734FFF7
:1045900070BD00BFD40A002038B50546094B1C8801
:1045A0005B8804FB03F400210846FFF7DBFFFFF7FD
:1045B00041FF0023A34203D2034A55800133F9E7A8
:1045C00038BD00BFD40A00207E00006C08B5FFF79C
:1045D000C9FFFFF72FFF024B1A88024B5A8008BD14
:1045E000D20A00207E00006C2DE9F04F83B0804697
:1045F000A2EB000A8946A3EB010BBAF1000F0DDD17
:1046000001220092BBF1000F14DD01230193DA4572
:104610001CDD564600252F462C461BE0BAF1000F44
:1046200005D0A0EB020A4FF0FF320092EAE7CDF886
:1046300000A0E7E7BBF1000F05D0A1EB030B4FF0A3
:10464000FF330193E3E7CDF804B0E0E75E46E1E72E
:104650000134A4B2731C9C4212DC1FFA89F11FFAC8
:1046600088F0FFF7B3FF57445D44BE4202DABF1B38
:10467000009B9844AE42EBDAAD1B019B9944E7E7FF
:1046800003B0BDE8F08F2DE9F04F85B080460F46AE
:1046900000925300C3F103030193002603E0B3002B
:1046A00006331A440192009B9E424CDCB5B205EBE6
:1046B000080B1FFA8BFBBDF800403B1B9BB202931B
:1046C00019465846FFF782FF04EB080A1FFA8AFAD8
:1046D0007B1B9AB2039211465046FFF777FF05EB1A
:1046E00007091FFA89F949465046FFF76FFF04EBA7
:1046F000070A1FFA8AFA51465846FFF767FFA8EBE8
:104700000505ADB251462846FFF760FFA8EB04044B
:10471000A4B249462046FFF759FF02992846FFF701
:1047200055FF03992046FFF751FF0136019A002AF1
:10473000B5DB009AB31A9B000A3301991944019121
:10474000531E0093AFE705B0BDE8F08F10B588B0F9
:104750003220FEF763FA01210020FFF765FE3220C8
:10476000FEF75CFA0420FFF73BFEFFF751FE714CA9
:10477000A080FFF74DFEA080FFF74AFE0002A08058
:10478000FFF746FEA288024392B2A2806A496846B9
:1047900001F088FB6846FDF733FEFF2382B26946CD
:1047A0006648FFF740FD1120FFF71AFE7820FEF75C
:1047B00035FA3620FFF714FE0020FFF71DFE3A20E1
:1047C000FFF70EFE0520FFF717FEB220FFF708FEE9
:1047D0000C20FFF711FE0C20FFF70EFE0020FFF764
:1047E0000BFE3320FFF708FE3320FFF705FEB7204E
:1047F000FFF7F6FD3520FFF7FFFDBB20FFF7F0FDCB
:104800002820FFF7F9FDC020FFF7EAFD2C20FFF775
:10481000F3FDC220FFF7E4FD0120FFF7EDFDC3200B
:10482000FFF7DEFD0B20FFF7E7FDC420FFF7D8FD03
:104830002020FFF7E1FDC620FFF7D2FD0F20FFF794
:10484000DBFDD020FFF7CCFDA420FFF7D5FDA12094
:10485000FFF7D2FDE020FFF7C3FDD020FFF7CCFD2E
:104860000120FFF7C9FD0820FFF7C6FD0F20FFF765
:10487000C3FD1120FFF7C0FD2A20FFF7BDFD362044
:10488000FFF7BAFD5520FFF7B7FD4420FFF7B4FD51
:104890003A20FFF7B1FD0B20FFF7AEFD0620FFF732
:1048A000ABFD1120FFF7A8FD2020FFF7A5FDE120BB
:1048B000FFF796FDD020FFF79FFD0220FFF79CFD3C
:1048C0000720FFF799FD0A20FFF796FD0B20FFF761
:1048D00093FD1820FFF790FD3420FFF78DFD432056
:1048E000FFF78AFD4A20FFF787FD2B20FFF784FDA5
:1048F0001B20FFF781FD1C20FFF77EFD2220FFF724
:104900007BFD1F20FFF778FD2920FFF769FD2C2094
:10491000FFF766FD0020FFF7F7FD01224FF400418D
:104920000748FEF7DCFA4FF6FF70FFF735FE08B0D8
:1049300010BD00BFD40A00209CA00008880A0020F7
:104940000004024000880B88C01A704708B5012295
:104950004FF400510148FEF7C2FA08BD00080240BA
:1049600008B500224FF400510148FEF7B8FA08BD1F
:104970000008024008B501224FF400610148FEF72B
:10498000AEFA08BD0014024008B500224FF40061E1
:104990000148FEF7A4FA08BD0014024008B5012240
:1049A00011460248FEF79BFA08BD00BF0004024012
:1049B00008B5002201210248FEF791FA08BD00BFA8
:1049C0000004024008B504210348FEF781FA0128DB
:1049D00014BF0020012008BD0004024008B50221D8
:1049E0000348FEF775FA012814BF0020012008BD16
:1049F0000004024030B583B00190019BB3F5617FA4
:104A00002CD8204B9C68FFF7CDFA1F4DA5FB003535
:104A1000AD0C019B03FB15452A46002D20DB194BED
:104A20009B689C4201DD9A42F9DD03B030BD4FF432
:104A30006170FFF7DFFF0134019B144AA2FB0323DF
:104A4000B4EB532FF3D3019A104BA3FB02135B0A71
:104A50004FF4617101FB13230193D2E70024EBE7CC
:104A6000FFF7A0FA084BA3FB00239B0C4FF47A72CC
:104A700002FB0355034B9B689C42FBDA9D42F9DB2A
:104A8000D3E700BF10E000E083DE1B43C5B3A29173
:104A900038B5044600250CE0FFF76CFF6400E4B273
:104AA000FFF786FF0120FFF7A5FFFFF777FF01352E
:104AB000EDB2072D05D814F0800FEDD1FFF764FF9C
:104AC000ECE738BD38B50446FFF74AFFFFF770FF43
:104AD000FFF75AFF2046FFF7DBFF0620FFF78AFFAC
:104AE000FFF766FF0120FFF785FFFFF757FF012063
:104AF000FFF780FFFFF75CFF0024254601E001354A
:104B0000EDB20F2D0FD86400A4B2FFF751FF0120C2
:104B1000FFF770FFFFF742FFFFF754FF0028EED0CA
:104B20000134A4B2EBE72409FFF710FF204638BD9B
:104B300030B585B00546D02803D090282AD100246E
:104B400000E00024042C0AD82846FFF7BBFF04AB82
:104B500003EB440323F80C0C0134A4B2F2E70E4B30
:104B60000222052101A800F02BFE0020012308E00D
:104B700004AA02EB430232F80C2C104480B2013339
:104B80009BB2032BF4D9054BA3FB0030C0F34F00BD
:104B900005B030BD0020FBE745490008ABAAAAAA32
:104BA00010B5D020FFF7C4FF04469020FFF7C0FFE8
:104BB000024B1C805880012010BD00BFE40A002079
:104BC00038B5FFF7EDFF00B938BD194B1C885D887B
:104BD000FFF7E6FF0028F7D0154A138852889C4259
:104BE00003D303F13101A14205DA9C4218D804F144
:104BF0003101994216DB954203D302F13101A942FA
:104C000005DA954210D805F1310191420EDB1C44C2
:104C10006410074B1C8015446D105D800120D3E7A4
:104C20000020D1E70020CFE70020CDE70020CBE730
:104C3000E40A002038B50446FFF7D0FE10B914B1DD
:104C4000FFF7BEFF38BDFFF7BBFF0028FAD0144CBA
:104C50002088FCF76BF8134B1968FCF7BBF8054686
:104C6000114BB3F90000FCF761F82946FBF7AAFFE6
:104C7000FCF726FA20806088FCF758F80B4B19687F
:104C8000FCF7A8F805460A4BB3F90000FCF74EF80C
:104C90002946FBF797FFFCF713FA6080D2E700BFC5
:104CA000E40A0020EC0A0020F00A0020F40A0020A8
:104CB000F80A002000000000F0B589B0FF2302933D
:104CC000012301930DF11F0200923522A0213648E5
:104CD000FEF7E4FC9DF81F300A2B02D0002009B03B
:104CE000F0BD314DFF2402940427019706AE0096D3
:104CF00001232822A0212846FEF7D0FC0698FBF7C6
:104D0000D1FB27A3D3E90023FBF760FDFBF704FFEA
:104D1000264B186002940197009601232C22A021B3
:104D20002846FEF7BBFC0698FBF7BCFB1CA3D3E9A7
:104D30000023FBF74BFDFBF7EFFE1D4B18600294C1
:104D4000022701970DF11606009601233022A021BB
:104D50002846FEF7A3FC174BBDF816201A800294D4
:104D60000197009601233222A0212846FEF796FCE7
:104D7000114BBDF816201A800294012401940DF104
:104D80001F03009323463422A0212846FEF786FC09
:104D90009DF81F20094B1A702046A0E7AFF3008052
:104DA0000000000084D79741300A0020EC0A002060
:104DB000F40A0020F00A0020F80A0020E90A002086
:104DC000F0B587B02A492B4B1868FCF703F8FCF7BD
:104DD00051F90590284CFF2502950427019705AE4F
:104DE000009601232822A0212046FEF7A5FB20499A
:104DF000224B1868FBF7EEFFFCF73CF90590029593
:104E00000197009601232C22A0212046FEF794FB57
:104E10000295022601961A4B009301233022A0210D
:104E20002046FEF789FB02950196164B009301235D
:104E30003222A0212046FEF77FFB02950126019633
:104E4000114B009333463422A0212046FEF774FB19
:104E50000A238DF81330029501960DF11303009388
:104E600033463522A0212046FEF766FB07B0F0BD91
:104E700020BCBE4CEC0A0020300A0020F40A0020BE
:104E8000F00A0020F80A0020E90A00202DE9F0418C
:104E900004460D461A4B1A8000F10D020C380B46E1
:104EA00092B280B2FFF7A0FB05F10D03A5F10C0152
:104EB0009BB2224689B22046FFF796FB04F1010817
:104EC0001FFA88F86F1CBFB239464046FFF77EFBD9
:104ED000661EB6B239463046FFF778FB6F1EBFB28A
:104EE00039464046FFF772FB39463046FFF76EFB06
:104EF000062229462046FFF7C6FBBDE8F08100BF29
:104F0000D20A0020000000002DE9F04F89B0AE4C1D
:104F10001F2323804FF6FF75AC4B1D802846FFF7FB
:104F20003BFB4FF4784626802846FFF735FB0025EB
:104F30002580324614210846FFF7A8FFA44B1D70B8
:104F4000A44B00221A602C4618E04FF6FF72142181
:104F50000846FFF79BFFA04B188814384FF478429F
:104F6000142180B2FFF792FF00240A20FDF756FEBD
:104F70000134A4B2B4F57A7F00F220820120FFF759
:104F800059FE934B1B7803F0C002402AEDD123F069
:104F900040038F4A1370914A118808AB03EB8503D5
:104FA00023F8101C528823F80E2C0135EDB26B1E2D
:104FB000032B00F2018201A252F823F04B4F0008AC
:104FC000CD4F0008F34F00081D500008824C208888
:104FD00014384FF6FF72142180B2FFF757FF618833
:104FE00014394FF4784289B21420FFF74FFF0024A0
:104FF000BBE7794C618814394FF6FF7289B21420EF
:10500000FFF744FF20886188143914384FF4784240
:1050100089B280B2FFF73AFF0024A6E7BDF810B0CE
:10502000BDF814A0ABEB0A000028B8BF4042BDF8A1
:105030001290BDF816300293A9EB0303002BB8BF02
:105040005B4203FB03F300FB0030FBF71BFA00F0AD
:105050000FFAFBF741FD84B2BDF81870BDF81C30A3
:105060000393F81A0028B8BF4042BDF81A80BDF873
:105070001E60A8EB0603002BB8BF5B4203FB03F3E3
:1050800000FB0030FBF7FEF900F0F2F9FBF724FD1E
:1050900085B22046FBF746FE00902846FBF746FE09
:1050A00001460098FBF74AFFFBF70EFA02460B4653
:1050B000CDE9002340A3D3E90023FBF7CFFC48B997
:1050C0003FA3D3E90023DDE90001FBF7E5FC08B9C4
:1050D00004B19DB9404B18885988143914384FF6DB
:1050E000FF7289B280B2FFF7D1FE4FF478421421EB
:1050F0000846FFF7CBFE002425463FE7ABEB070051
:105100000028B8BF4042A9EB0803002BB8BF5B42A0
:1051100003FB03F300FB0030FBF7B4F900F0A8F940
:10512000FBF7DAFC85B2039BAAEB03000028B8BFAB
:105130004042029B9B1B002BB8BF5B4203FB03F367
:1051400000FB0030FBF79EF900F092F9FBF7C4FC7E
:1051500084B22846FBF7E6FD05462046FBF7E6FD50
:1051600001462846FBF7EAFEFBF7AEF904460D467A
:1051700011A3D3E90023FBF771FC38B910A3D3E9DD
:10518000002320462946FBF787FC48B3124B1888BA
:105190005988143914384FF6FF7289B280B2FFF77C
:1051A00075FE4FF4784214210846FFF76FFE002485
:1051B0002546E3E6AFF30080666666666666EE3F08
:1051C000CDCCCCCCCCCCF03FD20A00200C000020BF
:1051D000E80A0020EC0A0020D40A0020E40A00209B
:1051E000AAEB07000028B8BF4042029BA3EB0803CC
:1051F000002BB8BF5B4203FB03F300FB0030FBF75F
:1052000041F900F035F9FBF767FC84B2039BABEB87
:1052100003000028B8BF4042A9EB0603002BB8BF2B
:105220005B4203FB03F300FB0030FBF72BF900F0BC
:105230001FF9FBF751FC85B22046FBF773FD0446CE
:105240002846FBF773FD01462046FBF777FEFBF788
:105250003BF904460D465CA3D3E90023FBF7FEFBB4
:10526000002840F083805AA3D3E900232046294632
:10527000FBF712FC002879D1574F3E88A6F1280091
:10528000FBF754FD0446AAEB0B00FBF74FFD01466C
:105290002046FBF753FE0446504B18600BEB0A0008
:1052A000FBF744FD2146FBF795FD05463046FBF72D
:1052B0003DFD2946FBF784FC4FF07C51FBF78AFD4E
:1052C000FBF7D8FE464B18807F88A7F12800FBF734
:1052D0002DFD0546A8EB0900FBF728FD01462846F1
:1052E000FBF72CFE05463F4B186009EB0800FBF767
:1052F0001DFD2946FBF76EFD80463846FBF716FD7F
:105300004146FBF75DFC4FF07C51FBF763FDFBF77B
:10531000B1FE354B18802046FBF7ACFE80EAE07307
:10532000A3EBE073022B08DC2846FBF7A3FE80EA20
:10533000E073A3EBE073022B2CDDA7F11401A6F1BF
:1053400014004FF6FF7289B280B2FFF79FFD4FF451
:10535000784214210846FFF799FD244A1378B3FADE
:1053600083F35B0913700024254607E61A4B18885F
:105370005988143914384FF6FF7289B280B2FFF79A
:1053800085FD4FF4784214210846FFF77FFD002485
:105390002546F3E5164B1F221A804FF6FF70FFF7E4
:1053A000FBF84FF47A70FDF739FCFFF709FD4FF673
:1053B000FF70FFF7F1F803E00024D6E5FFF77CFC6F
:1053C00009B0BDE8F08F00BF666666666666EE3FB0
:1053D000CDCCCCCCCCCCF03FD40A0020EC0A0020C1
:1053E000F00A0020F40A0020F80A0020E90A002050
:1053F000D20A002008B5FFF7D3FBFFF75DFC08B128
:10540000002008BD4FF6FF70FFF7C6F8FFF77CFDE0
:10541000FFF7D6FCFFF750FC0120F2E7DFF834D0AD
:105420000D480E490E4A002302E0D458C4500433FC
:10543000C4188C42F9D30B4A0B4C002301E01360D3
:105440000432A242FBD3FDF741FB00F045F9FDF722
:10545000A5FA70470000022000000020C0090020CB
:1054600038A40008C0090020580B0020FEE7000007
:105470002DE9F04F8BB004460D4600F059F82A4B49
:1054800093F900B0BBF1FF3F06460F4612D022460B
:105490002B4620462946FBF709FB824650B94FF0C0
:1054A00000084FF0000942464B4620462946FBF7CC
:1054B000D5FA20B9304639460BB0BDE8F08F1B4B0A
:1054C000CDF820A00122CDE90445CDE902450092A6
:1054D0000193BBF1000F17D042464B464046494668
:1054E000FBF774F9BBF1020FCDE906010ED100F014
:1054F000EDF821230360089B83B9DDE90667304698
:1055000039460BB0BDE8F08FCDE90689684600F05A
:10551000D3F80028EBD0089B002BEED000F0D6F893
:10552000089B0360E9E700BF0E000020A4A000086C
:105530002DE9F0415F4F37EA01020E46054600F0C3
:10554000978000290B4604464EDD09155AD0C3F357
:105550001303CA0743F48013A1F2FF3E03D45B0098
:1055600003EBD4736400E20F4FF0000C02EB430333
:105570004FEA6E0E6400664616254FF40012B1180D
:10558000994202DC5B1A8E1894445B00013D03EBE8
:10559000D4734FEA52024FEA4404F0D12F46202040
:1055A0004FF0004209E03DD0E10F01384FEA5202CE
:1055B00001EB43034FEA44043DD0B34202EB050143
:1055C000F1DD002901EB020509DBB0469B1BA1427E
:1055D00088BF03F1FF33641A17444646E4E7002D01
:1055E000F3DB06F10108F1E721F00042024357D056
:1055F00000294BD1E20A153964051346002AF9D077
:10560000D70252D400205B00DE02054600F1010003
:10561000F9D51A4623468440C0F12000C340134305
:10562000491B94E7A142BFD8002901EB0205D6DB54
:1056300098460023CFE7234313D178084FEA6C0341
:1056400003F17F5303F500131CF0010F18BF40F066
:10565000004003EB0E5502462B4610461946BDE8A6
:10566000F0817B1C16BF781C0CF1010C4008E5E7AB
:1056700002460B46FAF780FF2A463346FAF7C6FD84
:1056800002460B4610461946BDE8F0810246FAF77D
:10569000BBFD02460B46FBF799F802460B46DCE7DA
:1056A000024610461946BDE8F081234620204FF0FF
:1056B000FF35B3E70000F07F0020704708B50620F3
:1056C00000F0D0FB0120FDF7DDF900BF014B1868A9
:1056D000704700BF1000002070B50D4E0D4D761BB9
:1056E000B61006D0002455F8043B01349847A64272
:1056F000F9D1094E094D761B04F0B2FCB61006D064
:10570000002455F8043B01349847A642F9D170BDF6
:105710002CA400082CA4000834A400082CA4000821
:10572000F0B4860746D0541E002A3CD0CAB20346C5
:1057300001E0013C37D303F8012B9D07F9D1032C7D
:105740002AD9CDB245EA05250F2C45EA054534D9BD
:10575000A4F1100222F00F0C03F120071609674490
:1057600003F1100242E9045542E902551032BA42EF
:10577000F8D1721C14F00C0F03EB021204F00F06A8
:1057800013D0331F23F003030433134442F8045BA4
:105790009342FBD106F003042CB1CAB21C4403F8B7
:1057A000012B9C42FBD1F0BC704734461346002CC1
:1057B000F3D1F8E714460346C1E71A462646E0E768
:1057C0002DE9F04F9BB08346009210464BEA02024F
:1057D0009A469307049140F0C382B0F1040918BFC0
:1057E0004FF00109009BCDF804909A0802925B00EB
:1057F0000022059207935646049B062B40F2D48064
:10580000049B009A4FEA5308072B02FB08B800F0EC
:10581000CF81049A0099531E282A01FB03BA00F293
:105820001B8254465D4641462846B0470028214623
:105830004046C0F20582B047002806DC21462846D3
:10584000B04715EA200838BFA046019B002B40F066
:10585000B781009BDBF80020D8F80010CBF80010CF
:105860005B440893C8F80020089B0993534500F255
:105870002981009A06931C46002355465F46C2F1D3
:105880000009D3469A4639462046B0470028A0462C
:1058900040F3F580A34542D3A8460394019D0EE052
:1058A000DBF80010D8F80030CBF80030C8F8001052
:1058B000C8444FF0010ACB44A345C0F0A08239464A
:1058C0005846B047002815DBF5D1002DE8D0012D52
:1058D00000F0B580009A41465B460BEB020E0A7859
:1058E000187803F8012BAEEB0302002A01F8010B34
:1058F000F5DCDDE7019B4546DDF80C80002B40F030
:10590000AC80009B2268DBF8000020601C44CBF8D0
:105910000020CB44A0464FF0010AA345B3D2534622
:10592000DA46BB46002B00F0CD80069B0099A8EB21
:105930000309A3EB0B024A45049BA8BF4A4601FB9F
:1059400003B4002A40F05081009B621BD31AA5EBE0
:105950000A05AB4228BF2B46002B40F0CD81A9455C
:10596000C846A4EB050004D25B46A84683464D46D4
:105970001846009B9D4240F200810599072900F2DC
:10598000AC81B8FBF3F2B5FBF3F31AAC049304EB70
:10599000C10343F83C2C43F840BC049B4A1C062B33
:1059A000059283463FF62CAF1946009B03FB01B8D6
:1059B0000BEB0305A84534D9019FDDF81C90CDF809
:1059C0000C805C42AB4527D2AA4609E0D8F80030EB
:1059D000DAF80020C8F80020CAF80030DA451BD9F0
:1059E000D046A24441465046B047002814DD002F5F
:1059F000ECD0012F00F0B48053460AEB09001A786E
:105A000098F8001008F8012BA0EB0802002A03F810
:105A1000011BF4DCDA45E3D8009B1D44039BAB4239
:105A2000D0D8059B002B00F08B80059B1AAA013B68
:105A3000059302EBC30353E910B30493DCE6029928
:105A4000C446584601390368DCF8002040F8042BAE
:105A500000294CF8043BF5DC2AE7019B012B21D0FF
:105A6000009B5A461C44137898F8001008F8013B34
:105A7000A4EB0803002B02F8011BF4DC49E70DD16D
:105A8000019B002B40F08280069B009920681A68D9
:105A900018605818226006904FF0010A009B1C44C1
:105AA000A0463AE7029ADC46013AD8F80030DCF822
:105AB000001048F8041B002A4CF8043BF4DC009B5F
:105AC0001C4426E7049B089A1946009B03FB01B47B
:105AD0009442A6D9019FDDF824805D42C34527D2B8
:105AE000C24609E0D9F80030DAF80020C9F80020F1
:105AF000CAF80030DA451BD9D146AA444946504677
:105B0000B047002814DD002FECD0012F1BD0079ADE
