:020000040800F2
:1000000000000220CD2B00087D1800087F18000892
:1000100081180008831800088518000800000000F7
:100020000000000000000000000000008718000829
:1000300089180008000000008B1800088D180008BF
:100040001D2C00081D2C00081D2C00081D2C00086C
:100050001D2C00081D2C00081D2C00081D2C00085C
:100060001D2C00081D2C00081D2C00081D2C00084C
:100070001D2C00081D2C00081D2C00081D2C00083C
:100080001D2C00081D2C00081D2C00081D2C00082C
:100090001D2C00081D2C00081D2C00081D2C00081C
:1000A0001D2C00081D2C00081D2C00081D2C00080C
:1000B0001D2C00081D2C00081D2C00081D2C0008FC
:1000C0001D2C00081D2C00081D2C00081D2C0008EC
:1000D0001D2C00081D2C00081D2C00081D2C0008DC
:1000E0001D2C00081D2C00081D2C00081D2C0008CC
:1000F0001D2C00081D2C00081D2C00081D2C0008BC
:100100001D2C00081D2C00081D2C00081D2C0008AB
:100110001D2C00081D2C00081D2C00081D2C00089B
:100120001D2C00081D2C00081D2C00081D2C00088B
:100130001D2C00081D2C00081D2C00081D2C00087B
:100140001D2C00081D2C00081D2C00081D2C00086B
:100150001D2C00081D2C00081D2C00081D2C00085B
:100160001D2C00081D2C00081D2C00081D2C00084B
:100170001D2C00081D2C00081D2C0008000000008C
:080180001D2C00081D2C0008D5
:1001880010B5054C237833B9044B13B10448AFF3C9
:1001980000800123237010BD3C04002000000000F3
:1001A8009C2E000808B5034B1BB103490348AFF365
:1001B800008008BD00000000400400209C2E0008BC
:1001C80053B94AB9002908BF00281CBF4FF0FF31B6
:1001D8004FF0FF3001F0BEB8ADF1080C6DE904CE68
:1001E80000F006F8DDF804E0DDE9022304B070470A
:1001F8002DE9F047089E0D4604468E46002B40F038
:1002080082808A42174646D9B2FA82F24AB1C2F1CE
:10021800200105FA02F320FA01F1974041EA030EA2
:1002280094404FEA1748230CBEFBF8FCB9B208FB10
:100238001CEE43EA0E430CFB01F098420AD9FB1866
:100248000CF1FF3580F01681984240F21381ACF131
:10025800020C3B441B1AA4B2B3FBF8F008FB1033A2
:1002680044EA034400FB01F1A14209D93C1900F119
:10027800FF3380F00181A14240F2FE8002383C4405
:10028800641A40EA0C4000211EB1D4400023C6E99C
:100298000043BDE8F08702B9FFDEB2FA82F2002A15
:1002A8004FD1CB1B4FEA174E1FFA87F80121B3FB3A
:1002B800FEFC250C0EFB1C3345EA034508FB0CF33A
:1002C800AB4207D97D190CF1FF3002D2AB4200F2E4
:1002D800E7808446ED1AA3B2B5FBFEF00EFB10557D
:1002E80043EA054408FB00F8A04507D93C1900F18A
:1002F800FF3302D2A04500F2D7801846A4EB0804C9
:1003080040EA0C40C0E78B4208D9002E00F0AF80CD
:100318000021C6E900050846BDE8F087B3FA83F175
:1003280000294BD1AB4202D3824200F2B780841A33
:1003380065EB030301209E46002EAAD0C6E9004EB5
:10034800A7E7C2F1200C01FA02F3974020FA0CF05B
:100358004FEA174E21FA0CFC1843BCFBFEF1050CC2
:100368000EFB11CC1FFA87F845EA0C4501FB08F390
:10037800AB4204FA02F409D97D1901F1FF3C80F07F
:100388008B80AB4240F2888002393D44EB1A85B23B
:10039800B3FBFEF00EFB103345EA034500FB08F300
:1003A800AB4207D97D1900F1FF3C71D2AB426FD93E
:1003B80002383D44EB1A40EA014178E7C1F1200CCC
:1003C8008B4022FA0CF71F4320FA0CF405FA01F3CC
:1003D8004FEA174E25FA0CF51C43230CB5FBFEF922
:1003E8001FFA87F80EFB195543EA054509FB08FA79
:1003F800AA4502FA01F200FA01F308D97D1909F1B8
:10040800FF3047D2AA4545D9A9F102093D44A5EBD9
:100418000A05A4B2B5FBFEF00EFB105544EA0544EC
:1004280000FB08F8A04507D93C1900F1FF352DD28B
:10043800A0452BD902383C4440EA0940A4EB080403
:10044800A0FB02894C45C6464D4619D316D05EB16D
:10045800B3EB0E0264EB050404FA0CFCCA404CEA48
:100468000202CC40C6E900240021BDE8F0873146ED
:1004780030460EE7AC46EDE6184601E74345E6D2BE
:10048800B8EB020E69EB07050138E0E72846D3E729
:1004980060468FE78146BAE7614677E708464BE74B
:1004A800ACF1020C3D4415E702383C4426E700BF96
:1004B80003685A004CBF43F0004323F0004318443C
:1004C800704700BF2DE9F84329B34F1E044615466F
:1004D8003E464FF0000808EB060101EBD1714910C8
:1004E80004EBC1094846FFF7E3FF0346C80008309C
:1004F8008F42204409D0AB4209D8FFF7D9FF013811
:10050800A8420AD201F10108E5E7AB4205D98845BE
:1005180001D04E1EDFE74FF000094846BDE8F883DA
:10052800012807D0022807D0044B00280CBF184622
:10053800002070470248704702487047ED0B0008DA
:10054800F10B0008F50B000830B5234B83B00446C7
:100558008D1E3BB301A92846AFF30080E8B101998D
:100568002A46FFF7AFFF0146B8B1FFF7A1FF4B6876
:10057800A064012B2BD0002B01F1040023DBFFF733
:1005880097FF0023C4E913030368002B10DBFFF770
:100598008FFF2061002003B030BD002309202361B4
:1005A80003B030BD0D490E48091AC9100191D7E7AB
:1005B800C3F30360FFF7B4FF0028206114BF0020D5
:1005C800092003B030BD0123C4E91303DCE700238D
:1005D80023610520DFE700BF0000000044A00008F9
:1005E800749F00080368DA0710B5044606D49B0711
:1005F80000F1480009D500F04BFC2368590709D5DC
:100608001A070ED5DB0613D510BD00F039FC236898
:100618005907F5D404F1D00000F042FC23681A070A
:10062800F0D404F5A87000F043FC2368DB06EBD493
:1006380004F5E870BDE8104000F07EBC0346006891
:1006480000B11844704700BF09207047704700BFC9
:1006580070B504460E46316C2046FFF775FF054617
:1006680088B9336C63613246236921460120984773
:100678000828F0D0072806D12846316CFFF7E6FF96
:10068800301D00F0F1FB02F0C7FA00BF2DE9F0477A
:100698000D1D064614460FCDADF5727D0DF10C0CFF
:1006A800ACE80F000FCDACE80F000FCDACE80F00A1
:1006B80095E80F0002ADF768D6F818808CE80F00AF
:1006C80000232B6021E02B6C73614FF4F0722946F4
:1006D8007AA800F041FE33697AAA31465046984715
:1006E800889BCDE9005821466B64814633463246E3
:1006F8000120B8470446E8B94FF4F0727AA92846B1
:1007080000F02AFEB9F1080F1BD1296C3046FFF71B
:100718001BFF09345FFA84FA81460028D3D0AB6BFB
:100728004AF01001CDE9005832466B640120334687
:10073800B84708B14FF0090948460DF5727DBDE884
:10074800F087B9F1070FF5D12046296CFFF77EFF36
:1007580003A800F089FB00BF406C7047F0B5CB6B75
:100768000B640E1D0F4605460FCEF9B001AC0FC441
:100778000FCE0FC40FCE0FC496E80F004FF0FF3610
:1007880084E80F00009606E02B696A4629469847D8
:100798000828044608D110992846FFF7D5FE0028F6
:1007A800F2D0092079B0F0BD6846FFF71BFF062C90
:1007B800F7D139462846FFF74BFF00BF30B4DD6B51
:1007C800C160826119461D64002230BC5EE700BF2B
:1007D80070B5C66843690B64AEB903690A46044636
:1007E8000D46014602209847072805D008280FD152
:1007F80029462046FFF72CFF3046296CFFF726FFD5
:10080800281D00F031FB0122FFF740FF02F004FA37
:1008180002F002FAC2681AB1CA6B0A64002235E70C
:100828009CE700BF704700BF836801460BB10120F9
:1008380018477047012912D009D873B90F2A0CD864
:1008480000EB820218465368009A13607047033918
:10085800012994BF012002207047022070470846F2
:10086800704700BF10B584B0002303AC0A4600945B
:100878001946FFF7DFFF039804B010BD012912D015
:1008880009D873B90F2A0CD800EB8200009A1268B5
:100898004260184670470339012994BF012002209D
:1008A8007047022070470846704700BF10B584B0F3
:1008B800002303AC039200940A461946FFF7DEFFB3
:1008C80004B010BDF0B5D36B1364151D8C460646F5
:1008D8000FCDADF50F7D17AC0FC40FCD0FC40FCDE5
:1008E8000FC495E80F004FF0FF3784E80F00654606
:1008F800169710E0FFF7DAFF294616A8B047034617
:1009080016AA6946082083B9049B98470528044617
:100918000CD0092809D026996846FFF715FE03462A
:100928006A460C2116A8002BE4D0092416A8FFF764
:1009380059FE20460DF50F7DF0BD00BF2DE9F04FA3
:10094800CC6C89B00D4654F8041B0694174600F089
:1009580003081E46002B79D00B0CDAB209048DF877
:100968001D30022304EB820405918DF81C302B6D99
:10097800B8F1020F08BFAC6B13F001030CD0384676
:1009880005A900F073FB18B9082009B0BDE8F08F7D
:10099800092009B0BDE8F08FD4F800A0BAF1000F23
:1009A800EDD0019300F008030293022E4AD0B4F868
:1009B80000A0B4F802900434AA6C29F0010B0F21AE
:1009C80038469344FFF74EFF834539D82AF0010291
:1009D8005A44824294BF002001204FEA490303F0A1
:1009E80002030AF0010A43EA0A03012B49D0022B49
:1009F80032D0002BCCD1B8F1000F02D0002840F043
:100A0800CD800434D4F800A0BAF1000FCDD105A9E7
:100A1800384600F02BFB0028BAD1019B002BB3D03D
:100A28000F213846FFF71EFF0E2102463846FFF712
:100A38003DFF38466A4A0F21FFF738FF0720A8E72D
:100A48000020CAE7D4F804900834B5E70902032364
:100A58000591ADF81C308AE7236823F0004BB8F104
:100A6800000F45D128B1029A002A5CD0BBF1000FD3
:100A780074D0002B00DA04340BF1010B04EB8B0467
:100A8800C0E7B8F1000F19D1B0B1D4E90023991C1F
:100A98004FEAD2723FF47CAF05F15801013304915B
:100AA80000F09080201DFFF7C9FD04AB01462846E1
:100AB800AFF3008000285BD10834A3E70D21384646
:100AC800D5F82090FFF7CEFE8145F5D1AB6A9C4260
:100AD800F2D12046FFF7ECFC0F2102463846FFF71B
:100AE800E5FE38462A460021FFF7E0FE072050E7DA
:100AF8000D213846D5F82090FFF7B4FE814501D086
:100B08002368B6E7AB6A9C42FAD104220021C5E902
:100B18000B12A318C5F828B06B6323688B4259DB06
:100B280001230193A8E705F15803CDF80C8004F1DF
:100B3800040AB04691461E460DE00496FFF77EFD76
:100B480004AB014600222846AFF3008009F10109F1
:100B58000AF1040AE8B9D9455046EED138460D21C4
:100B6800FFF780FE049B2862C5E90934062010E7D8
:100B780081460D213846FFF775FEB9F1020F28624C
:100B880025D12B46049A43F82C2F6B62AC620620C1
:100B9800FFE646462368DDF80C806AE72046FFF743
:100BA80087FC04340246AC6328461446AFF3008041
:100BB80000283FF4EDAE384622460F21FFF776FEB7
:100BC8000720E6E638460D21FFF74CFE2862049B15
:100BD8006B62DBE70BF1010004EB80007AE700BFF2
:100BE800000000000023A9E60123A7E60223A5E6EA
:100BF8002DE9F0430646C3B015461C46042900F209
:100C0800B980DFE801F09A53B7290300002C40F0BF
:100C1800B180102A00F2AE800368D80600F1F38094
:100C280020AF384600F092F9B06B0023012404FA93
:100C380003F22A42014604D051F8042B47F8232036
:100C480008460133042BF2D1B063384600F074F93A
:100C5800002043B0BDE8F083032C40F08B8094B2B1
:100C680004EB1243102B4FEA124500F2838003680D
:100C78001F0700F1D08020AF384600F03BF907EBA2
:100C8800C501B56B54B10B46E81A01EBC401E40089
:100C98001A5843F8042B8B42FAD125443846B563D9
:100CA80000F006F9002043B0BDE8F083012C4FEABC
:100CB800124895B25AD0052C5CD108EB0509B9F158
:100CC800200F57D8B8F10F0F77D9A946002D40F05B
:100CD8008880B36B6DB320AF4FF0000907EBC807EE
:100CE800043F03EBC50553F8041B47F8041FAB4248
:100CF800F9D1B9F1000F0FD06F464146102938BF1E
:100D0800102107EBC101843903EBC90553F8040B23
:100D180041F8040FAB42F9D1012C00F08480B8F1FE
:100D28000F0FB56345D9B9F1000F02D0684600F03E
:100D3800B7F8002043B0BDE8F083DCB9876B2346E1
:100D4800012094B206F1040C00FA03F2224239465B
:100D580004D051F8042B4CF823200F460133102BF4
:100D6800F2D115F40050E4D1B76304E008EB0503B1
:100D7800102B03D9022043B0BDE8F083B8F10F0F60
:100D8800F8D83368DA0706D5304623F0030340F86D
:100D9800483B00F079F820AF384600F075F8B36B9F
:100DA800002D99D11D460435B563384600F068F822
:100DB800BFE720A800F06CF8B5E7B9F1100F40D9EB
:100DC800A9F110093368D90708D523F00103304683
:100DD80043F0020340F8483B00F05EF8B9F1000F19
:100DE80032D033685A0720D4B8F10F0F25D96F468F
:100DF8003846C8F1100500F057F8002DB36B7FF79F
:100E08007CAF20AF6AE723F01003336006F5E87083
:100E180000F09CF804E723F00803036000F5A870CD
:100E280000F068F827E720AFBDE7304623F0040359
:100E380040F8D03B00F038F8D6E720A800F02CF8AE
:100E4800D5E74FF00009BDE7B8F10F0F3FF641AF06
:100E580020AF384600F020F8B36B002D7FF43CAF8C
:100E6800384600F015F864E700F1340191E83800DD
:100E78009C46A6464CF8045D90E8FF0FE54600BD89
:100E880090EC210B704700BF80EC210B704700BF2E
:100E980090EC200B704700BF80EC200B704700BF20
:100EA800D0EC200B704700BFC0EC200B704700BF90
:100EB800F0EC0201F0EC0211F0EC0221F0EC02314E
:100EC800F0EC0241F0EC0251F0EC0261F0EC02713E
:100ED800F0EC0281F0EC0291F0EC02A1F0EC02B12E
:100EE800F0EC02C1F0EC02D1F0EC02E1F0EC02F11E
:100EF800704700BFE0EC0201E0EC0211E0EC0221D7
:100F0800E0EC0231E0EC0241E0EC0251E0EC02617D
:100F1800E0EC0271E0EC0281E0EC0291E0EC02A16D
:100F2800E0EC02B1E0EC02C1E0EC02D1E0EC02E15D
:100F3800E0EC02F1704700BFB0FC0181B0FC019108
:100F4800B0FC01A1B0FC01B1704700BFA0FC018159
:100F5800A0FC0191A0FC01A1A0FC01B1704700BF59
:100F6800EC4600B52DE900502DE9FF1F4FF00003B6
:100F78002DE90C0001A9FFF7F1FBDDF840E012B004
:100F8800704700BFEC4600B52DE900502DE9FF1F62
:100F98004FF000032DE90C0001A9FFF719FCDDF85B
:100FA80040E012B0704700BFEC4600B52DE9005094
:100FB8002DE9FF1F4FF000032DE90C0001A9FFF7F1
:100FC80029FCDDF840E012B0704700BFEC4600B5E0
:100FD8002DE900502DE9FF1F4FF000032DE90C000B
:100FE80001ABFFF7EBFBDDF840E012B0704700BF44
:100FF800EC4600B52DE900502DE9FF1F4FF0000326
:101008002DE90C0001AAFFF75DFCDDF840E012B005
:10101800704700BF027A7AB9437AA3B14268013BAC
:1010280010B4437213680321141D01721A0244603C
:10103800026010BC180E70470368013A02721A0267
:101048000260180E7047B020704700BF00B585B029
:1010580003AA0023009219460C22FFF7EBFB039822
:1010680005B05DF804FB00BFF0E700BF2DE9F043D1
:10107800054685B00E464FF000083046FFF7CAFF18
:10108800B028044600F0B280070620D500F0F0032F
:10109800802B4DD0902B36D0A02B60D0B02B74D0A5
:1010A800C02B00F08B8000F0F803D02B0BD100F0A0
:1010B8000702013242F40022052301212846FFF7E6
:1010C80097FD0028D9D0092005B0BDE8F0830DF1BF
:1010D8000C09002319468700CDF800900D222846F8
:1010E800FFF7A8FBFFB2039BCDF80090043760061A
:1010F8004CBFDF1BFF18002319460D222846039713
:10110800FFF7BCFBB9E700F00D030D2BDBD003AFF5
:10111800002300F00F02194600972846FFF78AFBC4
:101128000023009719460D222846FFF7A7FBA4E7DE
:101138003046FFF76FFF24022043B0F5004FC2D0BE
:1011480004010023A2B219462846FFF751FD0028E2
:10115800B9D114F4004F18BF4FF001088DE7C2430E
:1011680002F007034FF47F621A41010702F47F621D
:101178004FF0000348BF42F4804219462846FFF763
:1011880037FD00283FF479AF9DE7B12833D0B22866
:1011980000F08B80B32839D000F0FC03B42B92D038
:1011A80000F007020132012342F4002219462846C2
:1011B800FFF71EFD00283FF460AF84E7C62842D041
:1011C800C7284CD000F0F803C02B5BD0C82860D0EB
:1011D800C9287FF478AF3046FFF71CFF020300F000
:1011E8000F0002F470220130024365E7B8F1000FE6
:1011F80018D0002068E73046FFF70CFF02460028A9
:101208003FF461AF10F0F003D0D05CE73046FFF751
:1012180001FF010300F00F0001F47021421C0123BB
:101228000A43C3E703AC43460E22414600942846CE
:10123800FFF700FB0094284643460F224146FFF77C
:101248001DFB404640E73046FFF7E4FE010300F08F
:101258000F0001F47021421C03230A43A6E730461D
:10126800FFF7D8FE024600283FF42DAF10F0F00338
:101278007FF429AF04212846FFF7BAFC00283FF481
:10128800FCAE20E700F00F020132032342F42022D3
:101298008CE73046FFF7BEFE00F0F00200F00F03C7
:1012A8001032013343EA023206E700230DF10C093C
:1012B8000D221946CDF800902846FFF7BBFA3046B4
:1012C800FFF7A8FE02064FF002070CD5039B00F0BB
:1012D8007F00B840034430460393FFF79BFE0306A4
:1012E80007F10707F2D4039BCDF8009000F07F04C4
:1012F80003F50172BC400023144419460D22284608
:101308000394FFF7BBFAB8E610B5C26C84B0536813
:1013180003248DF80C401B0202F108040846D27918
:10132800019301A902948DF80D20FFF79FFE04B0E8
:1013380010BD00BF08B5FFF797FE806C08BD00BF61
:1013480008B5FFF791FEC06CC379023300EB830048
:1013580008BD00BF704700BF844641EA000313F090
:1013680003036DD1403A41D351F8043B40F8043BA4
:1013780051F8043B40F8043B51F8043B40F8043B67
:1013880051F8043B40F8043B51F8043B40F8043B57
:1013980051F8043B40F8043B51F8043B40F8043B47
:1013A80051F8043B40F8043B51F8043B40F8043B37
:1013B80051F8043B40F8043B51F8043B40F8043B27
:1013C80051F8043B40F8043B51F8043B40F8043B17
:1013D80051F8043B40F8043B51F8043B40F8043B07
:1013E80051F8043B40F8043B403ABDD2303211D3A7
:1013F80051F8043B40F8043B51F8043B40F8043BE7
:1014080051F8043B40F8043B51F8043B40F8043BD6
:10141800103AEDD20C3205D351F8043B40F8043BA6
:10142800043AF9D2043208D0D2071CBF11F8013BA4
:1014380000F8013B01D30B8803806046704700BF6A
:10144800082A13D38B078DD010F003038AD0C3F179
:101458000403D21ADB071CBF11F8013B00F8013B5B
:1014680080D331F8023B20F8023B7BE7043AD9D31A
:10147800013A11F8013B00F8013BF9D20B780370EF
:101488004B7843708B78837060467047234B1B689A
:1014980003B170472DE9F04186B0204B01221A6054
:1014A800002400941E4B9A6B42F001029A639B6BD6
:1014B80003F001030093009B4FF48058CDF804809B
:1014C800022702970394032604960C25059501A983
:1014D800144800F003FB4FF68073019302970394BE
:1014E8000496059501A9104800F0F8FA4CF23373F8
:1014F8000193029703940496059501A90B4800F0FF
:10150800EDFACDF80480029703940496059501A995
:10151800074800F0E3FA06B0BDE8F081580400205F
:10152800003802400014024000100240000C024043
:101538000018024030B58FB01B484FF020430360BD
:1015480003F582734360062383600023C36003614D
:10155800102242618361C361036243624FF4805188
:101568008162C3624FF480410163436383634364D0
:101578000F21079108913C2409940A930B92112496
:101588000C940D9303250095019102950393049201
:10159800059406936A4607A900F0C8FE08B90FB07B
:1015A80030BD00F0ADF8FAE75C04002030B58FB02C
:1015B8001C484FF02043036003F582734360062301
:1015C80083600023C3600361102242618361C361A9
:1015D800036243624FF480518162C3624FF48041D9
:1015E80001634363836343640F21079108913C249B
:1015F80009940A930B9211240C940D9309250095D4
:1016080001910821029103930492059406936A4676
:1016180007A900F08BFE08B90FB030BD00F070F8D4
:10162800FAE700BF5C04002008B5FFF72FFF08BDEC
:1016380030B58DB000240794089409940A940B944B
:1016480000942D4B1A6B42F080021A631A6B02F059
:1016580080020092009A01941A6B42F020021A63E9
:101668001A6B02F020020192019A02941A6B42F05E
:1016780010021A631A6B02F010020292029A039483
:101688001A6B42F002021A631A6B02F0020203920A
:10169800039A04941A6B42F008021A631A6B02F058
:1016A80008020492049A05941A6B42F001021A6324
:1016B8001A6B02F001020592059A06941A6B42F021
:1016C80040021A631B6B03F040030693069B0B4D05
:1016D80022464FF40041284600F0EAFA4FF400434E
:1016E80007930123089309940A9407A9284600F050
:1016F800F5F90DB030BD00BF0038024000040240CB
:1017080072B6FEE700B595B03022002108A801F0B6
:10171800B5FA002303930493059306930793019363
:10172800204A116C41F080511164126C02F0805211
:101738000192019A02931C4B1A6842F480421A6083
:101748001B6803F480430293029B012308934FF420
:101758008033099302220E924FF480030F930423DF
:101768001093A82111911292139308A800F0A6FAD9
:1017780098B90F23039302230493002305934FF48E
:10178800A05306934FF480530793052103A800F054
:10179800F7FC20B915B05DF804FBFFF7B1FFFFF7C0
:1017A800AFFF00BF003802400070004008B500F0ED
:1017B800F9F8FFF7A7FFFFF73BFFFFF7F7FE00F089
:1017C80077F801F0AFF800F035F8FEE700B583B020
:1017D8004FF6FF7001F038F84FF4FA7000F00EF988
:1017E800002001F031F84FF4FA7000F007F91F20DB
:1017F80001F02AF84FF4FA7000F000F94FF6E073A0
:101808000093C8231A466421084601F037F84FF4BC
:101818007A7000F0F3F8064B009381231A460A21E8
:10182800084601F053F84FF47A7000F0E7F8CFE774
:10183800B42E000808B5FFF7C9FF000082B00021E8
:1018480000910B4B5A6C42F480425A645A6C02F471
:1018580080420092009A01911A6C42F080521A64F8
:101868001B6C03F080530193019B02B0704700BFCB
:1018780000380240FEE7FEE7FEE7FEE7FEE77047B6
:101888007047704708B500F0A7F808BD01207047F9
:1018980008B501F0C9F9162303604FF0FF3008BD01
:1018A80008B54FF0FF31FFF7F3FFFEE77047000080
:1018B80008B50A480A4B03604FF4E133436000233C
:1018C8008360C36003610C2242618361C36100F0DD
:1018D800E5FD00B908BDFFF713FFFBE7AC040020E6
:1018E8000010014000B589B00023039304930593C9
:1018F80006930793026803F1804303F588339A42FD
:1019080002D009B05DF804FB0022019203F594337C
:10191800596C41F010015964596C01F010010191A2
:1019280001990292196B41F0010119631B6B03F0D5
:1019380001030293029B4FF4C063039302230493B1
:101948000592032306930723079303A9014800F090
:10195800C5F8D6E70000024010B504460E4B1878CB
:101968004FF47A73B3FBF0F30C4A1068B0FBF3F052
:1019780000F09EF868B90F2C01D901200AE0002276
:1019880021464FF0FF3000F05FF8054B1C60002047
:1019980000E0012010BD00BF04000020000000206E
:1019A8000800002008B50B4B1A6842F400721A6050
:1019B8001A6842F480621A601A6842F480721A60E7
:1019C800032000F02FF80020FFF7C6FFFFF736FFCF
:1019D800002008BD003C0240034A1168034B1B78F5
:1019E8000B441360704700BFF0040020040000207F
:1019F800014B1868704700BFF004002038B5044652
:101A0800FFF7F6FF0546B4F1FF3F02D0044B1B7801
:101A18001C44FFF7EDFF401BA042FAD338BD00BFBE
:101A280004000020074AD36823F4E0631B041B0C5E
:101A3800000200F4E060034343F0BF6343F4003363
:101A4800D360704700ED00E030B4174BDB68C3F398
:101A58000223C3F10704042C28BF04241D1D062DEE
:101A680018D9033B4FF0FF3505FA04F421EA0401C5
:101A7800994005FA03F322EA0303194300280BDB14
:101A88000901C9B200F1604000F5614080F8001317
:101A980030BC70470023E5E700F00F000901C9B228
:101AA800024B1954F4E700BF00ED00E014ED00E02C
:101AB8000138B0F1807F0AD2064B5860064AF021FF
:101AC80082F823100020986007221A6070470120CE
:101AD800704700BF10E000E000ED00E000230F2B8E
:101AE80000F2DD80F0B482B05DE086685F00032418
:101AF800BC4026EA0406CC68BC403443846046688F
:101B080026EA02064C68C4F300129A403243426047
:101B180057E0DC08083450F8247003F007029600F8
:101B28000F22B24027EA02070A69B2403A4340F856
:101B380024205AE0072200E00022B2403A4302344F
:101B4800574E46F82420574A1468EA4324EA050603
:101B58004F6817F4803F01D045EA0406514C2660CF
:101B6800646802EA04064F6817F4003F01D045EAAA
:101B780004064C4C6660A46802EA04064F6817F431
:101B8800801F01D045EA0406464CA660E46822405E
:101B98004E6816F4001F01D045EA0402414CE26089
:101BA80001330F2B78D801229A400C6804EA020509
:101BB80032EA0404F4D14C6804F00304013C012C1B
:101BC80093D94A6802F00302032A09D0C4685E0068
:101BD8000322B24024EA02048A68B2402243C26067
:101BE8004A6802F00302022A93D004685E000322C6
:101BF800B24024EA02044A6802F00302B2402243D7
:101C080002604A6812F0805FCAD000220192264A18
:101C1800546C44F480445464526C02F4804201923F
:101C2800019A9C08A61C1E4A52F8267003F003026B
:101C380096000F22B24027EA02071C4A90423FF45E
:101C48007BAF02F5806290421AD002F58062904222
:101C580018D002F58062904216D002F58062904258
:101C680014D002F58062904212D002F58062904250
:101C780010D002F5806290423FF45CAF08225CE726
:101C880001225AE7022258E7032256E7042254E7C2
:101C9800052252E7062250E702B0F0BC70477047B1
:101CA80000380140003C014000380240000002407A
:101CB8000AB181617047090481617047002800F00A
:101CC800DF8170B582B00446036813F0010F3BD082
:101CD800A64B9B6803F00C03042B2CD0A34B9B68EA
:101CE80003F00C03082B21D06368B3F5803F4FD075
:101CF800B3F5A02F52D09D4B1A6822F480321A6097
:101D08001A6822F480221A606368002B50D0FFF70B
:101D18006FFE0546954B1B6813F4003F14D1FFF77F
:101D280067FE401B6428F5D90320B0E18F4B5B6840
:101D380013F4800FD8D08D4B1B6813F4003F03D0E9
:101D48006368002B00F09E81236813F0020F54D0C3
:101D5800864B9B6813F00C0F3ED0844B9B6803F0B6
:101D68000C03082B33D0E368002B67D0804B01228B
:101D78001A60FFF73DFE05467C4B1B6813F0020F07
:101D880053D1FFF735FE401B0228F5D903207EE129
:101D9800764A136843F480331360B5E7734B1A68C7
:101DA80042F480221A601A6842F480321A60ABE763
:101DB800FFF71EFE05466D4B1B6813F4003FC3D0AA
:101DC800FFF716FE401B6428F5D903205FE1674B37
:101DD8005B6813F4800FC6D1644B1B6813F0020FC5
:101DE80003D0E368012B40F04F81604A136823F069
:101DF800F803216943EAC1031360236813F0080F4D
:101E080040D0636963B35B4B01221A60FFF7F0FDB2
:101E18000546564B5B6F13F0020F33D1FFF7E8FD11
:101E2800401B0228F5D9032031E1504A136823F0FA
:101E3800F803216943EAC1031360DEE74C4B002233
:101E48001A60FFF7D5FD0546484B1B6813F0020FD3
:101E5800D3D0FFF7CDFD401B0228F5D9032016E1AA
:101E6800444B00221A60FFF7C3FD05463F4B5B6FEA
:101E780013F0020F06D0FFF7BBFD401B0228F5D96F
:101E8800032004E1236813F0040F78D0374B1B6C50
:101E980013F0805F0DD100230193344B1A6C42F08C
:101EA80080521A641B6C03F080530193019B012537
:101EB80000E00025304B1B6813F4807F21D0A36815
:101EC800012B32D0052B36D0284B1A6F22F0010295
:101ED8001A671A6F22F004021A67A368002B34D01D
:101EE800FFF786FD0646214B1B6F13F0020F45D105
:101EF800FFF77EFD801B41F288339842F3D9032017
:101F0800C5E01D4A136843F480731360FFF770FD42
:101F18000646194B1B6813F4807FD0D1FFF768FD84
:101F2800801B0228F5D90320B1E0104A136F43F053
:101F380001031367D1E70D4B1A6F42F004021A67C9
:101F48001A6F42F001021A67C7E7FFF751FD06460C
:101F5800064B1B6F13F0020F10D0FFF749FD801BD3
:101F680041F288339842F3D9032090E000380240C8
:101F780000004742800E474200700040EDB9A36957
:101F8800002B00F08380494A926802F00C02082A6C
:101F980051D0022B17D0464B00221A60FFF728FDBC
:101FA8000446424B1B6813F0007F42D0FFF720FD28
:101FB800001B0228F5D9032069E03C4A136C23F082
:101FC80080531364DBE73A4B00221A60FFF710FDD9
:101FD8000546364B1B6813F0007F06D0FFF708FD57
:101FE800401B0228F5D9032051E0E369226A134314
:101FF800626A43EA8213A26A5208013A43EA024338
:10200800E26A43EA0263294A5360294B01221A60B3
:10201800FFF7EEFC0446254B1B6813F0007F06D142
:10202800FFF7E6FC001B0228F5D903202FE000206B
:102038002DE000202BE0012B2BD01C4B5B6803F418
:102048008001E269914226D103F03F02216A8A4267
:1020580023D1616A47F6C0721A40B2EB811F1ED1C4
:1020680003F44031A26A5208013AB1EB024F18D189
:1020780003F07063E26AB3EB026F14D1002006E04C
:1020880001207047012002E0012000E0002002B09A
:1020980070BD0120FBE70120F9E70120F7E70120E7
:1020A800F5E70120F3E70120F1E700BF003802401F
:1020B80060004742F8B52F4B9B6803F00C03042BD4
:1020C80053D0082B53D12B4B5A6802F03F025B6860
:1020D80013F4800F28D0274B5B68C3F3881358018B
:1020E8000021C01A61F100018E0146EA906687015D
:1020F8003C1A66EB0105E90041EA5471E000C0189A
:1021080041F100014B0243EAD053440220461946EC
:102118000023FEF755F8174B5B68C3F301430133FF
:102128005B00B0FBF3F023E0124B5B68C3F388134A
:102138005C010025E41A65F10005AE0146EA9466E3
:10214800A701381B66EB0501CC0044EA5074C500B2
:10215800E81844F100018B0243EA905384022046B8
:1021680019460023FEF72CF8D5E7034800E003489A
:10217800F8BD00BF0038024000127A000024F400C5
:10218800002800F09B8070B50D4604464F4B1B6835
:1021980003F007038B4208D2CBB24C4A1370136882
:1021A80003F007038B4240F08B80236813F0020F83
:1021B80017D013F0040F04D0454A936843F4E05352
:1021C8009360236813F0080F04D0414A936843F4DE
:1021D800604393603E4A936823F0F003A1680B4381
:1021E8009360236813F0010F32D06368012B21D06C
:1021F8009A1E012A25D9364A126812F0020F61D0B8
:1022080033498A6822F0030213438B60FFF7F0FB1F
:1022180006462F4B9B6803F00C036268B3EB820FF2
:1022280016D0FFF7E5FB801B41F288339842F0D9BE
:10223800032042E0264A126812F4003FE0D1012050
:102248003BE0234A126812F0007FD9D1012034E024
:102258001E4B1B6803F00703AB4207D9EAB21B4BBE
:102268001A701B6803F00703AB422DD1236813F0E3
:10227800040F06D0164A936823F4E053E1680B4331
:102288009360236813F0080F07D0114A936823F46A
:102298006043216943EAC1039360FFF70BFF0C4BCE
:1022A8009B68C3F303130B4AD35CD8400A4B1860EE
:1022B8000A4B1868FFF750FB002070BD01207047DB
:1022C8000120FAE70120F8E70120F6E7003C024088
:1022D80000380240349F0008000000200800002059
:1022E800014B1868704700BF0000002008B5FFF7D1
:1022F800F7FF044B9B68C3F38223034AD35CD8409F
:1023080008BD00BF00380240449F000808B5FFF729
:10231800E7FF044B9B68C3F34233034AD35CD840BE
:1023280008BD00BF00380240449F000828B370B5BC
:102338000E461546044690F84930CBB1214651F86F
:10234800080B00F0DBF8A2683146206800F004F9B9
:10235800236BA2682946606800F01EF92268A1680C
:1023680052F8213043F0010342F82130002070BDBB
:1023780080F84830FFF758F9E0E70120704700007F
:1023880070B504460268136923F44053C1680B43CF
:10239800136183680269134342691343C2691A438C
:1023A8000168CB6823F4164323F00C031343CB6076
:1023B8000268536923F4407381690B4353610368CE
:1023C800344A934206D002F58062934202D0FFF766
:1023D8008DFF01E0FFF79AFFE369B3F5004F2AD0BC
:1023E8000026051846EB06012D1846EB0101CB0027
:1023F80043EA5573EA001546194663689A009B0F2D
:10240800281846EB0101FDF7DBFE234DA5FB003242
:102418005109642303FB11031B013233A5FB03237A
:102428005B0903F0F00202EB011203F00F032168CD
:1024380013448B6070BD0026051846EB06012D1865
:1024480046EB0101CB0043EA5573EA0015461946ED
:1024580062683346921846EB0303281846EB0101DD
:10246800FDF7AEFE0C4DA5FB00325109642303FBBA
:102478001103DB003233A5FB03235B095A0002F486
:10248800F87202EB011203F00703216813448B6012
:10249800D0E700BF001001401F85EB5158B310B5BD
:1024A800044690F83D300BB3242384F83D3022686D
:1024B800D36823F40053D3602046FFF761FF2268F6
:1024C800136923F4904313612268536923F02A03A4
:1024D80053612268D36843F40053D360002020641A
:1024E800202384F83D3084F83E3010BD80F83C301D
:1024F800FFF7F8F9D8E701207047000070B40C68BE
:1025080050F82430134E1E404A688D6842EA05038D
:10251800CA6813430A6913434A6913438A69134310
:10252800CA6913430A6A13434A6A13438A6A1343FC
:10253800CA6A1343CA6B13430A6B13433343082D08
:1025480004D040F82430002070BC704743F04003AA
:10255800F7E700BF8000F0FF30B4013250F82240A6
:1025680004F040440B684D6843EA05138D6843EA5C
:102578000523CD6843EA05430D69013D43EA055348
:102588004D69023D43EA056389690B43234340F8DB
:102598002230002030BC7047B3F5804F05D06FF073
:1025A800704340F822300020704730B450F8223091
:1025B800094C1C400B684D6843EA05138D6843EAD3
:1025C8000523CD6843EA054389690B43234340F853
:1025D8002230002030BC70470000F0CF82B0ADF848
:1025E8000600BDF80620024B1A8002B0704700BFF3
:1025F8007E00006C82B0ADF80600BDF80620024BE4
:102608005A8002B0704700BF7E00006C82B0044B55
:102618005B88ADF80630BDF8060080B202B070479E
:102628007E00006C014B1880598070477E00006C5A
:1026380008B5FFF7D3FFFFF7E9FF08BD024B1A897A
:10264800024B1A80704700BFF40400207E00006C23
:1026580038B54B4B9B79012B0DD02BB9484B9A8839
:1026680041F663139A4210D0454B9A8849F2413398
:102678009A4222D038BD424A928846F604018A42DC
:10268800EBD041F663118A42E7D00728ECD8DFE89F
:1026980000F0120406080A0C0E100720E4E70420D4
:1026A800E2E70520E0E70120DEE70020DCE7032081
:1026B800DAE70220D8E70620D6E70138062805D849
:1026C800DFE800F05206484A4C4E5000002500E072
:1026D800402545F008013620FFF7A4FF15F0200F2C
:1026E80044D0274B1A885B889A4202D224490B802F
:1026F8004A80234C6089FFF771FF0020FFF77AFFBB
:102708000020FFF777FF20880138C0F30F20FFF77C
:1027180071FF20880138C0B2FFF76CFFA089FFF76E
:102728005DFF0020FFF766FF0020FFF763FF60886A
:102738000138C0F30F20FFF75DFF60880138C0B291
:10274800FFF758FF45F4805141F008010320FFF7D7
:1027580069FF8FE7C025BCE72025BAE76025B8E701
:10276800A025B6E7E025B4E78025B2E7044B1A8830
:102778005B889A42BDD902490B804A80B9E700BFFD
:10278800F404002008B538BB1E4B00229A714FF4A0
:10279800A0725A80F0221A809B8849F241329342F3
:1027A80003D00020FFF754FF08BD164A2C211181E1
:1027B8002A2151812B21918146F60402934203D0AC
:1027C80045F210329342ECD10E4B4FF4A0721A80AE
:1027D8004FF4F0725A80E4E70A4B01229A714FF4E1
:1027E800A0721A80F0225A809A8849F241339A429C
:1027F800D7D1044B2C221A812A225A812B229A8162
:10280800CFE700BFF40400200E4B9A8849F2413309
:102818009A4200D0704770B505460C46094E70893B
:10282800FFF7DCFE280AFFF7E5FEE8B2FFF7E2FE55
:10283800B089FFF7D3FE200AFFF7DCFEE0B2FFF70E
:10284800D9FE70BDF404002038B50546094B1C8834
:102858005B8804FB03F400210846FFF7D5FFFFF768
:10286800EDFE0023A34203D2034A55800133F9E762
:1028780038BD00BFF40400207E00006C2DE9F84349
:1028880081468846BDF82050141AA4B20134A4B277
:102898005F1ABFB20137BFB2002607E00A4A558067
:1028A80001339BB2A342F9D30136B6B2BE4209D274
:1028B80006EB080189B24846FFF7A6FFFFF7BEFE00
:1028C8000023EFE7BDE8F8837E00006C2DE9F843AC
:1028D80081468846089E141AA4B20134A4B25F1A2D
:1028E800BFB20137BFB200250BE004FB053236F852
:1028F80012100B4A518001339BB2A342F5D3013524
:10290800ADB2BD4209D205EB080189B24846FFF7CE
:102918007BFFFFF793FE0023EFE7BDE8F88300BFD6
:102928007E00006C10B53220FFF768F80121002006
:10293800FFF778FE3220FFF761F80020FFF778FEF6
:102948009E4CA080D320FFF749FEFFF75FFEA080D2
:10295800FFF75CFEA080FFF759FE0002A080FFF79A
:1029680055FEA388184380B2A08049F241339842AB
:102978000DD00020FFF706FF01224FF400419048D8
:10298800FFF796F94FF6FF70FFF75EFF10BDFEF7F1
:10299800D1FDCF20FFF722FE0020FFF72BFEC1203C
:1029A800FFF728FE3020FFF725FEED20FFF716FE83
:1029B8006420FFF71FFE0320FFF71CFE1220FFF71D
:1029C80019FE8120FFF716FEE820FFF707FE852095
:1029D800FFF710FE1020FFF70DFE7A20FFF70AFE22
:1029E800CB20FFF7FBFD3920FFF704FE2C20FFF773
:1029F80001FE0020FFF7FEFD3420FFF7FBFD02205B
:102A0800FFF7F8FDF720FFF7E9FD2020FFF7F2FDBB
:102A1800EA20FFF7E3FD0020FFF7ECFD0020FFF7B9
:102A2800E9FDC020FFF7DAFD1B20FFF7E3FDC12019
:102A3800FFF7D4FD0120FFF7DDFDC520FFF7CEFD30
:102A48003020FFF7D7FD3020FFF7D4FDC720FFF770
:102A5800C5FDB720FFF7CEFD3620FFF7BFFD4820A4
:102A6800FFF7C8FD3A20FFF7B9FD5520FFF7C2FD73
:102A7800B120FFF7B3FD0020FFF7BCFD1A20FFF7D8
:102A8800B9FDB620FFF7AAFD0A20FFF7B3FDA22083
:102A9800FFF7B0FDF220FFF7A1FD0020FFF7AAFD28
:102AA8002620FFF79BFD0120FFF7A4FDE020FFF79C
:102AB80095FD0F20FFF79EFD2A20FFF79BFD28209C
:102AC800FFF798FD0820FFF795FD0E20FFF792FD10
:102AD8000820FFF78FFD5420FFF78CFDA920FFF792
:102AE80089FD4320FFF786FD0A20FFF783FD0F20AD
:102AF800FFF780FD0020FFF77DFD0020FFF77AFD3E
:102B08000020FFF777FD0020FFF774FDE120FFF7B5
:102B180065FD0020FFF76EFD1520FFF76BFD172000
:102B2800FFF768FD0720FFF765FD1120FFF762FD3D
:102B38000620FFF75FFD2B20FFF75CFD5620FFF70F
:102B480059FD3C20FFF756FD0520FFF753FD1020E7
:102B5800FFF750FD0F20FFF74DFD3F20FFF74AFD1F
:102B68003F20FFF747FD0F20FFF744FD2B20FFF71D
:102B780035FD0020FFF73EFD0020FFF73BFD01205B
:102B8800FFF738FD3F20FFF735FD2A20FFF726FD28
:102B98000020FFF72FFD0020FFF72CFD0020FFF796
:102BA80029FDEF20FFF726FD1120FFF717FD7820FC
:102BB800FEF724FF2920FFF711FDDAE6F4040020D0
:102BC80000040240DFF834D00D480E490E4A0023B5
:102BD80002E0D458C4500433C4188C42F9D30B4AC9
:102BE8000B4C002301E013600432A242FBD3FEF732
:102BF8005DFE00F01FF8FEF7D9FD704700000220C7
:102C0800000000203C04002050A000083C040020E4
:102C18002C050020FEE7000008B5062000F0AAF801
:102C28000120FEF73DFE00BF014B1868704700BF4A
:102C38000C00002070B50D4E0D4D761BB61006D059
:102C4800002455F8043B01349847A642F9D1094EAF
:102C5800094D761B00F01EF9B61006D0002455F871
:102C6800043B01349847A642F9D170BD44A000083E
:102C780044A000084CA0000844A00008F0B486074F
:102C880046D0541E002A3CD0CAB2034601E0013C9B
:102C980037D303F8012B9D07F9D1032C2AD9CDB2DC
:102CA80045EA05250F2C45EA054534D9A4F110025B
:102CB80022F00F0C03F120071609674403F11002F4
:102CC80042E9045542E902551032BA42F8D1721C61
:102CD80014F00C0F03EB021204F00F0613D0331F8D
:102CE80023F003030433134442F8045B9342FBD1FB
:102CF80006F003042CB1CAB21C4403F8012B9C4211
:102D0800FBD1F0BC704734461346002CF3D1F8E7EA
:102D180014460346C1E71A462646E0E71F2938B598
:102D2800054621D8D0F8DC220C466AB152F8213089
:102D380053B1012B16D0591C10D00025204642F85B
:102D480024509847284638BD284600F031F82246D6
:102D580001462846BDE8384000F014B81623036041
:102D6800012038BD002038BD162303604FF0FF3026
:102D780038BD00BF024B01461868FFF7CFBF00BF40
:102D88000C00002038B50C46084D03461146204675
:102D980000221C462A60FEF77BFD431C00D038BD8C
:102DA8002B68002BFBD0236038BD00BF280500200E
:102DB800FEF76CBD024B13B1024800F005B870472E
:102DC80000000000DD2D0008002301461A461846C1
:102DD80000F01AB838B5084B084D5B1B9C1007D09B
:102DE800043B1D44013C55F804399847002CF9D19F
:102DF800BDE8384000F054B850A000084CA00008C6
:102E0800704700BF704700BF2DE9F047DFF880A08A
:102E18000646DAF8000098460F469146FFF7F0FF9D
:102E28001A4B1B68D3F8484124B365681F2D26DC6C
:102E38005EB9AB1C0135DAF80000656044F8237010
:102E4800FFF7E0FF0020BDE8F08704EB85030121D0
:102E5800C3F88890D4F88821A9400A43022EC4F800
:102E68008821C3F80881E4D1D4F88C311943C4F817
:102E78008C11DEE703F5A674C3F84841D5E7DAF804
:102E88000000FFF7BFFF4FF0FF30DCE74C9F000862
:102E980038040020F8B500BFF8BC08BC9E4670474F
:0C2EA800F8B500BFF8BC08BC9E4670479F
:102EB400B3EEB3EEB3EEB3EEB3EEB3EEB3EEB3EE06
:102EC400B3EEB3EEB3EEB3EEB3EEB3EEB3EEB3EEF6
:102ED400B3EEB3EED3EEB3EEB3EEB3EEB3EED4EEA5
:102EE400F4F6F4F6D3EEF3EEF3EED3EEF3F6F4F6F3
:102EF400F4EEF4EED4EEF5F6F4EED4EEF5EED4EE14
:102F0400D5F6D5F6F5EEF5EED5EEF5F6F5F6D5EE05
:102F1400F5EE16F7D5EEB3E6B4E6D5EED5EEF5EE5E
:102F2400F5EEF5F6F5EED5EED5EED5EED5EED5EE1D
:102F3400D5EED5EED4EEB4EEB4EE94E694E6F5EE2A
:102F4400B4EE53DE6BA4E251E251F2D578FFF6EE13
:102F5400D6EEB6E6B5EEB5F6D5F6D5EED5EED5F6A3
:102F6400D5F6D5EED5F6D5F6D5EED5F6D5F6D5EE1D
:102F7400D5F6D5F6D5F6D5F6D5F6D5F6D5F6D5F6F5
:102F8400D5F6D5F6D5F6D5F6D5F6D5F6D5F6D5F6E5
:102F9400D5F6D5F6D5F6D5F6D5F6D5F6D5F6D5F6D5
:102FA400D4EED4EED4EED4EED4EED4EED4EED4EE0D
:102FB400D4EED4EED4EED4EED4EED4EED4EED4EEFD
:102FC400D4EED3EED4EED4EED3EED4EEB4EED4EE0F
:102FD400D4EEB4EEB4EED4EED4EED4EE15F715F789
:102FE400B4EEB3E6D4EE15F7D4EEB4EED4EED5EEEB
:102FF400F5EED5EED4EED4EED4EED4EED5EED5EE99
:10300400D5EED5EEB5E6B4E6B4EED5EEF5EEF5F6CE
:10301400F5F6F5F6F4F6D4EED4EEF5F615F7F5F686
:10302400F5F6F5F6F4EEF5F6F5F6D5EED5EED5EEC5
:10303400B5EE37FF57FF0EB5A149235A70BD57FFB0
:1030440016F7B5E6D5EED5F6D5F6D5EED5EED5EE32
:10305400D5F6D5EED5EED5F6D5F6D5F6D5F6F5F604
:10306400F4F6F4F6F4F6F4F6F4F6F4F6F4F6F4F60C
:10307400F4F6F4F6F4F6F4F6F4F6F4F6F4F6F4F6FC
:10308400F4F6F4F6F4F6F4F6F4F6F4F6F4F6F4F6EC
:10309400D3EED3EED3EED3EED3EED3EED3EED3EE24
:1030A400D3EED3EED3EED3EED3EED3EED3EED3EE14
:1030B400D3EED3EED3EED3EEB3EED3EEB4EEB5EE61
:1030C400B5E6D5EEB5EEB5EEB4E636F7D5EE73DE7D
:1030D400B4EE15F7B4EEF1D593E6D4EEB4E6D4EE3F
:1030E400F5EEB4EEB3E6B4EED4E6B3E6D4E6D4EE4D
:1030F400D5E6B4E6D5EED5EED4EEF5EEF5EEF4EE87
:10310400F5F6F5F6F5F6F5F6F5F6F5F6F5F6D5F683
:10311400F5F6F5F6F5EEF5F6F5F615F7F5F694EEA3
:1031240094E637FF98FFF6F62FBD0252846253DE11
:1031340057FF36F736F7D5F6B4EED5F6D5EED5EE1D
:10314400D5F6D5EED5EEB5F6D5F6D4F6D4F6F4F636
:10315400F3F6F3F6F3F6F3F6F3F6F4F6F3F6F3F622
:10316400F3F6F3F6F3F6F3F6F3F6F3F6F3F6F3F613
:10317400F3F6F3F6F3F6F3F6F3F6F3F6F3F6F3F603
:10318400D3EED3EED3EED3EED3EED3EED3EED3EE33
:10319400D3EED3EED3EED3EED3EED3EED3EED3EE23
:1031A400D3EED3EED3EED3EED3EED3EEB3EED4EE32
:1031B400D5EED5EED5EED5EED5EE15EFB3E652DE6F
:1031C40057FFB4EEC88B2A9CB3EE35F793E6D3EEE3
:1031D400F4EEB3E6D3EED3E6D3E6D3E6D3E6D4EE09
:1031E400D5EED5EED5EEB5E6B4E6F5EEF5F6F4F6A5
:1031F400F5F6F5F6F5F6F5F6F5EEF5EEF5F6D5F6A3
:10320400F4F6F5F6F5EEF5F6F5EEF5F6F5F674E604
:1032140095E6F6F6F6F6F6F637FFEEACA1416883CE
:10322400B5EE37F7F5EED4EED5F6D5F6D5EED5EE08
:10323400B5EED5EED5EED5EED5F6D4F6D4F6F4EE5D
:10324400F4F6F4F6F3F6F3F6F3F6F4F6F4F6F3F62E
:10325400F4F6F4F6F3F6F4F6F4F6F3F6F4F6F4F61C
:10326400F3F6F4F6F3F6F3F6F4F6F4F6F3F6F4F60E
:10327400D4EED4EED4EED4EED3EED3EED4EED3EE3D
:10328400D4EED4EED4EED4EED4EED4EED4EED4EE2A
:10329400D3EED4EED3EED4EED4EED3EED3EED4EE1E
:1032A400D5EED5EED5EED5EED5E6B4E6B4EE35FFE3
:1032B400B4EE0994C46AACACB3E615F793E6D3EE66
:1032C400F5F6B4EED4EED3EED3EED3EED4EEB4EE04
:1032D400D5EED5EED5EED4E6D4EEF5F6F5F6F5F664
:1032E400F5F6F5EEF5F6F5F6F5F6F5F6F5F6D5F6AA
:1032F400F5F6F5F6F5EEF5F6F5F6F5F6D5F695EE02
:1033040074E694E6D5EED5EED5F636F78CA4E25104
:10331400C98B16EFF5EE94EED5F6D5F6D5F6B5EEE7
:10332400D5EED5F6D5EED5EED5F6D5F6D5F6F5F639
:10333400F4F6F3F6F4F6F4F6F4F6F4F6F4F6F3F63B
:10334400F4F6F4F6F4F6F4F6F4F6F4F6F4F6F4F629
:10335400F4F6F4F6F4F6F4F6F4F6F4F6F4F6F4F619
:10336400D3EED3EED3EED3EED3EED3EED3EED3EE51
:10337400D3EED3EED3EED3EED3EED3EED3EED3EE41
:10338400D3EED3EED3EED3EEB4EED3EED3EEB4EE6F
:10339400D5EED4EED5E6D5EED5EED4E6D4EE15F7DB
:1033A4004A9C0573D0CDD4EE93E6D4EEB4EEF4EE9D
:1033B400F4F6D4EEB3EED3EED4EED3EEB4EEB4EE34
:1033C400B5EED5EED5EED4EED4EEF5EEF5F6F4F694
:1033D400F5F6F5F6F5F6F5F6F5F6F5F6F5F6F5F691
:1033E400F5F6F5F6F5F6F5F6F5F6F5F6D5F6B5EEE9
:1033F40094E694E6F5F616F793E657FF98FF477BB5
:10340400A04990C536FFD5F6B5EED5EED5F6D5F67E
:10341400D5EED5F6D5EED5EED5F6D5F6D5EEF5EE58
:10342400F3F6F3F6F3F6F3F6F3F6F3F6F3F6F3F650
:10343400F3F6F3F6F3F6F3F6F3F6F3F6F3F6F3F640
:10344400F3F6F3F6F3F6F3F6F3F6F3F6F3F6F3F630
:10345400D3EED3EED3EED3EED3EED3EED4EED3EE5F
:10346400D3EED3EED3EED3EED3EED3EED3EED3EE50
:10347400D3EED3EED3EED3EED3EED3EEB4EED4EE5E
:10348400D4EED4EED4E6D5EED4E6F5EE15F78BA45F
:10349400C56A2EBD56FF56FFD4EEB3EED4EEF4EE5D
:1034A400F4F6D4F6B3EED3EED3EED3EEB3EED4EE1D
:1034B400D5EED5EED5EED5EED4E6D5EEF5F6F5F6A9
:1034C400F5EEF5F6F5F6F5F6F5EEF5F6F5F6F5F6B0
:1034D400F5F6F5F6F5EEF5F6F4F6F4F6F4F6F4EEA4
:1034E400D5EEB5EED5EED5EEB4E656F7B8FFD1CDB0
:1034F4002252E56A74E616FFD5F6D4EED4EED5EE84
:10350400B5EEB5EED5EED5EED5F6D5F6D5EEF5EEAF
:10351400F3F6F3F6F3F6F3F6F3F6F3F6F3F6F3F65F
:10352400F3F6F3F6F3F6F3F6F3F6F3F6F3F6F3F64F
:10353400F3F6F4F6F3F6F3F6F3F6F3F6F3F6F3F63E
:10354400D4EED3EED4EED4EED3EED3EED4EED3EE6B
:10355400D4EED4EED4EED4EED4EED4EED4EED4EE57
:10356400D3EED4EED4EED3EED3EED3EEB4EEF5EE4A
:10357400F5EEB4E6F4EEF5EEB4E677FFD0CD015205
:103584000A9415F7F4F6F4EED3EEB3EED4EEB3EEFC
:10359400D3EED4EEB3EED4EED4EED3EED3EED4EE3B
:1035A400D5EED5EED5EED5EEB5E6B5E6D5EED5EE4F
:1035B400B5EED5EED5EEB4EED5EED5EEB4EEB4EE72
:1035C400D5EEB4EED4EED5EED5EEB5EEB4EED5EE42
:1035D400D5E6D5EED5EEB4E6D4E6D4E636F736F73E
:1035E4002B9460394B9C16FF56FF15F793E694E62F
:1035F400D5F6D5F6D5F6D5EED5F6D5F6F5EEF5EE47
:10360400F4F6F3F6F4F6F4F6F4F6F4F6F4F6F3F668
:10361400F4F6F4F6F3F6F4F6F4F6F3F6F4F6F4F658
:10362400F3F6F4F6F4F6F3F6F4F6F4F6F3F6F4F649
:10363400D3EED3EED4EED4EED4EED3EED4EED3EE7A
:10364400D3EED3EED3EED3EED3EED3EED3EED3EE6E
:10365400B3EED3EED3EED3EED3EED3EEB4EEB4EEBC
:10366400D4EEB4EED4EED4EE15F7F5F6A88B267BA3
:1036740073E656FFD4EE93E6D3EED3EED3EEB3EE79
:10368400B3EED3EED3EEB3EEB4EEB3EED4EEB4EECB
:10369400D5EEB5E6D5EED5EEB5E6D5EED5EEB5E686
:1036A400D5EED5EEB5EED5EED5EEB5EEB5EED5EE5E
:1036B400B5EED5EED5EED5EED5EED5EEB4EED4EE30
:1036C400D5EED5EED5E6D5E6D4E6D4EED4EE16F7AF
:1036D40073DEA46A425AF1D556FF15F7B4E673DED9
:1036E400F4EEF5F6B5EED5EED5F6D5F6F5EEF5F63F
:1036F400F3F6F3F6F3F6F3F6F3F6F3F6F3F6F3F67E
:10370400D3F6F3F6F3F6F3F6F3F6F3F6F3F6F3F68D
:10371400F3F6F3F6F3F6F3F6F4F6F3F6F3F6F4F65B
:10372400D3EEB3EED3EED3EED3EED4EED3EEB3EECC
:10373400D3EED3EED3EED3EED3EED3EED3EED3EE7D
:10374400D3EED3EED3EED3EED3EED4EEB4EE93E6D3
:1037540093E6B4EEB4EEB4EE77FF8FC5425A0DB5DE
:1037640077FFF5F615F7D4EED3EED3EED3EED3EE22
:10377400D3EEB3EED3EED3EEB3EED3EEB3EED4EE9C
:10378400D5EED5EED5EED5EED5EED5EED5EED5EE1D
:10379400D5EED5EED5E6D5EED5EED5E6D5EED5EE1D
:1037A400D5EED5EED5EED4E6D5EEB5E6B5E6B5E67E
:1037B400D4EED4EED4EED4E6D4EED5EE93E6D4EE45
:1037C40097FFEDB480412A9415F7D4EEB4EE94E655
:1037D400D4E6D5F6D5F6B5EED5F6B4EED5EEF5EEDF
:1037E400F3F6F3F6F3F6F3F6F3F6F3F6F3F6F3F68D
:1037F400F4EEF4F6F3F6F3F6F3F6F3F6F3F6F3F683
:10380400F4F6F4F6F3F6F3F6F3F6F3F6F3F6F3F66A
:10381400D3EED3EED4EED4EED3EED4EED4EED3EE98
:10382400D4EED4EED4EED4EED4EED4EED4EED4EE84
:10383400D3EED4EED4EED3EED3EED4EED4EE93E6C0
:10384400B3E6D4EE93E6D4EE36FFC88B836232DE61
:1038540015F7B4EEB4EEF5F6B3EEB3EED4EED3EE64
:10386400B3EED4EED3EED3EED3EED3EED3EED4EE6A
:10387400D5EED5EED5EED5EED5EED5EED5EED5EE2C
:10388400D5EED5EED5EED5EED5EED5EED5EED5EE1C
:10389400D5E6D5EED5EED5EED5EED5EED4E6D4E626
:1038A400B4EED3EED3EED4E6B4EED4EEB4EEB3E697
:1038B400D5EE93E60573C56A53E6D4EE94E6F5EEC9
:1038C400B4E6B5F6D5F6B5EED5F6D5F6D5EEF5EE05
:1038D400F4F6F4F6F4F6F4F6F3F6F4F6F4F6F3F696
:1038E400F4F6F4F6F3F6F4F6F4F6F3F6F4F6F3F687
:1038F400F3F6F4F6F4F6F4F6F3F6F4F6F4F6F4F676
:10390400D4EED3EEB3EEB3EED3EEB3EED4EED3EE09
:10391400D3EED3EED3EED3EED3EED3EED3EED3EE9B
:10392400D3EED3EED4EED3EED3EEB3EED4EE93E6F1
:10393400D4EED4EE93E6F5EE93E68362678315F74F
:10394400F5EE93E632DEB4EED4EED3EED3EED3EE60
:10395400D3EEB3EED4EED3EED3EED3EEB4EED4EE98
:10396400D5EED5EED5EED5EED5EED5EED5EED5EE3B
:10397400D5EED5EED5EED5EEB5E6B5E6D5EED5EE7B
:10398400D5EED5EED5EED5EEB5E6D5EED4EED4EE45
:10399400D3EED3EED3E6D3E6D4EED5EEF5F6B4E625
:1039A40073DE56FFCCAC435A2FBD15F7B4EED5EEFB
:1039B400B4EEB4EED5F6D5F6B5F6B4EEF5EEF4F60F
:1039C400F3F6F3F6F3F6F3F6F3F6F3F6F3F6F3F6AB
:1039D400F3F6F3F6F3F6F3F6F3F6F3F6F4F6F3F69A
:1039E400F4F6F4F6F4F6F3F6F4F6F4F6F3F6F3F686
:1039F400B4EEB4EED4EED4EED4EED4EEB3EED3EE15
:103A0400D3EED3EED3EED3EED3EED3EED3EED3EEAA
:103A1400D3EED3EED3EED3EED3EEB3EED4EEB4EED8
:103A2400F5F6D4EEB4EE15F74EBD225AACAC56FF03
:103A3400B4E673DE93E6B4E6D3EED3EED4EED4EE7E
:103A4400D3EED3EED4EED3EEB3EEB3E6B4EED5EECE
:103A5400D5EED5EED5EED5EEB5EED5EED5EED5EE6A
:103A6400D4E6D4E6D4E6D5EED4EED4E6D5EEF5EE3F
:103A7400B4E6B4E6B4E6B4E6D5EEB4EEB4EED4EE11
:103A8400D4EED4E6D4E6D4E6B4EED4EED4EED4EE5A
:103A9400D4EE56FFB0C5225A0A9437FFF5F673E602
:103AA400D4EED4F6D5EED5EED5EED5EED5EEF4EED5
:103AB400F4EEF4EEF4EEF4EEF4F6F4EEF4EEF4F6E2
:103AC40014EFF4EEF4EEF4F6F3F6F3F6F3F6F4F69C
:103AD400F4F6F3F6F3F6F3F6F3F6F3F6D3F6F3F6B9
:103AE400B3EEB3EED4EEB4EED4EEF4F6B3EED3EE1E
:103AF400D4EED4EED4EED4EED4EED4EED4EED4EEB2
:103B0400D3EED4EED4EED3EED3EED3EEB4EEB4EEE5
:103B1400D5F6D4EEF5EE36FF8783635A93E615F7B0
:103B240052DED4EEB4EE93E6B3EED3EED3E6D3E6B0
:103B3400D4EED3EE51DEB3E635FFF5F6B4E6D4EEBB
:103B4400D3EED3EED4EED3EED3EED3EED3EED3EE68
:103B5400D4EED4E6D4E6F4EED4EEB3E6D4EEF4EE4A
:103B6400B4EED4E6B3E6D4E6D4EED4E6D4EED5EEA1
:103B7400B5E6D5EED5EED4E6D4EEB4EED4EEF5F655
:103B840015F7F5F6B4E6E572C56AB5E637FF53DE18
:103B9400B5EED5EED4EED5EED5EED5EEB5EED4EE4B
:103BA400D5EED5EED5EED5EED5EED5EED5EED5EEF9
:103BB400D4E6D4EED4E6D4EED3EED3EED3EED3EE05
:103BC400D3EED3EED3EED3EED3EED3EED3EEF3F6C1
:103BD400B4EED4EEB4EE93E6B4EEF4EED3EED3EE5C
:103BE400D3EED3EED3EED3EED3EED3EED3EED3EEC9
:103BF400D3EED3EED3EED3EED3EED3EEB4EED4EED7
:103C0400D4EED4EE36FFB4EEA46A8883F5F6F5F666
:103C1400B4E6D4EEB4EEB4EEB3EED3EED3E6D3E62C
:103C2400D4EEB3EE31DEB3EE15F736FFB4EEB3EEF9
:103C3400B3EED3EED3EED3EED3EED3EED3EED3EE98
:103C4400B3EEB3EED4EED4EED4EEB3E6B3E693E63D
:103C540015F715F735F735F7D4EEF4EEF5EEB5E6CE
:103C6400D5EED5EED5EED5EED4EED4E6D4EED4EE44
:103C7400D4EED4EEF4EEEA93846290C536FFB4EE4B
:103C840094E6D5EED5E6D5E6D4E6B5E6B5E6D5EECA
:103C9400D5EEB5E6D5EED5EEB5E6B5E6D5EEB5E6A8
:103CA400B5E6B5E6B5E6D4E6D3E6D3E6D3E6D3E6A1
:103CB400D3E6D3E6D3E6D3E6D3E6D3E6D3EEF4EE07
:103CC400D4EE35F7D4EEB4E6B4E6B4EED4EED3EEE7
:103CD400D3EED3EED3EED3EED3EED3EED3EED3EED8
:103CE400D4EED3EED3EED3EED3EED3EEB4EED5EEE4
:103CF400B4E6D4EE98FFB0CD225A2EBD15F7F5EEFA
:103D0400D4EE73E6D4EED4EED3EEB3EEB3EED4E653
:103D1400D3EEB3EEF4F632DEA883EEB437FFF5F655
:103D2400B3EED3EED3EED3EED3EED3EED3EED4EEA6
:103D3400D3EEB4EED4EEB4EEB3EED4EED4EE93E61A
:103D4400F1D58BAC0DB593EE15F7F5F6F5EED5E69A
:103D5400B5E6B5E6D5EED5EED4E6D4E6D4E6B4EED3
:103D6400D4EED4EEF5F6EDB4C46A8CA415F715F7C9
:103D7400B4E6B4E6D5E6D5E6D5EED5EED5EED5EE89
:103D8400D5EED5EED5EED5EED5EED5EED5EED5EE17
:103D9400D5EED5EED4EED4E6D3E6D3E6D3E6D4E638
:103DA400D3E6D3E6D3E6D3E6D3E6D3E6D3EEF4F60E
:103DB400D4EEF4F693EEF5F6D4EE94E6D3EED3EE29
:103DC400D4EED3EED3EED3EED3EED3EED3EED3EEE6
:103DD400B3EED4EED3EED3EED4EED4EED4EEB4EE12
:103DE400B4E6F5EEB8FFEDB4015232DE15F7D4EEC9
:103DF400D5EE53DEB4EED4EED3EED3EED3EEB4EE82
:103E0400B4EEF5F616F7E9934018235A95EE36F713
:103E1400D3EED3EED4EED3EED3EED4EED4EED3EE93
:103E2400D3E6D4E6B4EE93EEB4EEF5F635FF35F70B
:103E34002A9CC02881410DB556FFF5F6B4E6F4E698
:103E4400D5EED5EED5EED5EED4EED4EEB3EEB4EE9B
:103E5400B4EED4EE15F790C5E6720994B3E6F4F621
:103E6400D5EED5EEB5E6D5E6D5EED5EED5EED5EE66
:103E7400D5EED5EED5EED5EED5E6D5EED5EED5EE2E
:103E8400D5EED5EED5E6D4E6D3EED4EED4EED3EE2D
:103E9400D3EED4EED3EED3EED3EED3EED3EEF4F6EC
:103EA400D4EE11D670C593E6D5EEB4EEB3EED3EEF0
:103EB400D4EEB3EED3EED3EED4EED3EEB3EED4EE33
:103EC400D3EED3EED3EED3EED3EED3EEB4EE93E64D
:103ED400D4EEF5EE57FF6BA4425A73E6F5F693E67B
:103EE400F5F673E673E6D4EED3EED3EED4EED4EE69
:103EF400B4EE57FF73DEE3510018435AF2D515F7B9
:103F0400D4EED3EED3EED4EED4EED3EED3EED3EEA2
:103F1400D3E6D4E6B4EED4EED4EED4EE15F756FFE1
:103F2400E993602020318A9C35F715F794E6D4EEA6
:103F3400D5EED4EED4E6D5EED4EED4EED3E6B4EE9C
:103F4400B3EEB4EE56FF32DE0573A88394E6D4EEE6
:103F5400B4EEF5EED5EEB5E6D5EED5EED5EED5E676
:103F6400D5EED5EED5EED5EED5EED5EED5EEB5E65D
:103F7400D5EED5EED5E6D4E6D3EED3EEB4EED3EE5D
:103F8400D3EED3EED3EED3EED3EED3EED3EEF4F6FC
:103F940035F74DBDA88BD1CDF5F6D4EED4EEB4EE05
:103FA40093E6D4EED4EEB3EEB4EEB4EED4EEB4EEC7
:103FB400D4EEB4EEB4EEB4EEB4EEB4EEB4EE93E6F6
:103FC400D4EEF5EE36F72A9C836252DED4EE93E605
:103FD400D4EEB4EE73E6B4EEB3EED3EED4EED5EE97
:103FE400D5EE36F712D6C3494020C56AB1CDF5F6F1
:103FF400D4EEB3EED3EED3EED3EED3EED3EED3EED4
:10400400D3E6B3E6D4EED4EED4EEB4EED4EE35F784
:104014002EBD225A2152298C72DE35FFD4EEB4EE25
:10402400D4EEB4EEB4EED4EED4EEB4EEB4EEB4EE1C
:10403400B3EED4EE56FF52DEE572267BB4EE15F7EE
:10404400B4E6D4EEB4EEB4EED4EED4EEB4E6D5EEEB
:10405400D5EED5EED5EED5EEB5E6D4E6D4EED4EE77
:10406400D4E6D4E6D4E6D4E6B3EED3EED3EED3EE80
:10407400D3EED3EED3EED3EED3EEB3EED3EEF4F62B
:10408400D9FFEDB46362D1D515F793E6D5EE93E687
:1040940073E6F5F6D4EE53E694EEB4EEB4E6B4EE7D
:1040A400B4EEB4EEB4EEB4EEB4EEB4EEB4EEB4EEFC
:1040B400B3EEB4EE15F72A9CC56A52DEF5F6B4EEFB
:1040C400B4EEB4EEB3EEB4EED3EED3EED4EED4E667
:1040D400D5EE57F7F2D5E251802801314C9CF5F624
:1040E400F4EED4EED4EED3EED3EED4EED4EED4EE9E
:1040F400D3E6D4E6B3E6B4EEF5EEF5F6B4EED4EEDC
:10410400B4EEE57240184252D0CD55FFF4F6B4EE49
:10411400B4EEB4EEB4EED4EEB4EEB4EEB4EEB4EE6B
:10412400B4EED4EE15F732DEC56AA56A94E677FFDD
:1041340094E6B4E6B4EEB4EEB4EEB4EEB4E6D4EE83
:10414400D5EED4EED4E6D4EED4E6D4E6D4EED4EE72
:10415400D4E6D4E6D4E6D4E6D4EED3EED4EED4EE6C
:10416400D3EED4EED4EED3EED3EED3EED3EEF4F618
:1041740094E60673A46A74E656FFB4EE94E6B4EECD
:1041840094E694E6B4EE94E694EEB4EEB4EEB4EEB3
:1041940094EEB4EEB4EE94EEB4EEB4EE94EEB4EE6B
:1041A400B4E6B4EE15F70994E57273E6F5F6B4EEE9
:1041B400B4EEB3EEB4EEB4EEB4EEB4EED4E6D4E6BC
:1041C400D4EE57FFF1D5235A602000102B9435F715
:1041D400F4EED3EED3EED3EED3EED3EED3EED4EEB1
:1041E400D3E6D3E6D4EEB4EE93E6F5F6D4EEB4EE2D
:1041F40015F7888B0018635A52DE36F7D4EED4EEE6
:10420400B3EED3EED3E6D4E6B4EEB4EED4EED4EE0D
:10421400D4EED4EE15F753DE0673636273E657FFEC
:1042240094EE94EE94EEB4EEB3EEB3EEB4EED4EEBC
:10423400D4E6D4E6D4E6D4E6D4E6D4EED3EEB3EEB4
:10424400D3E6D3E6D4E6D4EED4EED3EED3EED3EE77
:10425400D3EED3EED3EED3EED3EED3EED3EEF4F629
:10426400677BE030C98B16F7D5EED4EEB4EEB4EE2E
:1042740094E674E674E694EEB4EE94EE94EEB4EE42
:10428400B4EEB4EEB4EEB4EEB4EEB4EEB4EEB4EE1A
:10429400B4EED4EEF5F6C88B267BB4E6F5F6B4EEB0
:1042A400B4EEB4EEB3EEB4EEB4EEB4EEB4EED4E6E3
:1042B400D3E636F794E6E672201800312FB515F7E9
:1042C400D4EED3EED3EED3EED3EED3EED3EED3EEE1
:1042D400D3E6D3E6D4EE93E652DED4EE15F7D4EE6D
:1042E40016F790C50573ACACF5F6D4EEB4EEB3EEA8
:1042F400D3EEB3EED3E6B3E6B4EEB4EED4EED4EE3E
:10430400B4EEB4EE15F773E6467BA36A53DEF6F615
:1043140093E6B4EEB4EEB3EEB4EEB3EEB3EEB4EEB5
:10432400D3E6D4E6D4E6B3E6B4EED4EED3EED3EEDD
:10433400D3E6D3E6D4EED4EED4EED3EED3EED3EE7E
:10434400D3EED3EED3EED3EED3EEB3EED3EEF4F658
:104354000031687B16F757FF74E6D5EEB5EE73DED1
:1043640094E694E653DE73E6B4EEB4EEB4EEB4EE43
:10437400B4EEB4EEB4EEB4EEB4EEB4EEB4EEB4EE29
:1043840093E6F5F6D4EE677B6783D4EEF4F6B4EEE9
:10439400B4EEB4EEB4EEB4EEB4EEB4EED3EEB3EEEB
:1043A400B4EEF5F636F74FBD8883ACAC94E6F5EE83
:1043B400D3EED3EED4EED3EED4EED4EED4EED3EEED
:1043C400D3E6D3E6D4EE93E652DEB4EEF5F6B4EEDD
:1043D40016F7B3EE11D6D5EE15F7D4EED4EEB3EE50
:1043E400B3EED3EED3EED3E6B4EEB4EEB4EEB4EE65
:1043F400B4EEB4EE15F773E60573057353DEF5F604
:1044040094E6B4EEB4EE94EEB4EEB4EEB4EEB4EEE0
:10441400B3E6B3E6B3E6B3EEB4EEB4EED3EEB3EE86
:10442400D3EED3EEB4EED4EEB4EED3EED4EED4EEBB
:10443400D3EED4EED4EED4EED4EED3EED3EEF4F643
:10444400C98BB4E699FFF5EE94E695EE94EE74E626
:10445400F5EEF5F6F6F636FF56FFF5F6B4EEB3E6EE
:10446400B4E6B4EEB4EEB4EEB4EEB4E6B4EEB4EE48
:1044740094E6F5F6B4EE0573A88315F7D4EEB4EE1E
:10448400D4EEB4EEB4EEB3EED3EED3EEB4EED4EE9B
:10449400B4EEB4EED3EE15F7F5F6F5F6F4F6D3EE86
:1044A400D4EED3EED4EED3EED3EED3EED3EED3EEFE
:1044B400D4E6D3E6D4EE94EE93E6D4EEB3EEF5F67A
:1044C40015F793E6D4EE56FFD5EEB4EEB4E6B4EEAB
:1044D400D3EED3EED4EED3E6D4EEB4EEB4E6B4EE3B
:1044E400B4EEB4E615F732DE8462487B74E616F760
:1044F400B4EE93E6B4EEB4EEB4E6B4EEB4EEB4EED9
:10450400B4EEB3EEB3EEB3EEB4EEB4EED3EED3EE5C
:10451400D3EED3EEB4EEB4EED3EED3EED3EED3EECD
:10452400D3EED3EED3EED3EED3EED3EED3EEF4F656
:1045340036FF57FFD5EEB5EEB5EE95EEB4EED5EEFB
:1045440053E62EB5ADA42FBD12D6B5EED5EEB4E626
:10455400B4EEB4EEB4EE93E6D4EEB4EEB3E693EE7A
:1045640093E6F5F6B3EE0573878315F7F5F6B3E630
:10457400B3EEB4EEB3E6D4EEB4EEB3EEB4EED3EEF3
:10458400D4EEB3E692E6F4EEB3EEB3E6D4EED3EEB5
:10459400B3EEB3EED3EED3EED4EEB4EEB4EED4EE8B
:1045A400B4EEB4EEB4EEB4EED4EED4EE93E6F5F697
:1045B400F5EE93E6B4EEF5EED4EEB4E693E6B4EE9F
:1045C400B3EEB3EEB4EEB4EED4EE94EE94EE93EE1A
:1045D400B3EED4EE15FFB0CD225AE99394E616F764
:1045E40094EE73E6B4EEB4EEB4EEB4EEB4EEB4EE20
:1045F400B4EE94EEB4EEB3E6B4EEB4EEB4EED3EEB1
:10460400D3EED4EED4EED4EED3EED3EED3EEB4EEBA
:10461400D3EED3EED3EED3EED3EEB3EED4EED4F6A4
:1046240037FF16F794E674E6D6EEB5EE95E637FF57
:10463400B1CDE35140184020A028EA9317FF78FF3A
:1046440094E653DED4EE94E694E6D4EE93E693E651
:1046540093E6D4EED4EE2573E46AF4EE15F793E60C
:1046640093E6B4EEB4EED4EEB3E6B4EEB4EEB3EE49
:10467400D4EEB3EE92E692E692E6B3EED2EEB2EE6A
:10468400B3E6B3E6B3EEB3EEB3EEB4EEB3EEB3EE2D
:10469400B4EEB3EEB4EEB4EEB4EEB4EE93E6B4EE30
:1046A400B4EEB4EEB4EEB4EEB4EEB4E6B4E6B4EE06
:1046B400B4EEB4EEB4EEB4EEB4EEB4EE94EE73E64F
:1046C400D5EE15F7F5F6ACAC0152CDACF5EEF5F63A
:1046D40093E693E6B4EEB4EEB4EEB4EEB4EEB4EE18
:1046E400B4EEB4EEB4EEB4EEB4EEB4EEB5EEB4EEB5
:1046F400B4EEB5EED4EED3EED3EED3EED4EED4EEE8
:10470400D3EED4EED4EED3EED4EED4EEB3EED3EEB9
:10471400F5F6B5EE95EE94E694E6B5EEF6F658FFAA
:1047240034DE455AA3498A8B21390031B1CD59FF72
:1047340074DE75E654E694E653DE74E6B4EE94E66D
:1047440093E6D4EEF5F68783836AB4EE15F793E621
:1047540093E693E6B4EEB4EEB4EEB4EEB4EEB3EE98
:10476400D3EEB3EEB3EE92E6B3EED3EED2EED2EEE8
:10477400B3EEB3EEB3EEB3E6B3EEB4EEB4EE94EE52
:10478400B4EEB4EEB4EEB4EEB4E6B4EEB4EEB4EE1D
:10479400B4E6B4EEB4EEB4EEB4EEB4EEB4EEB4EE0D
:1047A400B4EEB3EEB3EEB4EEB4E694EE94EEB5EE3E
:1047B400F5F6B5EE94E68883A462F1D5D5EEB4EEB1
:1047C40093E693E6B4EEB4EEB4EEB4EEB4EEB4EE27
:1047D400B4EEB4EEB4EEB4EEB4EEB5EEB5EEB5EEC2
:1047E400B5EEB5EEB4EED3EED3EED3EED3EED3EE18
:1047F400D4EED3EED3EED3EED3EED3E6D3E6D3E6C4
:10480400B5EE94E653DED5EE17FF37FF79FF78FF58
:10481400D7EE497B4883BAFF0FBD0010045213D66C
:1048240057FF17F732DE54DEB4EED4EED5EE94E63D
:1048340093E6D4EE35FF299C215A52DEF5F6B4EE08
:10484400B3E693E6D4EEB3EEB4EEB4E6B4EEB3E678
:10485400D4EEB3EEB2EEB2EEB3EED3EED2EED3EECE
:10486400D2EED3EEB3EEB3EEB3EEB4EEB4EEB4EEFA
:10487400B4EEB4EE94EEB4EEB4EEB4E6B4E6B4EE54
:10488400B4E6B4EEB4EEB4EEB4EEB4EEB4EEB4EE1C
:10489400B4EEB4EEB4EEB4EEB4E674E694EED5EE53
:1048A400D6F6F5F670C5435AA88B15F7F5F6B4E6B7
:1048B400B4EEB4E6B4EEB4E6B4EEB4EEB4EEB4EEF4
:1048C400B4EEB4EEB4EEB3EEB4EEB5EEB5EEB5EED2
:1048D400B5EEB5EEB4EEB3EED3EED3EED3EED3EE47
:1048E400D3EEB3EED3EED4EED3EED3E6D3E6D3E6F3
:1048F400B5EE17F737FF57FF74E60FB530BD12D684
:10490400F3D5E772414170C538FF087B0008666241
:10491400F6F6F9FFF6F674E6B5EE94EE94E695E64F
:10492400B4E6B4E656FFEDB4C1496FC515F7B4EE6D
:1049340093E693E6D4EEB3EEB4EEB4EEB4EEB4EE96
:10494400B4EED3EEB3EEB2EED3EED3EED3EED3EEBB
:10495400D2EED2EEB3EEB3EEB4EEB4EEB4EEB4E611
:10496400B4EEB4EEB4EEB4E6B4EEB4EEB4EEB4EE3B
:10497400B4EEB4EEB4EEB4EEB4EEB4EEB4EEB4EE23
:10498400B4EEB4EEB4EEB4EEB4EEB4EE74E6B5EE5A
:10499400D5EE16FF2A9CE2490EB557FFD5F6B4E6CC
:1049A400B4E6B4E6B4EEB4E6B4EEB4EEB4EEB4EE0B
:1049B400B4EEB4EEB4EEB3EEB4EEB5EEB5EEB4EEE2
:1049C400B5EEB5EEB4EED3EED3EED3EED3EED3EE36
:1049D400D3EED4EED4EED3EED4EED4EED3EED3EEC7
:1049E400D5EE0EB5C98B267B8141A028C030A149E4
:1049F400C351C03020188028287BF2D5A76A000054
:104A0400C45150C557FF58FF54DE33D6B5EED5EE2A
:104A1400D5EE94E616F7D0CDC1498CA477FF94E681
:104A240094E6B4E6B4EEB4EEB4EEB4EEB4EEB4EEA2
:104A3400D4EED3EEB3EEB2EEB3EED3EED2EED2EECC
:104A4400D2EED2EEB3EEB3EEB4EEB4EEB4EEB4EE18
:104A5400B4EEB4EEB4E6B4E6B4EEB4E6B4EEB4EE5A
:104A6400B4E6B4EEB4EEB4EEB4EEB4EEB4EEB4EE3A
:104A7400B4EEB4EEB4EEB4EED4EED5EE74E694E651
:104A840057FF93E6C56AC56A52DEF5EEB4EED4EE7E
:104A9400B4E693E6B4EEB4EEB4EEB4EEB4EEB4EE33
:104AA400D4EEB4E6B4EEB4E6B4EED5EEB5EEB5EEBF
:104AB400B5EEB5EED4EED3EED4EEB4EED3EED3EE43
:104AC400D3EED4EED3EEB3EED3EED3EED3EED3EEF9
:104AD4004B9CA1492039403902520773087B287B3B
:104AE4000873497B8A8B0352E351D2D594E68662DC
:104AF4000008A028ADA457FFF6F6B5E6D6EED5EE2D
:104B040095E654DE17F773DEE151CA8B78FF95E61C
:104B140094E6D5EE94E6B4EE94EEB4EEB4EEB4E6D8
:104B2400D3EEB3EEB3EE92EEB3EED3EED3EED2EE1B
:104B3400D2EEB2EEB3EEB3EEB3EEB4EEB3EEB3E652
:104B440093E6B4E6B4EED4EED4EEB4EEB4EEB4EE42
:104B5400D4EEB4EEB4EEB4EEB4E6B4E6B4EEB4EE31
:104B6400B4EEB4EEB4EEB4E6B4EED5F694EEB4EE30
:104B740077FFACAC225A8CACF5F693E6B4E6D4EEEF
:104B840093E6B4E6B4EEB4EEB4EEB4EEB4EEB4EE42
:104B940094EEB4EEB4EEB4EEB4EE74E694E6B4EE91
:104BA400B5EEB5EEB4EED3EED3EEB4EEB4EEB4EEB1
:104BB400D4EEB4EEB4EED4EEB4EEB3EEB4EED3EE83
:104BC400C249E67213DEF2D5B5EE17F7F6F6D7F65C
:104BD400D6EEB7EE17FFD6F654E6F3D5D6F637FF82
:104BE40030BD83416018888316F779FF76E6B5EE09
:104BF40054DE33DED6EEF5F68462045294E6D5EE46
:104C0400B5E6D5EE93E6B4EEB4EEB4EEB4E6B4EEA7
:104C1400D3EEB3EEB2EEB2EEB3EEB2EEB2E6B3EE74
:104C2400B3EEB2EEB2EEB3EE93EE93E693E652DE5B
:104C340052DEB4EEF5F6D4EE93E693E6B4EED4EE9B
:104C440093E693EE94EE94EE93EE94EE93E6B4EE44
:104C5400B4EEB4EEB3EEB4EEB4EED4F6B5EE57FF64
:104C6400D1D564624783B4EE15F7B3E6B3E6B4EE88
:104C7400B4EEB4EEB4EEB4EEB4EEB4EEB4EED4EE00
:104C840073E693EE93E6B4EEF5F693E673E6D4EEAC
:104C9400F4EE73E652DEB3E6B3EEB3EEB3EEB4EE87
:104CA400B4EEB4EEB4EEB3EEB3EEB3EEB4EEB4EEF3
:104CB400C149C56A37FFD9FF77FF17F7B5EE74E628
:104CC40095EEF7F6F7F637FF78FFB6EE96E658FF5F
:104CD400FAFF0C9C00000008E77275E69AFFD6EE16
:104CE40095E695EED6EE77FFCA8BE03070C578FF77
:104CF40095EE95E674E694EEB4EEB4EEB4EEB4E656
:104D0400D3EEB3EEB3EEB2EEB2EEB3EE93EE93EEB9
:104D140093EEB3EEB3EEB3EE93EE93E692E6B4E61F
:104D2400D4EE15F716F7D4F673E6B4EE36F7B4EE10
:104D340053E693E694EE94EE93EE94EE93EE94EEB3
:104D4400B4EEB3EEB3EEB4EEB4EE93E6F5F6F6F6E7
:104D5400267B425AB0CDF5F6D4EEB4EEB4EEB4EE02
:104D640093EEB4EEB4EEB4E6B4E6B4E6B4EEB4EE68
:104D740073DE73DE73E6D4EEB4EED5EEB3EEF4F682
:104D840015F7D4EE94EEB3EEB4EEB3EEB4EEB4EEA7
:104D940094EEB3EEB4EEB4EEB4EEB3EEB4EEB4EE21
:104DA400635A0008087316F7D9FFF6F6B5EEB5EEA8
:104DB400F6F6F8F6B6EEB5EEF6F6B5EE75E679FF6C
:104DC40095EEC351802002310008876A76E638FFE9
:104DD40037FFD6EE95EE17FF30BDC030898B58FFF4
:104DE40095E695E695EE74E6B4EEB4E6B4EEB4EE6C
:104DF400D3EEB3EEB3EE92E6B2EE92E692E6B3EE03
:104E0400B3EED3EEB2E692E6D3EE14F715F715F748
:104E140035FFF4F614F7F4EEB3E673DE73E694EEBE
:104E2400D5F6B4EE94EE94EE93EE94EE93EE94EE07
:104E3400B4EEB4E6B4EEB4EE94EEB4EE37FFEDB4F3
:104E4400C151C98BF5F6F5F6B3E6B4E6B4EE94EECB
:104E5400B4EEB4EEB4EEB4EE94EEB4EEB4EE73DEAF
:104E640052DEF5EEB4EEB4EED5EEF5EE12D60A94BB
:104E7400A98BF2D556FFB4EE94EEB4EEB3EEB4EED5
:104E8400B4EEB3EEB4EEB4EEB3EEB4EEB3EEB4EE11
:104E94004DB5E23000006662EEB455DE58FF57FFB0
:104EA40017F7D6F6F7F638FF38FF79FF58FF75E69F
:104EB400A66AA028ADAC95EEA8720008624130BD88
:104EC40058FF99FFB6EED6EEF7F6856A035A54E614
:104ED400D6EEB6E695E694E6B3EEB4EEB4EEB4EEF2
:104EE400D3EEB3EEB2EE92E6B2EEB2EEB2EEB3EEC3
:104EF400D3EEB3E672E672DE72E611D62EBD6AA474
:104F0400A88BE672C56A84624462235AE5726FC54F
:104F140016FFD4F694EE94EE94EE93E694EE94EEAB
:104F2400B4EEB4EEB4EEB4EEB4EE36FF32DE025AB2
:104F34004362D1CD15F7D4F694E6B4EEB4EEB4EEF4
:104F4400B4EEB4E6B4EEB4EEB3EEB4EED4EE94E65E
:104F540053DED5EE94E673E677FF73E688838041EB
:104F6400C028635A32D615F7B4EEB4EEB4E6B4EE04
:104F7400B4EEB4EEB4EEB4EEB4EEB4EEB4EEB4EE1D
:104F8400B7FF90C5823940180031035ACA8BEEB47A
:104F940091C5D2D513D614DE75E6B5EE2FBD824188
:104FA4000000698379FFDBFF19FF0D9CA0284018DE
:104FB400866AB2CD17FFB9FFFDFFAEB4003930BD2C
:104FC400BAFFD6E695E6B5EEB3E6B4E6B4EEB3EED4
:104FD400B4EEB3EE92E6B2EE92E6B2EEB2EED3EEF9
:104FE400D2EEB3E6B3EED0CD4B9C05738041602086
:104FF40000100010C0288141E151E251E5724EC514
:10500400B4EEB4EE94EE94EE93EE93EE93EEB4EE2F
:10501400B4EEB4EEB4EEB4EE16FFD5F668834041B8
:105024002CA4B5EED4EEB3EEB3E6B3E6B3EEB4EE31
:10503400B3EEB4E6B4E6B4E6B4EEB4EEB4EEB5EE74
:10504400B4EEB4E6B4EEF5F6F1D5E572C46A8FC5F4
:10505400C88B60398BA4F5F6D4EEB4EEB4EEB4EE9E
:10506400B3E6B4EEB4EE93E694EEB4EEB3EEB4EE7F
:1050740098FF15EF8FC5CDAC2A94635AE0304020D9
:105084006241445A60410039035AC25180282018B1
:10509400223970C578FFB6EE39FF59FF10BD634160
:1050A400000821390C9470BDAEAC8662000886629B
:1050B40095E617F7B6EEB5EE94E6D4EE93E6B4EEC5
:1050C400B4EEB3E692E692E692E6B2E6B2E692E691
:1050D40092E6D3EEF4F68EC5257B00528041C241A0
:1050E400A562098CAFCD52DE31DE31D653DEB4EE8B
:1050F400D4EE52E673E6B4EEB4EE93EE93EE93EE92
:10510400D3E6D4E693E6F4EEF5F64A9CA049C993B7
:1051140094EEB4EE73EE73E6B4EED4EED4EE94E60D
:10512400B4E6B4E6B4EEB4EE94EE94E6B4E694E6F3
:10513400D4EE52DED4EED4EE8783A462D1D598FFA8
:105144000A9CE1512DB5D5EED4EE93E672E6D4EE89
:10515400D4F6B4EED4EED4EED5EEB4EEB3EEB4EEB3
:10516400D5E6B5EEF6F637FF58FF17FF0EB5C35177
:105174004020A0414783E772E3510352487B90C526
:1051840052DE94E6B4EEB5E675E695EE58FF96EE7B
:10519400487B0008000020184020A249455A00100E
:1051A400A66A59FF59FF75E6D5EEF5F673E6B5EE36
:1051B400B4EE93E6B3E6B3EEB3EEB3EEB3EE51DE84
:1051C40051DE14F714F792E6CFCD8EC5AFC511D6D4
:1051D400D3E674F7D7FF76FF15F715F715F7F4EE56
:1051E400D3EE93E693E6D4EEB4EE73E672E672DEA3
:1051F40072DE72DEF5EE76FFACAC4039257B16FF2D
:10520400D9FF37FF94EE74E6D5F6B5F633DE54E6EF
:10521400B5EEB5EE94EEB5EE74E613DE73E6D4EEB9
:1052240052E6B4EE93E66B9CE572D1CDFAFFB0CDB5
:105234006362099C97FFF9FFB8FF15FF94EEB4EE83
:10524400B4EE73E694EEF5F6B4EE94EED4EEB4EE6A
:10525400B5EEB4EED5EEB5EEB5EEF6F657FF94EE38
:10526400487BA028888316F717F795E615F736F7D5
:1052740057FF15F7B4EE94E6B5EEF6EED6EEF8F673
:10528400B5EE2C9C802060182CA4B6EED6EEC76A2E
:105294004020EFAC9AFFD7EE94EEB5EEB4EED5EE27
:1052A400B4EEB3EEB3EEB3E6B3EEB3E6B3EEB2E60A
:1052B40092E692E692E6B3E6D3EE34F734FFF4F6E0
:1052C400B2EE91E691E6B2E6D3EED3EEB3E6D3EED8
:1052D400B3E614F7F4EE72DE72DE93E693E6B3E619
:1052E40072DE72DE76FF51D6435A0152467B0A9C27
:1052F400D2D557FF57FFF6F6B5EE54E674E694EEB2
:10530400B5F6B5EE33DE54E6B5EE94EE94EED4F68F
:10531400B3EEF4F64AA4015ACCB436FFD1D5836275
:10532400225AADACB1CD70BD90C512DE33DE73E64A
:10533400B5EEF5F6B4EE74E632DE53E6F5F6B4EE09
:10534400B5EEB5EEB5EEB5E6B5EEB5EEF6F6B9FFEB
:10535400F6F6277BA0288662B6EEBAFFB4E673E6BB
:1053640015F7B4EED3EEB3EEB4EEB5EEB6EE95E6C5
:10537400D6F658FF70C5CEAC17F717F717F738FFF6
:10538400A66AC030EEB436FFD6F674E6B4EE94E600
:10539400B4EEB3EE92E693E692E692E692E692E6F5
:1053A40091DE71DE71DE71DE71DE51DE72E6B3EE26
:1053B400D3EE92E651DE92E6D2EEB2E6B3EEB3EE6F
:1053C400B2EED3EEB3EE93E693E693E692DEB3E663
:1053D40055F734F7CFC5467BA4628FC5ECAC0031DA
:1053E400A030688B32DE57FFB5EE75EEB5F694EE5D
:1053F400D5F674E613DE53E694EEB5EEB4EEB4EEF1
:10540400B3EE6783425AABAC2EBD077B003920183C
:1054140000316041E0380031C020E0304141446255
:105424002B9C53DE16F7D5EE94E694EE94E6B4E6A0
:10543400B5EEB4EEB5EEB5EE95EEB5EEB5EEB4EE72
:1054440016F777FF2B9C0008287B58FF74E674E658
:1054540094E653DE93E6D4EE94E653DE93E6B5EE9B
:1054640074E617F799FF38FFB5EE54E695E678FF32
:1054740034DEA249C028EEB457FF37FFD6F674E6EF
:1054840073DE93E6B4EEB3EEB3EEB3EEB3EE92E6B0
:10549400B2E692E693E6B3E6B3E6B2EE92E672DEE5
:1054A40072E6B3E6F4EED3E6B3E6B3E6B3E6B2E609
:1054B40093E6B3E6B3E6B3EE51DE51DED4EE15EF78
:1054C40072DE4DB5E88B8783D0CD36FFF5EECDB4D3
:1054D400045A602840396CA4B5EE78FF17F7D5F666
:1054E40074EE53E695EEB5EE53E673DED5EEB4F600
:1054F4008BACC1518BAC76FF4BA4C251A56AA98B6E
:10550400E99BE8938BA46CA4E9936883A66A404161
:10551400802081418CA4B5EEF6F6B5EE94E6B3E6B0
:10552400B4EEB3EEB4EEB4EEB4EEB4EE93E693E6BA
:10553400F5F656FF77FFA98B60208DACD9FFD5EE29
:1055440012D6B3E6B3EEB3EEB3EEB3EEB2EEB4EE10
:1055540074E695EE74E633DEB5EEB5EED5EE94E67C
:10556400F6F653DE614100392EBD98FF78FFB5EEA3
:1055740012D652DEB3E693E693E693E693E6D3EED1
:10558400B3EE93E672E6B3E6F4EED4F6D3EEB3EEFE
:10559400B2EE92E692DE92DE93E693E672DE92DE5D
:1055A40092DE92DE93E6B3E6D3EE14F7B7FF51D65C
:1055B4008783E46AECACD3E635F773E6D4EE36FFC2
:1055C40052E6ADAC4462C030235A4CA433DE78FFBB
:1055D40057FFD4F6B5EE95E694E637F777FF2EBD80
:1055E400846AC98B94E6D5F612DEB4EE16F735FF5D
:1055F400F5FE16FF16FF36FF57FF77FF57FF73E6DA
:105604002B9CE03060392EBD16FF94EEB5EEB4EE5F
:10561400B4EEB4EEB4EEB4EEB4EE93E693E6F4F680
:10562400D4EE72DE97FFD6F6A341A020D1CD77FF4A
:1056340094E6D4EED4EEB2EED2EEF3EEF3EEB3EEA5
:1056440095E695E695E674E675E674E674E6B5EED9
:10565400D6F657FF91CD6241C028CEA457FF36FF3E
:10566400D5F693E673DE73DEB3EEB3EED3EE92DEDD
:1056740052DE72E672DE72DE73E693E693E672E65B
:1056840072E651DE31D672DE93DE72DED3E6D4EEFC
:1056940014F735F756FF76FF14F7D0CDCCAC8783DB
:1056A40045730CAD92DE35F7F4EE53E6D4EED4EE4A
:1056B40074E616FF95EEEA938141A030E251CA9355
:1056C4000FBD94EE57FFD6F6F6F654DEADACE251BC
:1056D400E572B4EE98FF73E6D5EE56FF15F7F4F6CF
:1056E400D5F6D5F6B5EE95EED5EED5EEF5F677FF13
:1056F40098FFEDB44039A883F5EED5EEB4EEB4EEE0
:10570400B4E6B4EEB4E6B4EEB4EEB4EEB4EEB4EE95
:1057140093E6B3E6B4EE17FF50BDE030C028EEB414
:1057240097FF36F7B4E6F4EE14F7B3EEF3EED3E6F0
:10573400B4EEB5EEB5EEB5EEB5EEB5EE95EE94EE8F
:1057440095EEB4EE98FFD2D5C1280008687B94E6A4
:1057540098FF57FFF6F694E694E652DE52DE73DEC7
:1057640093E6D3EE92E652DE52DE93E673E652DE21
:1057740073E693E693E692E651D693DE15F7B3E625
:1057840010D6AFCD2DB5499CC46AA041C049E88B61
:1057940031D635F7F4EE72DE93E6B4EEB4EEB4E649
:1057A40094EE94EEF6F637FF33DE0A9CE251A03015
:1057B400A02802526883EA93A98B035A2020E03080
:1057C4002EBDF9FF36FFB4EE94E694EE94EE94EE1B
:1057D40094EE94EEB4EE94E694EE94EE74E673E6EE
:1057E40056FFF6F6635A646232D636FFB5EEB4E677
:1057F400D3EEB3EEB3EED3EEB3EEB3EEB3EEB3EE5D
:10580400D3EEB3EEB4EEB4EED5EE4FBDC349A0284B
:10581400EB9395EE56FF15F715F7D3EE71E693E685
:10582400B4EEB4EEB4EEB4EEB4EEB4EE94E693EEAD
:1058340094EE94E6D5EE94E6F1CD85628020E351B2
:10584400A98B53DEB8FF98FF77FFD5EE94E6B5E653
:10585400B3E6B3EED4EED4EE93E693E693E693E6A2
:10586400B4E693E673E692E672DEB3E672DE6AA409
:105874008362A049C049A0410052C78BD0CDB3E692
:10588400F4EED3E6B3E6B3E6B4EEB4EEB4E6B4EEC7
:1058940095EE95EE94E6B4EED5F616F733DEEEB457
:1058A400AA8B0252E03040416041C56AA98B646A08
:1058B400E67271CD16FF16FFD6F694E673E6B4EEE3
:1058C40095EEB5F6D5F6D5F6D5F6B5EEB4EEB4EE5E
:1058D40016F774E6E672846253E6F5F694EEB4EED7
:1058E400D3EED3EED3EED3EED3EED3EED3EED3EEAC
:1058F400D3EED3EED3EE93E616F737FF54E6077BE9
:105904000008C66AB5EE57FF94E6B3EE92E692E657
:10591400B4EEB4EE94EEB4EEB4EE94E693E693E60D
:1059240093E693E673DE94E656FF72DE6CA4C151EF
:105934006018E3496883EEB474E616F717F716F7B0
:10594400F5EED4EE36F777FF15F7F4EE15EFF5EE36
:10595400D4E6B3E6D4EE93E693E6B3E631D60DB5DA
:10596400099CC88BCCAC8FC510D6F4F655F7F4EE71
:10597400B3E6B3DED4E6D4E673E694E6D4E6B4EE56
:1059840094EE95EE95EE74E654E6B5EE37FF58FFC7
:1059940016FF34DE70C5B1CDD1D574E657FFCEB451
:1059A400E03040410FBD36FFF6F617FF57FF36FFD4
:1059B40016FFD5F6B5F6F6F6B5EEB4EEF5EE36FF0F
:1059C40037FF4FBD225A888B17FFD5F693E6D4EEE6
:1059D400D2EEB3EED3EED3EED2EED3EED3EED3EEDD
:1059E400D3EEB2EED3EEB3EE73DE33DE17FFD6EEB4
:1059F400287B2018A66AB5F636FFF4EEB4EE93E6DB
:105A0400B4EEB4EEB4EEB4E6B4EE93E693E693DE0D
:105A140093DE93E693DED4E6D5EE37FF37FF53DE0D
:105A24004B9C62416020602020398562487B4B9CFE
:105A34000EB52EBDF1CD73DE73DE11D652DED4EE7B
:105A4400D4EEB3E694E693E6D4EEB4EE92E6B3E68F
:105A5400D3EE14F756FF15F7B3EEB3E693E693E6E9
:105A6400D4EED3E693E673DE73E6B4EED4E6B4EE96
:105A740095EE95EE95EED5EE74E633DE74E6B5EE6E
:105A8400B5EE78FF99FFD6EE37FF95EE16F7F6F6EA
:105A94006CA46041C030656206730C9C2EBDB0CD11
:105AA4004FC5EA9BC672477B8CA433DE57FF36F79B
:105AB40012D6A46AC04990CD37FFB5EE73E6B3E6BB
:105AC400D2EED2EED2EED2EED2EED2EED2EED2EED2
