:020000040800F2
:1000000000000220A53D0008A1240008A324000848
:10001000A5240008A7240008A92400080000000067
:10002000000000000000000000000000AB240008F9
:10003000AD24000800000000AF240008B12400082F
:10004000F53D0008F53D0008F53D0008F53D0008C8
:10005000F53D0008F53D0008F53D0008F53D0008B8
:10006000F53D0008F53D0008F53D0008F53D0008A8
:10007000F53D0008F53D0008F53D0008F53D000898
:10008000F53D0008F53D0008F53D0008F53D000888
:10009000F53D0008F53D0008F53D0008F53D000878
:1000A000F53D0008F53D0008F53D0008F53D000868
:1000B000F53D0008F53D0008F53D0008F53D000858
:1000C000F53D0008F53D0008F53D0008F53D000848
:1000D000F53D0008F53D0008F53D0008F53D000838
:1000E000F53D0008F53D0008F53D0008F53D000828
:1000F000F53D0008F53D0008F53D0008F53D000818
:10010000F53D0008F53D0008F53D0008F53D000807
:10011000F53D0008F53D0008F53D0008F53D0008F7
:10012000F53D0008F53D0008F53D0008F53D0008E7
:10013000F53D0008F53D0008F53D0008F53D0008D7
:10014000F53D0008F53D0008F53D0008F53D0008C7
:10015000F53D0008F53D0008F53D0008F53D0008B7
:10016000F53D0008F53D0008F53D0008F53D0008A7
:10017000F53D0008F53D0008F53D000800000000D1
:08018000F53D0008F53D000803
:1001C00010B5054C237833B9044B13B10448AFF391
:1001D00000800123237010BDB8090020000000003A
:1001E000A087000808B5034B1BB103490348AFF3D0
:1001F000008008BD00000000BC090020A0870008A6
:1002000053B94AB9002908BF00281CBF4FF0FF317D
:100210004FF0FF3001F0BEB8ADF1080C6DE904CE2F
:1002200000F006F8DDF804E0DDE9022304B07047D1
:100230002DE9F047089E0D4604468E46002B40F0FF
:1002400082808A42174646D9B2FA82F24AB1C2F196
:10025000200105FA02F320FA01F1974041EA030E6A
:1002600094404FEA1748230CBEFBF8FCB9B208FBD8
:100270001CEE43EA0E430CFB01F098420AD9FB182E
:100280000CF1FF3580F01681984240F21381ACF1F9
:10029000020C3B441B1AA4B2B3FBF8F008FB10336A
:1002A00044EA034400FB01F1A14209D93C1900F1E1
:1002B000FF3380F00181A14240F2FE8002383C44CD
:1002C000641A40EA0C4000211EB1D4400023C6E964
:1002D0000043BDE8F08702B9FFDEB2FA82F2002ADD
:1002E0004FD1CB1B4FEA174E1FFA87F80121B3FB02
:1002F000FEFC250C0EFB1C3345EA034508FB0CF302
:10030000AB4207D97D190CF1FF3002D2AB4200F2AB
:10031000E7808446ED1AA3B2B5FBFEF00EFB105544
:1003200043EA054408FB00F8A04507D93C1900F151
:10033000FF3302D2A04500F2D7801846A4EB080490
:1003400040EA0C40C0E78B4208D9002E00F0AF8095
:100350000021C6E900050846BDE8F087B3FA83F13D
:1003600000294BD1AB4202D3824200F2B780841AFB
:1003700065EB030301209E46002EAAD0C6E9004E7D
:10038000A7E7C2F1200C01FA02F3974020FA0CF023
:100390004FEA174E21FA0CFC1843BCFBFEF1050C8A
:1003A0000EFB11CC1FFA87F845EA0C4501FB08F358
:1003B000AB4204FA02F409D97D1901F1FF3C80F047
:1003C0008B80AB4240F2888002393D44EB1A85B203
:1003D000B3FBFEF00EFB103345EA034500FB08F3C8
:1003E000AB4207D97D1900F1FF3C71D2AB426FD906
:1003F00002383D44EB1A40EA014178E7C1F1200C94
:100400008B4022FA0CF71F4320FA0CF405FA01F393
:100410004FEA174E25FA0CF51C43230CB5FBFEF9E9
:100420001FFA87F80EFB195543EA054509FB08FA40
:10043000AA4502FA01F200FA01F308D97D1909F17F
:10044000FF3047D2AA4545D9A9F102093D44A5EBA1
:100450000A05A4B2B5FBFEF00EFB105544EA0544B4
:1004600000FB08F8A04507D93C1900F1FF352DD253
:10047000A0452BD902383C4440EA0940A4EB0804CB
:10048000A0FB02894C45C6464D4619D316D05EB135
:10049000B3EB0E0264EB050404FA0CFCCA404CEA10
:1004A0000202CC40C6E900240021BDE8F0873146B5
:1004B00030460EE7AC46EDE6184601E74345E6D286
:1004C000B8EB020E69EB07050138E0E72846D3E7F1
:1004D00060468FE78146BAE7614677E708464BE713
:1004E000ACF1020C3D4415E702383C4426E700BF5E
:1004F00003685A004CBF43F0004323F00043184404
:10050000704700BF2DE9F84329B34F1E0446154636
:100510003E464FF0000808EB060101EBD17149108F
:1005200004EBC1094846FFF7E3FF0346C800083063
:100530008F42204409D0AB4209D8FFF7D9FF0138D8
:10054000A8420AD201F10108E5E7AB4205D9884586
:1005500001D04E1EDFE74FF000094846BDE8F883A2
:10056000012807D0022807D0044B00280CBF1846EA
:10057000002070470248704702487047250C000869
:10058000290C00082D0C000830B5234B83B004461D
:100590008D1E3BB301A92846AFF30080E8B1019955
:1005A0002A46FFF7AFFF0146B8B1FFF7A1FF4B683E
:1005B000A064012B2BD0002B01F1040023DBFFF7FB
:1005C00097FF0023C4E913030368002B10DBFFF738
:1005D0008FFF2061002003B030BD0023092023617C
:1005E00003B030BD0D490E48091AC9100191D7E773
:1005F000C3F30360FFF7B4FF0028206114BF00209D
:10060000092003B030BD0123C4E91303DCE7002354
:1006100023610520DFE700BF000000005C8B0008BD
:100620008C8A00080368DA0710B5044606D49B07D5
:1006300000F1480009D500F04BFC2368590709D5A3
:100640001A070ED5DB0613D510BD00F039FC236860
:100650005907F5D404F1D00000F042FC23681A07D2
:10066000F0D404F5A87000F043FC2368DB06EBD45B
:1006700004F5E870BDE8104000F07EBC0346006859
:1006800000B11844704700BF09207047704700BF91
:1006900070B504460E46316C2046FFF775FF0546DF
:1006A00088B9336C6361324623692146012098473B
:1006B0000828F0D0072806D12846316CFFF7E6FF5E
:1006C000301D00F0F1FB03F097FB00BF2DE9F04770
:1006D0000D1D064614460FCDADF5727D0DF10C0CC7
:1006E000ACE80F000FCDACE80F000FCDACE80F0069
:1006F00095E80F0002ADF768D6F818808CE80F0077
:1007000000232B6021E02B6C73614FF4F0722946BB
:100710007AA800F041FE33697AAA314650469847DC
:10072000889BCDE9005821466B64814633463246AA
:100730000120B8470446E8B94FF4F0727AA9284678
:1007400000F02AFEB9F1080F1BD1296C3046FFF7E3
:100750001BFF09345FFA84FA81460028D3D0AB6BC3
:100760004AF01001CDE9005832466B64012033464F
:10077000B84708B14FF0090948460DF5727DBDE84C
:10078000F087B9F1070FF5D12046296CFFF77EFFFE
:1007900003A800F089FB00BF406C7047F0B5CB6B3D
:1007A0000B640E1D0F4605460FCEF9B001AC0FC409
:1007B0000FCE0FC40FCE0FC496E80F004FF0FF36D8
:1007C00084E80F00009606E02B696A4629469847A0
:1007D0000828044608D110992846FFF7D5FE0028BE
:1007E000F2D0092079B0F0BD6846FFF71BFF062C58
:1007F000F7D139462846FFF74BFF00BF30B4DD6B19
:10080000C160826119461D64002230BC5EE700BFF2
:1008100070B5C66843690B64AEB903690A460446FD
:100820000D46014602209847072805D008280FD119
:1008300029462046FFF72CFF3046296CFFF726FF9C
:10084000281D00F031FB0122FFF740FF03F0D4FA2E
:1008500003F0D2FAC2681AB1CA6B0A64002235E703
:100860009CE700BF704700BF836801460BB10120C1
:1008700018477047012912D009D873B90F2A0CD82C
:1008800000EB820218465368009A136070470339E0
:10089000012994BF012002207047022070470846BA
:1008A000704700BF10B584B0002303AC0A46009423
:1008B0001946FFF7DFFF039804B010BD012912D0DD
:1008C00009D873B90F2A0CD800EB8200009A12687D
:1008D0004260184670470339012994BF0120022065
:1008E0007047022070470846704700BF10B584B0BB
:1008F000002303AC039200940A461946FFF7DEFF7B
:1009000004B010BDF0B5D36B1364151D8C460646BC
:100910000FCDADF50F7D17AC0FC40FCD0FC40FCDAC
:100920000FC495E80F004FF0FF3784E80F006546CD
:10093000169710E0FFF7DAFF294616A8B0470346DE
:1009400016AA6946082083B9049B984705280446DF
:100950000CD0092809D026996846FFF715FE0346F2
:100960006A460C2116A8002BE4D0092416A8FFF72C
:1009700059FE20460DF50F7DF0BD00BF2DE9F04F6B
:10098000CC6C89B00D4654F8041B0694174600F051
:1009900003081E46002B79D00B0CDAB209048DF83F
:1009A0001D30022304EB820405918DF81C302B6D61
:1009B000B8F1020F08BFAC6B13F001030CD038463E
:1009C00005A900F073FB18B9082009B0BDE8F08F45
:1009D000092009B0BDE8F08FD4F800A0BAF1000FEB
:1009E000EDD0019300F008030293022E4AD0B4F830
:1009F00000A0B4F802900434AA6C29F0010B0F2176
:100A000038469344FFF74EFF834539D82AF0010258
:100A10005A44824294BF002001204FEA490303F068
:100A200002030AF0010A43EA0A03012B49D0022B10
:100A300032D0002BCCD1B8F1000F02D0002840F00A
:100A4000CD800434D4F800A0BAF1000FCDD105A9AF
:100A5000384600F02BFB0028BAD1019B002BB3D005
:100A60000F213846FFF71EFF0E2102463846FFF7DA
:100A70003DFF38466A4A0F21FFF738FF0720A8E7F5
:100A80000020CAE7D4F804900834B5E7090203232C
:100A90000591ADF81C308AE7236823F0004BB8F1CC
:100AA000000F45D128B1029A002A5CD0BBF1000F9B
:100AB00074D0002B00DA04340BF1010B04EB8B042F
:100AC000C0E7B8F1000F19D1B0B1D4E90023991CE7
:100AD0004FEAD2723FF47CAF05F158010133049123
:100AE00000F09080201DFFF7C9FD04AB01462846A9
:100AF000AFF3008000285BD10834A3E70D2138460E
:100B0000D5F82090FFF7CEFE8145F5D1AB6A9C4227
:100B1000F2D12046FFF7ECFC0F2102463846FFF7E2
:100B2000E5FE38462A460021FFF7E0FE072050E7A1
:100B30000D213846D5F82090FFF7B4FE814501D04D
:100B40002368B6E7AB6A9C42FAD104220021C5E9CA
:100B50000B12A318C5F828B06B6323688B4259DBCE
:100B600001230193A8E705F15803CDF80C8004F1A7
:100B7000040AB04691461E460DE00496FFF77EFD3E
:100B800004AB014600222846AFF3008009F10109B9
:100B90000AF1040AE8B9D9455046EED138460D218C
:100BA000FFF780FE049B2862C5E90934062010E7A0
:100BB00081460D213846FFF775FEB9F1020F286214
:100BC00025D12B46049A43F82C2F6B62AC62062089
:100BD000FFE646462368DDF80C806AE72046FFF70B
:100BE00087FC04340246AC6328461446AFF3008009
:100BF00000283FF4EDAE384622460F21FFF776FE7F
:100C00000720E6E638460D21FFF74CFE2862049BDC
:100C10006B62DBE70BF1010004EB80007AE700BFB9
:100C2000000000000023A9E60123A7E60223A5E6B1
:100C30002DE9F0430646C3B015461C46042900F2D0
:100C4000B980DFE801F09A53B7290300002C40F087
:100C5000B180102A00F2AE800368D80600F1F3805C
:100C600020AF384600F092F9B06B0023012404FA5B
:100C700003F22A42014604D051F8042B47F82320FE
:100C800008460133042BF2D1B063384600F074F902
:100C9000002043B0BDE8F083032C40F08B8094B279
:100CA00004EB1243102B4FEA124500F283800368D5
:100CB0001F0700F1D08020AF384600F03BF907EB6A
:100CC000C501B56B54B10B46E81A01EBC401E40051
:100CD0001A5843F8042B8B42FAD125443846B563A1
:100CE00000F006F9002043B0BDE8F083012C4FEA84
:100CF000124895B25AD0052C5CD108EB0509B9F120
:100D0000200F57D8B8F10F0F77D9A946002D40F022
:100D10008880B36B6DB320AF4FF0000907EBC807B5
:100D2000043F03EBC50553F8041B47F8041FAB420F
:100D3000F9D1B9F1000F0FD06F464146102938BFE5
:100D4000102107EBC101843903EBC90553F8040BEB
:100D500041F8040FAB42F9D1012C00F08480B8F1C6
:100D60000F0FB56345D9B9F1000F02D0684600F006
:100D7000B7F8002043B0BDE8F083DCB9876B2346A9
:100D8000012094B206F1040C00FA03F22242394623
:100D900004D051F8042B4CF823200F460133102BBC
:100DA000F2D115F40050E4D1B76304E008EB050379
:100DB000102B03D9022043B0BDE8F083B8F10F0F28
:100DC000F8D83368DA0706D5304623F0030340F835
:100DD000483B00F079F820AF384600F075F8B36B67
:100DE000002D99D11D460435B563384600F068F8EA
:100DF000BFE720A800F06CF8B5E7B9F1100F40D9B3
:100E0000A9F110093368D90708D523F0010330464A
:100E100043F0020340F8483B00F05EF8B9F1000FE0
:100E200032D033685A0720D4B8F10F0F25D96F4656
:100E30003846C8F1100500F057F8002DB36B7FF766
:100E40007CAF20AF6AE723F01003336006F5E8704B
:100E500000F09CF804E723F00803036000F5A87095
:100E600000F068F827E720AFBDE7304623F0040321
:100E700040F8D03B00F038F8D6E720A800F02CF876
:100E8000D5E74FF00009BDE7B8F10F0F3FF641AFCE
:100E900020AF384600F020F8B36B002D7FF43CAF54
:100EA000384600F015F864E700F1340191E83800A5
:100EB0009C46A6464CF8045D90E8FF0FE54600BD51
:100EC00090EC210B704700BF80EC210B704700BFF6
:100ED00090EC200B704700BF80EC200B704700BFE8
:100EE000D0EC200B704700BFC0EC200B704700BF58
:100EF000F0EC0201F0EC0211F0EC0221F0EC023116
:100F0000F0EC0241F0EC0251F0EC0261F0EC027105
:100F1000F0EC0281F0EC0291F0EC02A1F0EC02B1F5
:100F2000F0EC02C1F0EC02D1F0EC02E1F0EC02F1E5
:100F3000704700BFE0EC0201E0EC0211E0EC02219E
:100F4000E0EC0231E0EC0241E0EC0251E0EC026145
:100F5000E0EC0271E0EC0281E0EC0291E0EC02A135
:100F6000E0EC02B1E0EC02C1E0EC02D1E0EC02E125
:100F7000E0EC02F1704700BFB0FC0181B0FC0191D0
:100F8000B0FC01A1B0FC01B1704700BFA0FC018121
:100F9000A0FC0191A0FC01A1A0FC01B1704700BF21
:100FA000EC4600B52DE900502DE9FF1F4FF000037E
:100FB0002DE90C0001A9FFF7F1FBDDF840E012B0CC
:100FC000704700BFEC4600B52DE900502DE9FF1F2A
:100FD0004FF000032DE90C0001A9FFF719FCDDF823
:100FE00040E012B0704700BFEC4600B52DE900505C
:100FF0002DE9FF1F4FF000032DE90C0001A9FFF7B9
:1010000029FCDDF840E012B0704700BFEC4600B5A7
:101010002DE900502DE9FF1F4FF000032DE90C00D2
:1010200001ABFFF7EBFBDDF840E012B0704700BF0B
:10103000EC4600B52DE900502DE9FF1F4FF00003ED
:101040002DE90C0001AAFFF75DFCDDF840E012B0CD
:10105000704700BF027A7AB9437AA3B14268013B74
:1010600010B4437213680321141D01721A02446004
:10107000026010BC180E70470368013A02721A022F
:101080000260180E7047B020704700BF00B585B0F1
:1010900003AA0023009219460C22FFF7EBFB0398EA
:1010A00005B05DF804FB00BFF0E700BF2DE9F04399
:1010B000054685B00E464FF000083046FFF7CAFFE0
:1010C000B028044600F0B280070620D500F0F003F7
:1010D000802B4DD0902B36D0A02B60D0B02B74D06D
:1010E000C02B00F08B8000F0F803D02B0BD100F068
:1010F0000702013242F40022052301212846FFF7AE
:1011000097FD0028D9D0092005B0BDE8F0830DF186
:101110000C09002319468700CDF800900D222846BF
:10112000FFF7A8FBFFB2039BCDF8009004376006E1
:101130004CBFDF1BFF18002319460D2228460397DA
:10114000FFF7BCFBB9E700F00D030D2BDBD003AFBD
:10115000002300F00F02194600972846FFF78AFB8C
:101160000023009719460D222846FFF7A7FBA4E7A6
:101170003046FFF76FFF24022043B0F5004FC2D086
:1011800004010023A2B219462846FFF751FD0028AA
:10119000B9D114F4004F18BF4FF001088DE7C243D6
:1011A00002F007034FF47F621A41010702F47F62E5
:1011B0004FF0000348BF42F4804219462846FFF72B
:1011C00037FD00283FF479AF9DE7B12833D0B2282E
:1011D00000F08B80B32839D000F0FC03B42B92D000
:1011E00000F007020132012342F40022194628468A
:1011F000FFF71EFD00283FF460AF84E7C62842D009
:10120000C7284CD000F0F803C02B5BD0C82860D0B2
:10121000C9287FF478AF3046FFF71CFF020300F0C7
:101220000F0002F470220130024365E7B8F1000FAD
:1012300018D0002068E73046FFF70CFF0246002870
:101240003FF461AF10F0F003D0D05CE73046FFF719
:1012500001FF010300F00F0001F47021421C012383
:101260000A43C3E703AC43460E2241460094284696
:10127000FFF700FB0094284643460F224146FFF744
:101280001DFB404640E73046FFF7E4FE010300F057
:101290000F0001F47021421C03230A43A6E73046E5
:1012A000FFF7D8FE024600283FF42DAF10F0F00300
:1012B0007FF429AF04212846FFF7BAFC00283FF449
:1012C000FCAE20E700F00F020132032342F420229B
:1012D0008CE73046FFF7BEFE00F0F00200F00F038F
:1012E0001032013343EA023206E700230DF10C0904
:1012F0000D221946CDF800902846FFF7BBFA30467C
:10130000FFF7A8FE02064FF002070CD5039B00F082
:101310007F00B840034430460393FFF79BFE03066B
:1013200007F10707F2D4039BCDF8009000F07F048B
:1013300003F50172BC400023144419460D222846CF
:101340000394FFF7BBFAB8E610B5C26C84B05368DB
:1013500003248DF80C401B0202F108040846D279E0
:10136000019301A902948DF80D20FFF79FFE04B0B0
:1013700010BD00BF08B5FFF797FE806C08BD00BF29
:1013800008B5FFF791FEC06CC379023300EB830010
:1013900008BD00BF704700BF844641EA000313F058
:1013A00003036DD1403A41D351F8043B40F8043B6C
:1013B00051F8043B40F8043B51F8043B40F8043B2F
:1013C00051F8043B40F8043B51F8043B40F8043B1F
:1013D00051F8043B40F8043B51F8043B40F8043B0F
:1013E00051F8043B40F8043B51F8043B40F8043BFF
:1013F00051F8043B40F8043B51F8043B40F8043BEF
:1014000051F8043B40F8043B51F8043B40F8043BDE
:1014100051F8043B40F8043B51F8043B40F8043BCE
:1014200051F8043B40F8043B403ABDD2303211D36E
:1014300051F8043B40F8043B51F8043B40F8043BAE
:1014400051F8043B40F8043B51F8043B40F8043B9E
:10145000103AEDD20C3205D351F8043B40F8043B6E
:10146000043AF9D2043208D0D2071CBF11F8013B6C
:1014700000F8013B01D30B8803806046704700BF32
:10148000082A13D38B078DD010F003038AD0C3F141
:101490000403D21ADB071CBF11F8013B00F8013B23
:1014A00080D331F8023B20F8023B7BE7043AD9D3E2
:1014B000013A11F8013B00F8013BF9D20B780370B7
:1014C0004B7843708B788370604670470000000053
:1014D000000000000000000000000000000000000C
:1014E00000000000000000000000000000000000FC
:1014F00000000000000000000000000000000000EC
:1015000090F800F06DE9024520F007016FF0000C43
:1015100010F0070491F820F040F049804FF00004EB
:101520006FF00700D1E9002391F840F000F10800C6
:1015300082FA4CF2A4FA8CF283FA4CF3A2FA8CF3FE
:101540004BBBD1E9022382FA4CF200F10800A4FA65
:101550008CF283FA4CF3A2FA8CF3E3B9D1E90423B9
:1015600082FA4CF200F10800A4FA8CF283FA4CF3F0
:10157000A2FA8CF37BB9D1E9062301F1200182FAAA
:101580004CF200F10800A4FA8CF283FA4CF3A2FAB0
:101590008CF3002BC6D0002A04BF04301A4612BABE
:1015A000B2FA82F2FDE8024500EBD2007047D1E9C1
:1015B000002304F00305C4F100004FEAC50514F050
:1015C000040F91F840F00CFA05F562EA05021CBF21
:1015D00063EA050362464FF00004A9E7000000003B
:1015E00001F0FF01102A2BDB10F0070F08D010F8D4
:1015F000013B013A8B422DD010F0070F42B3F6D1D8
:10160000F0B441EA012141EA014122F007047FF0F0
:1016100000070023F0E80256083C85EA010586EA47
:10162000010685FA47F5A3FA87F586FA47F6A5FA83
:1016300087F68EB9EED1F0BC01F0FF0102F007028F
:1016400032B110F8013B013A83EA010313B1F8D13A
:101650000020704701387047002D06BF354603381B
:10166000073815F0010F07D1013015F4807F02BF54
:10167000013015F4C03F0130F0BC0138704700BFA5
:1016800081F0004102E000BF83F0004330B54FEA33
:1016900041044FEA430594EA050F08BF90EA020FA0
:1016A0001FBF54EA000C55EA020C7FEA645C7FEA33
:1016B000655C00F0E2804FEA5454D4EB5555B8BF56
:1016C0006D420CDD2C4480EA020281EA030382EAC7
:1016D000000083EA010180EA020281EA0303362D59
:1016E00088BF30BD11F0004F4FEA01314FF4801C2C
:1016F0004CEA113102D0404261EB410113F0004F3E
:101700004FEA03334CEA133302D0524263EB4303F4
:1017100094EA050F00F0A780A4F10104D5F1200E92
:101720000DDB02FA0EFC22FA05F2801841F10001ED
:1017300003FA0EF2801843FA05F359410EE0A5F1C1
:1017400020050EF1200E012A03FA0EFC28BF4CF0F2
:10175000020C43FA05F3C01851EBE37101F00045A8
:1017600007D54FF0000EDCF1000C7EEB00006EEBB5
:101770000101B1F5801F1BD3B1F5001F0CD349083F
:101780005FEA30004FEA3C0C04F101044FEA445296
:1017900012F5800F80F09A80BCF1004F08BF5FEA1D
:1017A000500C50F1000041EB045141EA050130BDFD
:1017B0005FEA4C0C404141EB0101013C28BFB1F50F
:1017C000801FE9D291F0000F04BF01460020B1FA5A
:1017D00081F308BF2033A3F10B03B3F120020CDA2D
:1017E0000C3208DD02F1140CC2F10C0201FA0CF00B
:1017F00021FA02F10CE002F11402D8BFC2F1200C70
:1018000001FA02F120FA0CFCDCBF41EA0C01904025
:10181000E41AA2BF01EB0451294330BD6FEA04046E
:101820001F3C1CDA0C340EDC04F11404C4F1200259
:1018300020FA04F001FA02F340EA030021FA04F36B
:1018400045EA030130BDC4F10C04C4F1200220FAC2
:1018500002F001FA04F340EA0300294630BD21FA00
:1018600004F0294630BD94F0000F83F4801306BFC6
:1018700081F480110134013D4EE77FEA645C18BFBA
:101880007FEA655C29D094EA050F08BF90EA020F51
:1018900005D054EA000C04BF1946104630BD91EA49
:1018A000030F1EBF0021002030BD5FEA545C05D14C
:1018B0004000494128BF41F0004130BD14F580048B
:1018C0003CBF01F5801130BD01F0004545F0FE41FF
:1018D00041F470014FF0000030BD7FEA645C1ABF34
:1018E000194610467FEA655C1CBF0B46024650EA6B
:1018F000013406BF52EA033591EA030F41F4002197
:1019000030BD00BF90F0000F04BF0021704730B51C
:101910004FF4806404F132044FF000054FF00001F1
:1019200050E700BF90F0000F04BF0021704730B5B2
:101930004FF4806404F1320410F0004548BF404287
:101940004FF000013EE700BF42004FEAE2014FEADC
:1019500031014FEA02701FBF12F07F4393F07F4FB7
:1019600081F06051704732F07F4208BF704793F0BA
:101970007F4F04BF41F40021704730B54FF46074CD
:1019800001F0004521F000411CE700BF50EA0102D0
:1019900008BF704730B54FF000050AE050EA010279
:1019A00008BF704730B511F0004502D5404261EBE9
:1019B00041014FF4806404F132045FEA915C3FF42A
:1019C000D8AE4FF003025FEADC0C18BF03325FEAC7
:1019D000DC0C18BF033202EBDC02C2F1200300FA78
:1019E00003FC20FA02F001FA03FE40EA0E0021FA9D
:1019F00002F11444BDE600BF70B54FF0FF0C4CF48B
:101A0000E06C1CEA11541DBF1CEA135594EA0C0F3C
:101A100095EA0C0F00F0DEF82C4481EA030621EA77
:101A20004C5123EA4C5350EA013518BF52EA0335B2
:101A300041F4801143F4801338D0A0FB02CE4FF064
:101A40000005E1FB02E506F00042E0FB03E54FF094
:101A50000006E1FB03569CF0000F18BF4EF0010E8C
:101A6000A4F1FF04B6F5007F64F5407404D25FEA88
:101A70004E0E6D4146EB060642EAC62141EA55513B
:101A80004FEAC52040EA5E504FEACE2EB4F1FD0C7D
:101A900088BFBCF5E06F1ED8BEF1004F08BF5FEAFB
:101AA000500E50F1000041EB045170BD06F00046AD
:101AB00046EA010140EA020081EA0301B4EB5C045A
:101AC000C2BFD4EB0C0541EA045170BD41F4801152
:101AD0004FF0000E013C00F3AB8014F1360FDEBF77
:101AE000002001F0004170BDC4F10004203C35DA53
:101AF0000C341BDC04F11404C4F1200500FA05F3D6
:101B000020FA04F001FA05F240EA020001F0004276
:101B100021F0004110EBD37021FA04F642EB0601EC
:101B20005EEA430E08BF20EAD37070BDC4F10C0416
:101B3000C4F1200500FA04F320FA05F001FA04F2DA
:101B400040EA020001F0004110EBD37041F10001C6
:101B50005EEA430E08BF20EAD37070BDC4F12005D1
:101B600000FA05F24EEA020E20FA04F301FA05F239
:101B700043EA020321FA04F001F0004121FA04F2E1
:101B800020EA020000EBD3705EEA430E08BF20EAB1
:101B9000D37070BD94F0000F0FD101F000464000EB
:101BA00041EB010111F4801F08BF013CF7D041EA6D
:101BB000060195F0000F18BF704703F00046520071
:101BC00043EB030313F4801F08BF013DF7D043EA42
:101BD0000603704794EA0C0F0CEA135518BF95EAF8
:101BE0000C0F0CD050EA410618BF52EA4306D1D17F
:101BF00081EA030101F000414FF0000070BD50EA9E
:101C0000410606BF1046194652EA430619D094EA27
:101C10000C0F02D150EA013613D195EA0C0F05D111
:101C200052EA03361CBF104619460AD181EA030165
:101C300001F0004141F0FE4141F470014FF000001D
:101C400070BD41F0FE4141F4780170BD70B54FF0B8
:101C5000FF0C4CF4E06C1CEA11541DBF1CEA135538
:101C600094EA0C0F95EA0C0F00F0A7F8A4EB05041A
:101C700081EA030E52EA03354FEA013100F0888011
:101C80004FEA03334FF0805545EA131343EA1263DA
:101C90004FEA022245EA111545EA10654FEA00268F
:101CA0000EF000419D4208BF964244F1FD0404F548
:101CB000407402D25B084FEA3202B61A65EB0305A4
:101CC0005B084FEA32024FF480104FF4002CB6EB61
:101CD000020E75EB030E22BFB61A754640EA0C00E1
:101CE0005B084FEA3202B6EB020E75EB030E22BF21
:101CF000B61A754640EA5C005B084FEA3202B6EB62
:101D0000020E75EB030E22BFB61A754640EA9C0020
:101D10005B084FEA3202B6EB020E75EB030E22BFF0
:101D2000B61A754640EADC0055EA060E18D04FEAAE
:101D3000051545EA16754FEA06164FEAC30343EA4E
:101D400052734FEAC2025FEA1C1CC0D111F4801F1B
:101D50000BD141EA00014FF000004FF0004CB6E714
:101D600011F4801F04BF01430020B4F1FD0C88BFB3
:101D7000BCF5E06F3FF6AFAEB5EB030C04BFB6EBBE
:101D8000020C5FEA500C50F1000041EB045170BDB1
:101D90000EF0004E4EEA113114EB5C04C2BFD4EBDE
:101DA0000C0541EA045170BD41F480114FF0000E62
:101DB000013C90E645EA060E8DE60CEA135594EADE
:101DC0000C0F08BF95EA0C0F3FF43BAF94EA0C0FE1
:101DD0000AD150EA01347FF434AF95EA0C0F7FF456
:101DE00025AF104619462CE795EA0C0F06D152EAAA
:101DF00003353FF4FDAE1046194622E750EA41068E
:101E000018BF52EA43067FF4C5AE50EA41047FF49E
:101E10000DAF52EA43057FF4EBAE12E74FF0FF3C03
:101E200006E000BF4FF0010C02E000BF4FF0010CD4
:101E30004DF804CD4FEA410C7FEA6C5C4FEA430C4D
:101E400018BF7FEA6C5C1BD001B050EA410C0CBF9C
:101E500052EA430C91EA030F02BF90EA020F0020FE
:101E6000704710F1000F91EA030F58BF994208BF65
:101E700090422CBFD8176FEAE37040F00100704722
:101E80004FEA410C7FEA6C5C02D150EA013C07D179
:101E90004FEA430C7FEA6C5CD6D152EA033CD3D0C4
:101EA0005DF8040B704700BF8446104662468C46BE
:101EB0001946634600E000BF01B5FFF7B7FF0028F1
:101EC00048BF10F1000F01BD4DF808EDFFF7F4FF1A
:101ED0000CBF012000205DF808FB00BF4DF808EDA5
:101EE000FFF7EAFF34BF012000205DF808FB00BFC8
:101EF0004DF808EDFFF7E0FF94BF012000205DF8EA
:101F000008FB00BF4DF808EDFFF7CEFF94BF01209E
:101F100000205DF808FB00BF4DF808EDFFF7C4FF97
:101F200034BF012000205DF808FB00BF4FEA410CE0
:101F30007FEA6C5C02D150EA013C0AD14FEA430CC3
:101F40007FEA6C5C02D152EA033C02D14FF0000000
:101F500070474FF0010070474FEA410212F500123E
:101F600015D211D56FF47873B3EB625212D94FEAE0
:101F7000C12343F0004343EA505311F0004F23FACA
:101F800002F018BF404270474FF00000704750EA1F
:101F9000013005D111F0004008BF6FF000407047DC
:101FA0004FF00000704700BF234B1B6803B1704720
:101FB0002DE9F04186B0204B01221A6000240094E4
:101FC0001E4B9A6B42F001029A639B6B03F0010374
:101FD0000093009B4FF48058CDF8048002270297AD
:101FE0000394032604960C25059501A9144800F0D6
:101FF00033FD4FF680730193029703940496059581
:1020000001A9104800F028FD4CF2337301930297A8
:1020100003940496059501A90B4800F01DFDCDF829
:102020000480029703940496059501A9074800F0DF
:1020300013FD06B0BDE8F081D4090020003802404D
:102040000014024000100240000C02400018024040
:1020500030B58FB01B484FF02043036003F5827307
:102060004360062383600023C36003611022426142
:102070008361C361036243624FF480518162C36232
:102080004FF4804101634363836343640F210791ED
:1020900008913C2409940A930B9211240C940D93FB
:1020A00003250095019102950393049205940693EC
:1020B0006A4607A901F0DEF908B90FB030BD00F09B
:1020C0003FF9FAE7D809002030B58FB01C484FF02F
:1020D0002043036003F5827343600623836000237B
:1020E000C3600361102242618361C3610362436282
:1020F0004FF480518162C3624FF4804101634363B6
:10210000836343640F21079108913C2409940A9347
:102110000B9211240C940D9309250095019108212F
:10212000029103930492059406936A4607A901F06D
:10213000A1F908B90FB030BD00F002F9FAE700BF0D
:10214000D809002008B5FFF72FFF08BD2DE9F041A1
:102150008EB0002409940A940B940C940D9401946D
:10216000474B1A6B42F004021A631A6B02F0040226
:102170000192019A02941A6B42F080021A631A6B60
:1021800002F080020292029A03941A6B42F0020259
:102190001A631A6B02F002020392039A04941A6BF8
:1021A00042F020021A631A6B02F020020492049A91
:1021B00005941A6B42F010021A631A6B02F01002B7
:1021C0000592059A06941A6B42F008021A631A6B7C
:1021D00002F008020692069A07941A6B42F0010276
:1021E0001A631A6B02F001020792079A08941A6B9D
:1021F00042F040021A631B6B03F040030893089BF4
:10220000DFF8888022464FF40051404600F015FD6B
:102210001C4E224648F20101304600F00EFD1A4FD6
:1022200022464FF40061384600F007FD4FF400539A
:10223000099301250A950B940C9409A9404600F0D6
:102240000BFC48F2010309930A950B940C9409A91D
:10225000304600F001FC062309930A940B9409A967
:10226000304600F0F9FB4FF4006309930A950B9494
:102270000C9409A9384600F0EFFB0EB0BDE8F081E0
:1022800000380240000402400014024000080240EE
:1022900008B50B480B4B03600B4B43600023836076
:1022A000C3604FF48042026143618361C361036292
:1022B00000F0CAFC00B908BD00F042F8FBE700BF1F
:1022C000280A002000540040A086010030B589B0E3
:1022D0000023039304930593069307930268154B19
:1022E0009A4201D009B030BD00250195124C236BF4
:1022F00043F002032363236B03F002030193019B6A
:102300004FF4407303931223049301230593032393
:1023100006930423079303A9084800F09DFB029548
:10232000236C43F400132364236C03F4001302931F
:10233000029BD7E7005400400038024000040240EE
:1023400072B6FEE700B595B03022002108A801F072
:1023500085FD00230393049305930693079301934C
:10236000204A116C41F080511164126C02F08052CD
:102370000192019A02931C4B1A6842F480421A603F
:102380001B6803F480430293029B012308934FF4DC
:102390008033099302220E924FF480030F9304239B
:1023A0001093A82111911292139308A800F02AFD0E
:1023B00098B90F23039302230493002305934FF44A
:1023C000A05306934FF480530793052103A800F010
:1023D0007BFF20B915B05DF804FBFFF7B1FFFFF7F5
:1023E000AFFF00BF003802400070004008B500F0A9
:1023F00097FAFFF7A7FFFFF7A9FEFFF765FE00F0CA
:1024000015FAFFF745FF01F07DFB00F029F8FEE724
:1024100070B588B000F004FA0EE00E4B5B880E49F0
:10242000684602F0DDF86846FFF76AF8FF2382B2DB
:1024300069460A4801F039F9064C2588668800206B
:1024400000F0E2F92288AA42E7D16388B342E4D1DE
:10245000F2E700BF800A0020B8870008840A002045
:1024600008B5FFF7D5FF000082B0002100910B4BAB
:102470005A6C42F480425A645A6C02F480420092D0
:10248000009A01911A6C42F080521A641B6C03F09E
:1024900080530193019B02B0704700BF0038024097
:1024A000FEE7FEE7FEE7FEE7FEE77047704770478E
:1024B00008B500F04FFA08BD0120704708B501F0DB
:1024C000A3FC162303604FF0FF3008BD08B54FF0A2
:1024D000FF31FFF7F3FFFEE708B503460B4A12682A
:1024E00042B10A4A106803446A46934206D8074A32
:1024F000136008BD054A06491160F2E701F084FC4B
:102500000C2303604FF0FF30F3E700BF7C0A00208C
:10251000380B0020704700880B88C01A70470000F5
:1025200008B501224FF40051014800F086FB08BDB8
:102530000008024008B500224FF40051014800F0A5
:102540007CFB08BD0008024008B501224FF4006181
:10255000014800F072FB08BD0014024008B50022DB
:102560004FF40061014800F068FB08BD0014024010
:1025700008B501221146024800F05FFB08BD00BF0C
:102580000004024008B500220121024800F055FB7A
:1025900008BD00BF0004024008B50421034800F054
:1025A00045FB012814BF0020012008BD00040240A3
:1025B00008B50221034800F039FB012814BF0020B0
:1025C000012008BD0004024030B583B00190019B9A
:1025D000B3F5617F2CD8204B9C6800F025FF1F4D80
:1025E000A5FB0035AD0C019B03FB15452A46002DCC
:1025F00020DB194B9B689C4201DD9A42F9DD03B058
:1026000030BD4FF46170FFF7DFFF0134019B144AC6
:10261000A2FB0323B4EB532FF3D3019A104BA3FB7C
:1026200002135B0A4FF4617101FB13230193D2E79C
:102630000024EBE700F0F8FE084BA3FB00239B0C03
:102640004FF47A7202FB0355034B9B689C42FBDA02
:102650009D42F9DBD3E700BF10E000E083DE1B43BF
:10266000C5B3A29138B5044600250CE0FFF76CFF16
:102670006400E4B2FFF786FF0120FFF7A5FFFFF734
:1026800077FF0135EDB2072D05D814F0800FEDD19D
:10269000FFF764FFECE738BD38B50446FFF74AFFA3
:1026A000FFF770FFFFF75AFF2046FFF7DBFF06201A
:1026B000FFF78AFFFFF766FF0120FFF785FFFFF7AF
:1026C00057FF0120FFF780FFFFF75CFF002425463E
:1026D00001E00135EDB20F2D0FD86400A4B2FFF771
:1026E00051FF0120FFF770FFFFF742FFFFF754FF94
:1026F0000028EED00134A4B2EBE72409FFF710FF65
:10270000204638BD30B585B00546D02803D0902886
:102710002AD1002400E00024042C0AD82846FFF720
:10272000BBFF04AB03EB440323F80C0C0134A4B24D
:10273000F2E70E4B0222052101A801F0DFFB002089
:10274000012308E004AA02EB430232F80C2C1044E7
:1027500080B201339BB2032BF4D9054BA3FB0030AD
:10276000C0F34F0005B030BD0020FBE7172500087F
:10277000ABAAAAAA10B5D020FFF7C4FF0446902048
:10278000FFF7C0FF024B1C805880012010BD00BF26
:10279000800A002038B5FFF7EDFF00B938BD194BAE
:1027A0001C885D88FFF7E6FF0028F7D0154A1388DC
:1027B00052889C4203D303F13101A14205DA9C42C5
:1027C00018D804F13101994216DB954203D302F186
:1027D0003101A94205DA954210D805F13101914243
:1027E0000EDB1C446410074B1C8015446D105D808B
:1027F0000120D3E70020D1E70020CFE70020CDE77C
:102800000020CBE7800A002010B50446FFF7D0FE79
:1028100010B914B1FFF7BEFF10BDFFF7BBFFFBE718
:1028200008B5FFF7A7FF012008BD000008B50A485A
:102830000A4B03604FF4E133436000238360C360BD
:1028400003610C2242618361C36100F0FFFE00B9A5
:1028500008BDFFF775FDFBE7840A0020001001406A
:1028600000B589B00023039304930593069307935F
:10287000026803F1804303F588339A4202D009B01D
:102880005DF804FB0022019203F59433596C41F08A
:1028900010015964596C01F01001019101990292E3
:1028A000196B41F0010119631B6B03F001030293E3
:1028B000029B4FF4C0630393022304930592032306
:1028C00006930723079303A9014800F0C5F8D6E74C
:1028D0000000024010B504460E4B18784FF47A738E
:1028E000B3FBF0F30C4A1068B0FBF3F000F09EF875
:1028F00068B90F2C01D901200AE0002221464FF0CF
:10290000FF3000F05FF8054B1C60002000E0012064
:1029100010BD00BF040000200000002008000020BF
:1029200008B50B4B1A6842F400721A601A6842F438
:1029300080621A601A6842F480721A60032000F004
:102940002FF80020FFF7C6FFFFF78EFD002008BD1F
:10295000003C0240034A1168034B1B780B44136090
:10296000704700BFC80A002004000020014B18680F
:10297000704700BFC80A002038B50446FFF7F6FFCD
:102980000546B4F1FF3F02D0044B1B781C44FFF70F
:10299000EDFF401BA042FAD338BD00BF0400002069
:1029A000074AD36823F4E0631B041B0C000200F405
:1029B000E060034343F0BF6343F40033D3607047E8
:1029C00000ED00E030B4174BDB68C3F30223C3F122
:1029D0000704042C28BF04241D1D062D18D9033B11
:1029E0004FF0FF3505FA04F421EA0401994005FA95
:1029F00003F322EA0303194300280BDB0901C9B2E0
:102A000000F1604000F5614080F8001330BC704771
:102A10000023E5E700F00F000901C9B2024B195489
:102A2000F4E700BF00ED00E014ED00E00138B0F184
:102A3000807F0AD2064B5860064AF02182F82310A4
:102A40000020986007221A6070470120704700BF7D
:102A500010E000E000ED00E000230F2B00F2DD802D
:102A6000F0B482B05DE086685F000324BC4026EAD3
:102A70000406CC68BC4034438460466826EA0206FB
:102A80004C68C4F300129A403243426057E0DC08BD
:102A9000083450F8247003F0070296000F22B24069
:102AA00027EA02070A69B2403A4340F824205AE074
:102AB000072200E00022B2403A430234574E46F863
:102AC0002420574A1468EA4324EA05064F6817F49D
:102AD000803F01D045EA0406514C2660646802EA52
:102AE00004064F6817F4003F01D045EA04064C4C39
:102AF0006660A46802EA04064F6817F4801F01D0DC
:102B000045EA0406464CA660E46822404E6816F486
:102B1000001F01D045EA0402414CE26001330F2B53
:102B200078D801229A400C6804EA020532EA0404CB
:102B3000F4D14C6804F00304013C012C93D94A6899
:102B400002F00302032A09D0C4685E000322B240E7
:102B500024EA02048A68B2402243C2604A6802F052
:102B60000302022A93D004685E000322B24024EAE2
:102B700002044A6802F00302B240224302604A683B
:102B800012F0805FCAD000220192264A546C44F4AD
:102B900080445464526C02F480420192019A9C0871
:102BA000A61C1E4A52F8267003F0030296000F225C
:102BB000B24027EA02071C4A90423FF47BAF02F57D
:102BC000806290421AD002F58062904218D002F5DD
:102BD0008062904216D002F58062904214D002F5D5
:102BE0008062904212D002F58062904210D002F5CD
:102BF000806290423FF45CAF08225CE701225AE712
:102C0000022258E7032256E7042254E7052252E73E
:102C1000062250E702B0F0BC704770470038014010
:102C2000003C0140003802400000024003691942A4
:102C300001D001207047002070470AB181617047C0
:102C40000904816170470000002800F0CC80F8B5CD
:102C5000044690F83D30002B77D0242384F83D3093
:102C60002268136823F0010313602268136843F499
:102C7000004313602268136823F40043136000F0DC
:102C8000D9FB62685A4B9A4264D85A4B98428CBF1F
:102C900000230123002B40F0A880574DA5FB0035F1
:102CA000AF0C2668716821F03F0141EA95417160DF
:102CB00021680B6A23F03F0365684D4A95424FD85F
:102CC0007A1C13430B622568E96921F44F4121F016
:102CD000FF016368464A93424CD801385B00B0FB61
:102CE000F3F0013040F6FC73184278D0C0F30B03C8
:102CF0000B43EB6121680B6823F0C003E269206A93
:102D0000024313430B6021688B6823F4034323F0D1
:102D1000FF032269E068024313438B602168CB689C
:102D200023F0FF036269A06902431343CB6022686A
:102D3000136843F00103136000202064202384F80B
:102D40003D30206384F83E00F8BD80F83C30FFF74A
:102D5000BDFA82E7294B98428CBF0023012399E7F3
:102D60004FF4967202FB07F2254DA5FB0252920921
:102D70000132A6E7A268BAB9461E03EB4307B6FBC9
:102D8000F7F60136C6F30B06B6FA86F6760946BBA9
:102D9000C2B9421E03EB4303B2FBF3F20132C2F3AA
:102DA0000B0242F40043A3E7461E03EB830707EB45
:102DB0008707B6FBF7F60136C6F30B06B6FA86F6BA
:102DC0007609E4E7421E03EB830303EB8303B2FBC4
:102DD000F3F20132C2F30B0242F4404388E70423CA
:102DE00086E7012384E7012070470120ACE700BF9C
:102DF000A08601007F841E0083DE1B43FF083D0088
:102E0000D34D6210002800F0DF8170B582B0044617
:102E1000036813F0010F3BD0A64B9B6803F00C0333
:102E2000042B2CD0A34B9B6803F00C03082B21D060
:102E30006368B3F5803F4FD0B3F5A02F52D09D4BC0
:102E40001A6822F480321A601A6822F480221A600A
:102E50006368002B50D0FFF789FD0546954B1B6832
:102E600013F4003F14D1FFF781FD401B6428F5D90E
:102E70000320B0E18F4B5B6813F4800FD8D08D4BEB
:102E80001B6813F4003F03D06368002B00F09E81A1
:102E9000236813F0020F54D0864B9B6813F00C0F7D
:102EA0003ED0844B9B6803F00C03082B33D0E368BF
:102EB000002B67D0804B01221A60FFF757FD0546B3
:102EC0007C4B1B6813F0020F53D1FFF74FFD401BE3
:102ED0000228F5D903207EE1764A136843F4803353
:102EE0001360B5E7734B1A6842F480221A601A68BF
:102EF00042F480321A60ABE7FFF738FD05466D4BB0
:102F00001B6813F4003FC3D0FFF730FD401B64285B
:102F1000F5D903205FE1674B5B6813F4800FC6D1DE
:102F2000644B1B6813F0020F03D0E368012B40F0E1
:102F30004F81604A136823F0F803216943EAC10313
:102F40001360236813F0080F40D0636963B35B4BD1
:102F500001221A60FFF70AFD0546564B5B6F13F01E
:102F6000020F33D1FFF702FD401B0228F5D90320E1
:102F700031E1504A136823F0F803216943EAC103A1
:102F80001360DEE74C4B00221A60FFF7EFFC0546AA
:102F9000484B1B6813F0020FD3D0FFF7E7FC401B30
:102FA0000228F5D9032016E1444B00221A60FFF7EE
:102FB000DDFC05463F4B5B6F13F0020F06D0FFF7B9
:102FC000D5FC401B0228F5D9032004E1236813F047
:102FD000040F78D0374B1B6C13F0805F0DD10023AA
:102FE0000193344B1A6C42F080521A641B6C03F04C
:102FF00080530193019B012500E00025304B1B68A5
:1030000013F4807F21D0A368012B32D0052B36D05A
:10301000284B1A6F22F001021A671A6F22F004027D
:103020001A67A368002B34D0FFF7A0FC0646214B9B
:103030001B6F13F0020F45D1FFF798FC801B41F284
:1030400088339842F3D90320C5E01D4A136843F43E
:1030500080731360FFF78AFC0646194B1B6813F454
:10306000807FD0D1FFF782FC801B0228F5D9032096
:10307000B1E0104A136F43F001031367D1E70D4B22
:103080001A6F42F004021A671A6F42F001021A67BF
:10309000C7E7FFF76BFC0646064B1B6F13F0020FEA
:1030A00010D0FFF763FC801B41F288339842F3D9BC
:1030B000032090E00038024000004742800E474263
:1030C00000700040EDB9A369002B00F08380494AED
:1030D000926802F00C02082A51D0022B17D0464BFE
:1030E00000221A60FFF742FC0446424B1B6813F0B3
:1030F000007F42D0FFF73AFC001B0228F5D90320DD
:1031000069E03C4A136C23F080531364DBE73A4BCD
:1031100000221A60FFF72AFC0546364B1B6813F0A5
:10312000007F06D0FFF722FC401B0228F5D90320C0
:1031300051E0E369226A1343626A43EA8213A26A96
:103140005208013A43EA0243E26A43EA0263294A27
:103150005360294B01221A60FFF708FC0446254BF7
:103160001B6813F0007F06D1FFF700FC001B02284C
:10317000F5D903202FE000202DE000202BE0012BCB
:103180002BD01C4B5B6803F48001E269914226D18D
:1031900003F03F02216A8A4223D1616A47F6C07276
:1031A0001A40B2EB811F1ED103F44031A26A5208CB
:1031B000013AB1EB024F18D103F07063E26AB3EB4E
:1031C000026F14D1002006E001207047012002E0C8
:1031D000012000E0002002B070BD0120FBE70120CB
:1031E000F9E70120F7E70120F5E70120F3E70120E7
:1031F000F1E700BF0038024060004742F8B52F4BAE
:103200009B6803F00C03042B53D0082B53D12B4B9A
:103210005A6802F03F025B6813F4800F28D0274BF6
:103220005B68C3F3881358010021C01A61F10001E3
:103230008E0146EA906687013C1A66EB0105E900BB
:1032400041EA5471E000C01841F100014B0243EA29
:10325000D0534402204619460023FCF7D1FF174BF8
:103260005B68C3F3014301335B00B0FBF3F023E081
:10327000124B5B68C3F388135C010025E41A65F107
:103280000005AE0146EA9466A701381B66EB05010E
:10329000CC0044EA5074C500E81844F100018B02E8
:1032A00043EA90538402204619460023FCF7A8FF06
:1032B000D5E7034800E00348F8BD00BF00380240EE
:1032C00000127A000024F400002800F09B8070B502
:1032D0000D4604464F4B1B6803F007038B4208D290
:1032E000CBB24C4A1370136803F007038B4240F0D3
:1032F0008B80236813F0020F17D013F0040F04D053
:10330000454A936843F4E0539360236813F0080F31
:1033100004D0414A936843F4604393603E4A936803
:1033200023F0F003A1680B439360236813F0010FAF
:1033300032D06368012B21D09A1E012A25D9364A42
:10334000126812F0020F61D033498A6822F003023A
:1033500013438B60FFF70AFB06462F4B9B6803F075
:103360000C036268B3EB820F16D0FFF7FFFA801BE5
:1033700041F288339842F0D9032042E0264A12688D
:1033800012F4003FE0D101203BE0234A126812F022
:10339000007FD9D1012034E01E4B1B6803F00703E6
:1033A000AB4207D9EAB21B4B1A701B6803F0070344
:1033B000AB422DD1236813F0040F06D0164A936850
:1033C00023F4E053E1680B439360236813F0080F84
:1033D00007D0114A936823F46043216943EAC1038B
:1033E0009360FFF70BFF0C4B9B68C3F303130B4A6F
:1033F000D35CD8400A4B18600A4B1868FFF76AFA8A
:10340000002070BD012070470120FAE70120F8E795
:103410000120F6E7003C024000380240C487000863
:103420000000002008000020014B1868704700BF12
:103430000000002008B5FFF7F7FF044B9B68C3F3BB
:103440008223034AD35CD84008BD00BF0038024045
:10345000D487000808B5FFF7E7FF044B9B68C3F368
:103460004233034AD35CD84008BD00BF0038024055
:10347000D487000828B370B50E461546044690F868
:103480004930CBB1214651F8080B00F07BF9A26816
:103490003146206800F0A4F9236BA26829466068D1
:1034A00000F0BEF92268A16852F8213043F0010310
:1034B00042F82130002070BD80F84830FEF742FE0F
:1034C000E0E701207047000070B504460268136908
:1034D00023F44053C1680B431361836802691343AB
:1034E00042691343C2691A430168CB6823F4164347
:1034F00023F00C031343CB600268536923F4407339
:1035000081690B4353610368344A934206D002F544
:103510008062934202D0FFF78DFF01E0FFF79AFF30
:10352000E369B3F5004F2AD00026051846EB0601E3
:103530002D1846EB0101CB0043EA5573EA0015460E
:10354000194663689A009B0F281846EB0101FCF7A7
:1035500057FE234DA5FB00325109642303FB1103E1
:103560001B013233A5FB03235B0903F0F00202EBDE
:10357000011203F00F03216813448B6070BD002615
:10358000051846EB06012D1846EB0101CB0043EA76
:103590005573EA001546194662683346921846EBA1
:1035A0000303281846EB0101FCF72AFE0C4DA5FB8E
:1035B00000325109642303FB1103DB003233A5FB06
:1035C00003235B095A0002F4F87202EB011203F0C4
:1035D0000703216813448B60D0E700BF001001404F
:1035E0001F85EB512DE9F84305460F4616469946CF
:1035F000DDF820802C68246837EA04030CBF01241E
:103600000024B4421FD1B8F1FF3FF3D0B8F1000F4E
:1036100005D0FFF7ABF9A0EB09004045EAD92A68CD
:10362000D36823F4D073D3602A68536923F001036D
:103630005361202385F83D3085F83E30002385F81E
:103640003C30032000E00020BDE8F88358B310B5FB
:10365000044690F83D300BB3242384F83D302268B3
:10366000D36823F40053D3602046FFF72DFF226870
:10367000136923F4904313612268536923F02A03EA
:1036800053612268D36843F40053D3600020206460
:10369000202384F83D3084F83E3010BD80F83C3063
:1036A000FFF7DEF8D8E7012070472DE9F04182B03E
:1036B0001E4690F83D30DBB2202B54D104460D4617
:1036C0009046002953D0002A53D090F83C30012B6B
:1036D00051D0012380F83C3000230364212380F87B
:1036E0003D30FFF743F90746A4F82480A4F826806C
:1036F000A368B3F5805F05D04FF00008002384F87D
:103700003C3012E0236913B14FF00008F6E7A846F9
:103710000025F3E738F8023B2268C3F3080353603F
:10372000E28C92B2013A92B2E284E38C9BB273B122
:1037300000963B46002280212046FFF753FFE0B968
:10374000002DE7D015F8012B23685A60E8E70096B2
:103750003B46002240212046FFF744FF78B9202352
:1037600084F83D3000E0022002B0BDE8F081012085
:10377000FAE70120F8E70220F6E70320F4E7032048
:10378000F2E7000070B40C6850F82430134E1E406D
:103790004A688D6842EA0503CA6813430A691343FD
:1037A0004A6913438A691343CA6913430A6A134374
:1037B0004A6A13438A6A1343CA6A1343CA6B1343A0
:1037C0000A6B13433343082D04D040F82430002003
:1037D00070BC704743F04003F7E700BF8000F0FF84
:1037E00030B4013250F8224004F040440B684D6878
:1037F00043EA05138D6843EA0523CD6843EA054390
:103800000D69013D43EA05534D69023D43EA0563F5
:1038100089690B43234340F82230002030BC7047B5
:10382000B3F5804F05D06FF0704340F82230002090
:10383000704730B450F82230094C1C400B684D687A
:1038400043EA05138D6843EA0523CD6843EA05433F
:1038500089690B43234340F82230002030BC704775
:103860000000F0CF82B0ADF80600BDF80620024B94
:103870001A8002B0704700BF7E00006C82B0ADF8C5
:103880000600BDF80620024B5A8002B0704700BF08
:103890007E00006C82B0044B5B88ADF80630BDF84A
:1038A000060080B202B070477E00006C014B1880A9
:1038B000598070477E00006C08B5FFF7D3FFFFF713
:1038C000E9FF08BD024B1A89024B1A80704700BFFE
:1038D000CC0A00207E00006C38B54B4B9B79012B45
:1038E0000DD02BB9484B9A8841F663139A4210D0F9
:1038F000454B9A8849F241339A4222D038BD424A18
:10390000928846F604018A42EBD041F663118A425E
:10391000E7D00728ECD8DFE800F0120406080A0C0C
:103920000E100720E4E70420E2E70520E0E701208D
:10393000DEE70020DCE70320DAE70220D8E70620F4
:10394000D6E70138062805D8DFE800F05206484AD5
:103950004C4E5000002500E0402545F0080136207F
:10396000FFF7A4FF15F0200F44D0274B1A885B887F
:103970009A4202D224490B804A80234C6089FFF787
:1039800071FF0020FFF77AFF0020FFF777FF208804
:103990000138C0F30F20FFF771FF20880138C0B253
:1039A000FFF76CFFA089FFF75DFF0020FFF766FFC0
:1039B0000020FFF763FF60880138C0F30F20FFF796
:1039C0005DFF60880138C0B2FFF758FF45F48051B1
:1039D00041F008010320FFF769FF8FE7C025BCE72E
:1039E0002025BAE76025B8E7A025B6E7E025B4E7CB
:1039F0008025B2E7044B1A885B889A42BDD90249F8
:103A00000B804A80B9E700BFCC0A002008B538BB5C
:103A10001E4B00229A714FF4A0725A80F0221A8035
:103A20009B8849F24132934203D00020FFF754FFB4
:103A300008BD164A2C2111812A2151812B21918107
:103A400046F60402934203D045F210329342ECD181
:103A50000E4B4FF4A0721A804FF4F0725A80E4E7D4
:103A60000A4B01229A714FF4A0721A80F0225A80F8
:103A70009A8849F241339A42D7D1044B2C221A81B9
:103A80002A225A812B229A81CFE700BFCC0A00203C
:103A90000E4B9A8849F241339A4200D0704770B574
:103AA00005460C46094E7089FFF7DCFE280AFFF731
:103AB000E5FEE8B2FFF7E2FEB089FFF7D3FE200A89
:103AC000FFF7DCFEE0B2FFF7D9FE70BDCC0A0020A4
:103AD00038B50546094B1C885B8804FB03F40021BC
:103AE0000846FFF7D5FFFFF7EDFE0023A34203D200
:103AF000034A55800133F9E738BD00BFCC0A0020E6
:103B00007E00006C10B53220FEF736FF0121002048
:103B1000FFF7CCFE3220FEF72FFF0020FFF7CCFE90
:103B20009E4CA080D320FFF79DFEFFF7B3FEA08040
:103B3000FFF7B0FEA080FFF7ADFE0002A080FFF708
:103B4000A9FEA388184380B2A08049F2413398426D
:103B50000DD00020FFF75AFF01224FF4004190489A
:103B6000FFF76BF84FF6FF70FFF7B2FF10BDFEF7DF
:103B70006FFACF20FFF776FE0020FFF77FFEC1200F
:103B8000FFF77CFE3020FFF779FEED20FFF76AFE9D
:103B90006420FFF773FE0320FFF770FE1220FFF78B
:103BA0006DFE8120FFF76AFEE820FFF75BFE8520AF
:103BB000FFF764FE1020FFF761FE7A20FFF75EFE3C
:103BC000CB20FFF74FFE3920FFF758FE2C20FFF7E0
:103BD00055FE0020FFF752FE3420FFF74FFE022073
:103BE000FFF74CFEF720FFF73DFE2020FFF746FED3
:103BF000EA20FFF737FE0020FFF740FE0020FFF726
:103C00003DFEC020FFF72EFE1B20FFF737FEC12030
:103C1000FFF728FE0120FFF731FEC520FFF722FE47
:103C20003020FFF72BFE3020FFF728FEC720FFF7DC
:103C300019FEB720FFF722FE3620FFF713FE4820BB
:103C4000FFF71CFE3A20FFF70DFE5520FFF716FE8A
:103C5000B120FFF707FE0020FFF710FE1A20FFF744
:103C60000DFEB620FFF7FEFD0A20FFF707FEA2209B
:103C7000FFF704FEF220FFF7F5FD0020FFF7FEFD41
:103C80002620FFF7EFFD0120FFF7F8FDE020FFF70A
:103C9000E9FD0F20FFF7F2FD2A20FFF7EFFD2820B6
:103CA000FFF7ECFD0820FFF7E9FD0E20FFF7E6FD2A
:103CB0000820FFF7E3FD5420FFF7E0FDA920FFF700
:103CC000DDFD4320FFF7DAFD0A20FFF7D7FD0F20C7
:103CD000FFF7D4FD0020FFF7D1FD0020FFF7CEFD58
:103CE0000020FFF7CBFD0020FFF7C8FDE120FFF724
:103CF000B9FD0020FFF7C2FD1520FFF7BFFD17201B
:103D0000FFF7BCFD0720FFF7B9FD1120FFF7B6FD57
:103D10000620FFF7B3FD2B20FFF7B0FD5620FFF77D
:103D2000ADFD3C20FFF7AAFD0520FFF7A7FD102001
:103D3000FFF7A4FD0F20FFF7A1FD3F20FFF79EFD39
:103D40003F20FFF79BFD0F20FFF798FD2B20FFF78B
:103D500089FD0020FFF792FD0020FFF78FFD012075
:103D6000FFF78CFD3F20FFF789FD2A20FFF77AFD42
:103D70000020FFF783FD0020FFF780FD0020FFF704
:103D80007DFDEF20FFF77AFD1120FFF76BFD782016
:103D9000FEF7F2FD2920FFF765FDDAE6CC0A0020E8
:103DA00000040240DFF834D00D480E490E4A0023CB
:103DB00002E0D458C4500433C4188C42F9D30B4ADF
:103DC0000B4C002301E013600432A242FBD3FEF748
:103DD000A1FB00F01FF8FEF709FB7047000002206E
:103DE00000000020B8090020688B0008B8090020F6
:103DF000380B0020FEE7000008B5062000F0D0FBDD
:103E00000120FEF763FB00BF014B1868704700BF3D
:103E10000C00002070B50D4E0D4D761BB61006D06F
:103E2000002455F8043B01349847A642F9D1094EC5
:103E3000094D761B04F0B4FCB61006D0002455F8EA
:103E4000043B01349847A642F9D170BD5C8B000851
:103E50005C8B0008648B00085C8B0008F0B486075C
:103E600046D0541E002A3CD0CAB2034601E0013CB1
:103E700037D303F8012B9D07F9D1032C2AD9CDB2F2
:103E800045EA05250F2C45EA054534D9A4F1100271
:103E900022F00F0C03F120071609674403F110020A
:103EA00042E9045542E902551032BA42F8D1721C77
:103EB00014F00C0F03EB021204F00F0613D0331FA3
:103EC00023F003030433134442F8045B9342FBD111
:103ED00006F003042CB1CAB21C4403F8012B9C4227
:103EE000FBD1F0BC704734461346002CF3D1F8E701
:103EF00014460346C1E71A462646E0E72DE9F04F8F
:103F00009BB08346009210464BEA02029A46930702
:103F1000049140F0C382B0F1040918BF4FF00109C9
:103F2000009BCDF804909A0802925B000022059253
:103F300007935646049B062B40F2D480049B009ABC
:103F40004FEA5308072B02FB08B800F0CF81049A10
:103F50000099531E282A01FB03BA00F21B82544623
:103F60005D4641462846B047002821464046C0F2FB
:103F70000582B047002806DC21462846B04715EAEE
:103F8000200838BFA046019B002B40F0B781009B62
:103F9000DBF80020D8F80010CBF800105B44089341
:103FA000C8F80020089B0993534500F22981009A24
:103FB00006931C46002355465F46C2F10009D346CE
:103FC0009A4639462046B0470028A04640F3F5807F
:103FD000A34542D3A8460394019D0EE0DBF80010F0
:103FE000D8F80030CBF80030C8F80010C8444FF0C3
:103FF000010ACB44A345C0F0A08239465846B047D9
:10400000002815DBF5D1002DE8D0012D00F0B5809A
:10401000009A41465B460BEB020E0A78187803F8CB
:10402000012BAEEB0302002A01F8010BF5DCDDE702
:10403000019B4546DDF80C80002B40F0AC80009BD6
:104040002268DBF8000020601C44CBF80020CB4441
:10405000A0464FF0010AA345B3D25346DA46BB4609
:10406000002B00F0CD80069B0099A8EB0309A3EB81
:104070000B024A45049BA8BF4A4601FB03B4002A31
:1040800040F05081009B621BD31AA5EB0A05AB429E
:1040900028BF2B46002B40F0CD81A945C846A4EB94
:1040A000050004D25B46A84683464D461846009B51
:1040B0009D4240F200810599072900F2AC81B8FBCE
:1040C000F3F2B5FBF3F31AAC049304EBC10343F82A
:1040D0003C2C43F840BC049B4A1C062B05928346AB
:1040E0003FF62CAF1946009B03FB01B80BEB030511
:1040F000A84534D9019FDDF81C90CDF80C805C42B6
:10410000AB4527D2AA4609E0D8F80030DAF80020FB
:10411000C8F80020CAF80030DA451BD9D046A244BE
:1041200041465046B047002814DD002FECD0012F47
:1041300000F0B48053460AEB09001A7898F8001092
:1041400008F8012BA0EB0802002A03F8011BF4DC9D
:10415000DA45E3D8009B1D44039BAB42D0D8059BB6
:10416000002B00F08B80059B1AAA013B059302EB04
:10417000C30353E910B30493DCE60299C4465846DE
:1041800001390368DCF8002040F8042B00294CF8C2
:10419000043BF5DC2AE7019B012B21D0009B5A460A
:1041A0001C44137898F8001008F8013BA4EB0803AE
:1041B000002B02F8011BF4DC49E70DD1019B002B19
:1041C00040F08280069B009920681A681860581891
:1041D000226006904FF0010A009B1C44A0463AE77B
:1041E000029ADC46013AD8F80030DCF8001048F8B2
:1041F000041B002A4CF8043BF4DC009B1C4426E71B
:10420000049B089A1946009B03FB01B49442A6D96B
:10421000019FDDF824805D42C34527D2C24609E0F4
:10422000D9F80030DAF80020C9F80020CAF80030C8
:10423000DA451BD9D146AA4449465046B047002822
:1042400014DD002FECD0012F1BD0079A53460AEB48
:1042500002001A7899F8001009F8012BA0EB090266
:10426000002A03F8011BF4DCDA45E3D8009B9844EC
:104270004445D1D8059B002B7FF475AF1BB0BDE83A
:10428000F08F029B5146013BD9F80020086849F89D
:10429000040B002B41F8042BF5DCC9E7029B5146C7
:1042A000013BD8F80020086848F8040B002B41F8BF
:1042B000042BF5DC30E7009B98457FF650AF009B60
:1042C000B8FBF3F3049335E6019B012B00F0C380A8
:1042D000069A009BD01898F80030117802F8013B3C
:1042E000831A002B08F8011BF5DC72E7079B1344C7
:1042F0000BEB430A019B002B3FF449AE019B012BC2
:1043000000F0BC80009B0BEB03005A46089098F825
:104310000030117802F8013B831A002B08F8011BCA
:10432000F5DC3FE6019B022BA8EB020140F0C980BF
:104330005A4458460B7890F800C000F8013B131A15
:10434000002B01F801CBF5DC009B621BD31AA5EB17
:104350000A05AB4228BF2B46002B3FF49EAEE01A65
:1043600008EB0302037898F8001008F8013BA2EB71
:104370000803002B00F8011BF4DC8EE6B047002890
:10438000FFF601AE21462846B04714EA200838BFA0
:10439000A846F8E5D4080B4603FB04F30BEB030532
:1043A000294658461C460393B047620000280BEB91
:1043B0004404069221462846C0F29B80B04700285C
:1043C00077DD039FA8EB070441462046B04708EB82
:1043D0000709002849464046C0F2A380B04700289C
:1043E0005FDD069BAAEB0309039B4B441946484635
:1043F0001C46B047002851462046C0F28680B04790
:1044000000283FF7AEAD51464846B04719EA2004B0
:1044100038BF5446A5E5009CB5FBF4F1334622466F
:10442000FFF76CFDA0457FF69EAE009BB8FBF3F353
:1044300004937FE5019A022AA4EB030090D09B0825
:10444000013BD8F80020016848F8041B002B40F815
:10445000042BF5DC21E6DDF818C0029ADCF8003008
:10446000D8F800104CF8041B013A002A48F8043B25
:10447000F4DC069B009A13441846AAE6029A5846B2
:10448000013A0368D8F8001040F8041B002A48F8E5
:10449000043BF5DC009B5B44089383E54FF0020985
:1044A0003EE549462046B04714EA200838BFC846D2
:1044B00097E721465846B0471BEA200538BF2546F6
:1044C0007FE792085846013A03680F6840F8047B7A
:1044D000002A41F8043BF6DC009B621BD31AA5EBD3
:1044E0000A05AB4228BF2B46002B3FF4D6ADE01A9D
:1044F000A5E7B0470028FFF664AF21465846B0470D
:1045000014EA200538BF5D465BE7B0470028FFF698
:1045100028AD51464846B0471AEA200438BF4C46F9
:104520001FE5B0470028FFF65CAF49462046B0477C
:1045300019EA200838BFA04653E745465346DDF840
:104540000C80DA46BB468BE51F2938B5054621D8D5
:10455000D0F8DC220C466AB152F8213053B1012B5D
:1045600016D0591C10D00025204642F824509847F8
:10457000284638BD284600F031F822460146284634
:10458000BDE8384000F014B816230360012038BDA0
:10459000002038BD162303604FF0FF3038BD00BF48
:1045A000024B01461868FFF7CFBF00BF0C00002088
:1045B00038B50C46084D03461146204600221C46DD
:1045C0002A60FDF77BFF431C00D038BD2B68002B11
:1045D000FBD0236038BD00BF340B0020FDF76CBF5B
:1045E0000EB430B59CB01FAB0C4C0D4D53F8042BE2
:1045F0000193014602910691206802A96FF00044E0
:10460000CDE90445079400F00DF8029B00221A70D2
:104610001CB0BDE8304003B0704700BF0C00002064
:104620000802FFFF2DE9F04FD5B08B4617460D93DA
:10463000814602F0C3FE036816931846FCF760FF3C
:10464000BBF80C3015901E0604D5DBF81030002B9B
:1046500000F0F9870023CDE92933CDE91833CDE9FE
:104660001A331193179308932BAB289398463B78F2
:10467000CDF82CB000210022CDE91212002B00F061
:1046800052813C4604E014F8013F002B00F0A88062
:10469000252BF8D1E51B40F0A6802378002B00F0F5
:1046A0004281002309938DF883300693661C4FF0F6
:1046B000FF33647807932B254FF0200A0136A4F1CD
:1046C00020035A2B00F2AD80DFE813F08602AB0026
:1046D000AB008002AB00AB00AB006A00AB00AB00EC
:1046E000E401F501AB00EF019502AB008F025B0026
:1046F0005B005B005B005B005B005B005B005B00E2
:10470000AB00AB00AB00AB00AB00AB00AB004001BB
:10471000AB008701B802400140014001AB00AB0093
:10472000AB00AB007A02AB00AB00F901AB00AB0011
:10473000AB009501AB006A02AB00AB009E07AB007B
:10474000AB00AB00AB00AB00AB00AB00AB0040017B
:10475000AB008701BB014001400140012C02BB01BD
:104760008400AB004D02AB0035029707560284006F
:10477000AB00950182009A07AB00AB007507AB0058
:104780008200A4F13003002216F8014B02EB8202F2
:1047900003EB4202A4F13003092BF5D909928EE70D
:1047A000484602F00BFE43681A931846FCF7A8FE31
:1047B000034648461C461B9302F000FE826818928E
:1047C00034B1189B23B1189B1B78002B41F06D81ED
:1047D000347873E7069B347843F0200306936DE743
:1047E000E51B00F0A080DDE9293201332A44072BC4
:1047F000CDE92932C8F80070C8F8045006DC08F189
:104800000808089A23782A44089247E70B9928AAAF
:10481000484603F053FC002841F0BD830DF1AC087D
:10482000EFE70E96002C7ED000231A464FF0010AC7
:104830008DF8EC408DF883300C9207920F92149211
:104840001092CDF828A03BAF069B069913F0020307
:1048500018BF0AF1020A11F0840B05D10999A1EBE6
:104860000A06002E00F3AD832A9D72B1299A013207
:1048700001350DF183000121072ACDE92925C8E979
:10488000000100F3DE8308F108086BB1299B0133B6
:10489000023521A90222072BCDE92935C8E90012EA
:1048A00000F3DD8308F10808BBF1800F00F094826B
:1048B000079B0A9A9E1A002E00F3D382069BDE0500
:1048C00000F12E82299B0A9AC8F800700133154422
:1048D000072B2A95C8F80420299300F3528308F186
:1048E0000808069B580705D5099BA3EB0A04002C72
:1048F00000F3C883DDE908325245ACBF9B1853442E
:104900000893002D40F0E682002329930C9B1BB1F5
:104910000C99484602F04EFC0DF1AC080E9F3B7816
:10492000002B7FF4AEAE2A9BDDF82CB0002B41F0BB
:104930008482BBF80C3013F0400F089B18BF4FF077
:10494000FF330893089855B0BDE8F08F0D9B0E9685
:10495000073323F007031946F1E80223CDE91223B8
:10496000DDE912AB2BF000450D91B04B50462946C6
:104970004FF0FF32FDF7DAFA002840F0F384AB4B3A
:10498000504629464FF0FF32FDF7B2FA002840F0BA
:10499000E9840022002350465946FDF79FFA00287B
:1049A00041F05F809DF88320A14FA24B0698002123
:1049B0004FF0030A20F080000C910690472CC8BFEE
:1049C0001F46CDF828A007910F9114911091002A4D
:1049D0003FF43AAF0AF1010A36E70D9B0E9653F801
:1049E000042B8DF8EC2000210A464FF0010A0D93AC
:1049F0008DF8831020E70D9D0E9655F8047B002658
:104A00008DF88360002F00F02E86079A134601333D
:104A100000F0E08731463846FCF7E2FD0C900028B4
:104A200001F02C810C9B0796DA1B0A92334622EA8E
:104A3000E27A0D959DF883200C930F9314931093B5
:104A4000C5E7069B0E969D0640F101810D9B07333D
:104A500023F007031946F1E802230D9192469B4685
:104A6000002A73F10003C0F20381079B013300F0B9
:104A70005C85069B23F080055AEA0B0340F0908288
:104A8000079B002B40F093820695002307930A931F
:104A900054AF18E10D9B53F8042B0992002A80F2C1
:104AA0004584099A0D9352420992069B347843F04B
:104AB0000403069302E634788DF88350FEE5069BE6
:104AC0000E9643F010030693069B990640F1FE8371
:104AD0000D9B073323F00703F3E802AB0D93069B0E
:104AE00023F48065002300228DF88320079A114665
:104AF000013100F0CD8025F0800106915AEA0B01CA
:104B000040F04A82002A40F01087002BBDD115F0FA
:104B100001030A9300F00E8430238DF84F310DF21B
:104B20004F17D0E03478069B682C00F0858543F061
:104B300040030693C2E5069B0E969E0600F1E984AB
:104B4000069BDD0600F1F786069B5C0600F1BE873A
:104B5000069B980540F1EF860D9B089953F8042BAE
:104B60000D931170DAE63478069B6C2C00F05D85AD
:104B700043F010030693A1E50D9B0E9647F6300116
:104B800053F8042BADF8841006990D932A4B179314
:104B900041F0020592464FF0000B02237824A2E771
:104BA000069B0E9643F01005AF0640F180830D9BE7
:104BB000073323F00703F3E802AB0D93012392E7D9
:104BC000069B347843F00803069377E5069B347818
:104BD00043F00103069371E59DF88330002B7FF4C9
:104BE000F7AD34788DF883A068E5069B347843F000
:104BF0008003069362E5324612F8014B2A2C01F03D
:104C00005182A4F13003092B164698BF002201F20D
:104C10001D8116F8014B02EB820203EB4202A4F164
:104C20003003092BF5D9079249E500BFFFFFEF7F5D
:104C3000E0870008E4870008F0870008069B0E96CE
:104C400043F010030693069B9D063FF5FFAE069BBF
:104C5000D80640F14E840D9B53F8042B0D934FEA78
:104C6000E27B5B46002A73F100039246BFF6FDAE7D
:104C7000079A069DDAF1000A11464FF02D036BEBFF
:104C80004B0B01318DF883304FF001037FF433AFCC
:104C9000012B00F08581022B54AF22D117984FEAE7
:104CA0001A130AF00F0143EA0B734FEA1B129A46DC
:104CB0009346435C07F8013D5AEA0B03EFD154AB2E
:104CC000DB1B06950A93002307990C930F9314930B
:104CD00010930A9B9DF883208B42B8BF0B469A46DF
:104CE00075E64FEADA0242EA4B724FEADB010AF05C
:104CF00007038B46924630335AEA0B013A4607F8CF
:104D0000013DEED1E907DAD5302BD8D03023023A75
:104D100007F8013C54AB9B1A06950A931746D2E755
:104D2000652C40F3EA80DDE9120100220023FDF743
:104D3000CBF8002800F0E081299BCF4AC8F800207A
:104D4000013301350122072BCDE92935C8F80420AC
:104D500000F3B48508F10808229B119A934280F26F
:104D6000E082299B169AC8F80020159AC8F80420FA
:104D700001331544072B2A95299300F3498408F140
:104D80000808119B5C1E002C7FF7ABAD102C299BF3
:104D9000DFF8ECB240F3A3855F461026DDF82CB0B7
:104DA00005E008F10808103C102C40F3978501330A
:104DB0001035072BCDE92935C8E90076F1DD28AAA1
:104DC0005946484603F07AF9002840F08D80DDE925
:104DD00029350DF1AC08E6E7099BA3EB0A06002E86
:104DE0007FF766AD102E299ADFF894B226DD2946AA
:104DF000102325465C46DDF82CB004E0103E102E52
:104E000008F1080817DD01321031072ACDE9292100
:104E1000C8E90043F2DD28AA5946484603F04EF996
:104E2000002861D1103E102EDDE929210DF1AC08DA
:104E30004FF01003E7DCA3462C460D460132354403
:104E4000072ACDE92925C8F800B0C8F8046000F3A6
:104E50005F85079B0A9A9E1A002E08F108087FF7C3
:104E60002DAD102E299ADFF818B225DD2946102322
:104E700025465C46DDF82CB004E0103E102E08F10B
:104E8000080816DD01321031072ACDE92921C8E9C9
:104E90000043F2DD28AA5946484603F00FF918BB33
:104EA000103E102EDDE929210DF1AC084FF0100362
:104EB000E8DCA3462C460D4601323544072ACDE9ED
:104EC0002925C8F800B0C8F8046000F3E38108F1B0
:104ED0000808F3E40B9928AA484603F0EFF80028E5
:104EE0003FF412ADDDF82CB00C9B002B3FF421AD4C
:104EF0000C99484602F05EF91BE5119B299C012B99
:104F000040F38081013401350123072CCDE9294587
:104F1000C8F80070C8F8043000F3E98108F1080807
:104F2000159B169A01341D44072CCDE92945C8E983
:104F3000002300F3E98108F108080023DDE91201EC
:104F40000022FCF7C1FF119B002840F07881013B53
:104F5000013401371D44072CCDE92945C8F80070FC
:104F6000C8F8043000F35E8108F10808199A01348A
:104F7000154424AB072CCDE92945C8E900327FF759
:104F8000AEAC0B9928AA484603F098F80028A9D19E
:104F90002A9D0DF1AC08A4E4012B069D7FF47BAEA5
:104FA000BBF1000F08BFBAF10A0F80F0C6820AF108
:104FB000300A01238DF84FA106950A930DF24F1781
:104FC00081E6102EDDE929212ADD1C933B4640466F
:104FD0004F46A04610250B9C994604E0103E102E2B
:104FE00000F1080016DD0132244B1031072ACDE90B
:104FF0002921C0E90035F1DD28AA2146384603F011
:105000005DF8002840F03D84103E102EDDE9292196
:105010002BA8E8DC44461C9B80464846B946074618
:1050200001321648C8F800008D19072ACDE9292554
:10503000C8F8046000F3DE839DF8832008F10808B7
:1050400013E40B991C9328AA484603F037F800286C
:105050007FF448AF2A9D1C9B0DF1AC0815E40B9919
:1050600028AA484603F02AF800287FF43BAF2A9D7F
:105070000DF1AC0818E400BF20880008248800085F
:1050800034880008102C299B1FDD0B9F102604E09C
:10509000103C102C08F1080817DD0133AF4A103519
:1050A000072BCDE92935C8E90026F1DD28AA3946C4
:1050B000484603F003F8002840F00D84103C102C03
:1050C000DDE929350DF1AC08E7DC0133A34AC8F866
:1050D00000202544072BCDE92935C8F804407FF787
:1050E00009AC0B9928AA484602F0E8FF00287FF493
:1050F000F9AE2A9DFFF7FEBB229A002A40F38B836C
:10510000DDE910329342A8BF1346002B1C460DDD8B
:10511000299BC8F8007001332544072B2A95C8F84D
:105120000440299300F3468508F10808109B002CE1
:10513000A8BF1B1B002B1C4600F3A582109B3B4401
:105140009B46069B590500F1C582229B119A93420A
:1051500003DB069AD20740F1AF84299A1699C8F862
:1051600000101599C8F8041001320D44072A2A9539
:10517000299200F3398508F10808119ABC18A4EBAC
:105180000B04D31A9C42A8BF1C46002C0DDD299AA3
:10519000C8F800B001322544072A2A95C8F804400F
:1051A000299200F33A8608F10808002CACBF1C1BBA
:1051B0001C46002C7FF795AB102C299BDFF8A0B183
:1051C00040F38D835F461026DDF82CB005E008F132
:1051D0000808103C102C40F3818301331035072B55
:1051E000CDE92935C8E90076F1DD28AA59464846B7
:1051F00002F064FF00287FF477AEDDE929350DF178
:10520000AC08E6E7069BDE073FF57CAE01340135CE
:105210000123072CCDE92945C8F80070C8F80430EF
:105220007FF7A2AE0B9928AA484602F047FF002854
:105230007FF458AEDDE929450DF1AC0896E65E1E17
:10524000002E7FF793AE102EDFF814B140F3B88331
:10525000CDF81CA01027CA46DDF82C9005E008F117
:105260000808103E102E40F3A88301341035072C97
:10527000CDE92945C8E900B7F1DD28AA49465046DD
:1052800002F01CFF002840F0E585DDE929450DF11D
:10529000AC08E6E70B9928AA484602F00FFF002861
:1052A0007FF420AE2A9D0DF1AC08FFF707BB0D9AE5
:1052B000EE0652F8041B0D924FF001033FD468062E
:1052C0003AD51FFA81FA4FF0000B0CE4069BDA0680
:1052D0003AD4069B5B0640F194830D9B53F8042B54
:1052E0000D931FFA82FA4FF0000BFFF7F8BB0B99F2
:1052F00028AA484602F0E2FE00287FF4F3ADDDE97B
:1053000029450DF1AC080BE60B9928AA484602F096
:10531000D5FE00287FF4E6ADDDE929450DF1AC08A6
:105320000BE6069BD8077FF5DCAA1AE534780D93C7
:10533000FFF7C4B954AFC6E4AA0500F1CF838A468B
:105340004FF0000BFFF7CFBB0D9B53F8042B0D93D1
:1053500092464FF0000BFFF7C2BB00BF2488000845
:1053600034880008DDE912010B460246FCF7DEFD39
:105370000146002840F00286612C00F0B785412CE0
:1053800000F0AA84079B24F020065A1C0A9600F01D
:10539000C683472E00F0AF85DDE91212069BB2F1FD
:1053A000000A43F4807310934FF00003C0F2C885E5
:1053B0001C930C938B46462E5A46534600F03E846F
:1053C000452E40F01F84079926A84D1C23A9049060
:1053D000039122A80221019502900091484600F015
:1053E00027FF07460544069B0F93109B06935846DC
:1053F000514600220023FCF767FD002800F0CE8311
:105400002B46DB1B11930A9B472B00F099830A9BC9
:10541000462B00F04084229B1093109B0A9A013B7C
:10542000412A229300F0A485E2B20021002BB8BFEC
:10543000109B8DF89020BABFC3F101032D222B22BF
:10544000092B8DF8912040F3AC850DF19F0EDFF80C
:1054500068C475468CFB0321DA17C2EBA10202EB8C
:105460008201A3EB41011E463031632E284605F828
:10547000011C134605F1FF35ECDC3033DAB2831E34
:105480009E45294605F8012C40F22D860DF1920328
:1054900001E011F8012B03F8012B8E45F9D10DF134
:1054A000A1030DF192021B1A134424AA9B1A19930B
:1054B000119B199A012B1A440A9240F3D5850A9B35
:1054C000159A13440A930F9B23F4806600230F93CD
:1054D000149310930A9B46F48072069223EAE37AAF
:1054E0001C9B002B40F053839DF883200793FFF70C
:1054F0006EBA069B590640F193820D9B53F8042B1C
:105500000D930FFA82FA4FEAEA7B52465B46FFF7A9
:10551000A7BA0D9B53F8041B0D93089BDD171A4681
:105520002B46C1E90023FFF7F9B9BBF1000F08BF13
:10553000BAF10A0F069DFFF43AAD05F48066002328
:105540000694CDF828903446C14654AFA8461E466E
:10555000189D09E0FAF754FEBBF1000F08BFBAF13D
:105560000A0F1FD382468B460A2200235046594613
:10557000FAF746FE94460CF1300C07F801CC504681
:1055800059460A2200230136013F002CE2D095F84B
:1055900000C06645DED1FF2EDCD09B4508BF92459A
:1055A00080F064821895069C11964546C846DDF841
:1055B0002890FFF784BBBB4B0E961793069B9F0664
:1055C00040F102810D9B073323F00703F3E802ABA0
:1055D0000D93069AD0070AD55AEA0B0307D0302359
:1055E00042F002028DF8854006928DF88430069BC9
:1055F00023F480650223FFF776BA0E96FFF764BAAC
:10560000069D0E96FFF7D0BAA74B0E961793D5E7D7
:105610000B9928AA484602F051FD00287FF462AC9D
:105620002A9D0DF1AC08FFF7ACBB43F02003747862
:1056300006930136FFF742B843F40073747806937B
:105640000136FFF73BB84021484601F0BFFECBF8DA
:105650000000CBF81000002800F02F854023CBF885
:105660001430FEF7F7BF079B0F97062B28BF0623C2
:105670000797149710970C973A469A468B4F0D95BB
:105680000A93FFF7A4B9102C299BDFF824B240F34A
:10569000DA812A4610265D46DDF82CB005E008F1D7
:1056A0000808103C102C40F3CC8101331032072B3A
:1056B000CDE92932C8E90056F1DD28AA5946484605
:1056C00002F0FCFC00287FF40FACDDE929320DF17B
:1056D000AC08E6E7119BCDF828A04246DDF85080E3
:1056E0001097FB1807935E46DDF86CA0DDF82CB030
:1056F000189F0F9B2946B8F1000F2FD0002B30D1F7
:10570000013F08F1FF38299B1A981060013351447A
:10571000072B2A91C2F804A0299360DC083207986D
:105720003B78841B9C42A8BF1C46002C0BDD299BA8
:10573000166001332144072B2A915460299300F30A
:10574000DB803B780832002CACBF1C1B1C46002CB5
:105750000BDC1E440F9BB8F1000FCFD1002B00F0E3
:10576000E1810F9B013B0F93CDE7102C29981DDDA4
:10577000102504E0103C102C02F1080216DD013067
:105780004B4B10310728CDE92901C2E90035F1DD85
:1057900028AA5946484602F091FC00287FF4A4ABA1
:1057A000103C102CDDE929012BAAE8DC0130404B2C
:1057B000136021440728CDE92901546000F30782D2
:1057C0003B7808321E44C5E7069BDE065DD50D9B7F
:1057D00053F8042B0D9392464FF0000BF9E628AADC
:1057E0005946484602F06AFC00287FF47DAB2A99AE
:1057F0002BAA94E70B991C9328AA484602F05EFC5A
:1058000000287FF46FAB9DF883202A9D1C9B0DF12F
:10581000AC08FFF72AB8299B2649C8F800100133C5
:1058200001350121072BCDE92935C8F8041000F313
:105830002F8108F10808002A40F08580069B119A04
:1058400003F0010313433FF44CA8299B169AC8F8B0
:105850000020159AC8F8042001331544072B2A9517
:10586000299300F3418108F10808119A0133154486
:10587000072BCDE92935C8E900727FF730A8FFF77B
:1058800080BBB946A346FFF72FBB069B5D0640F1E0
:10589000AA800D9B53F8042B0D931FFA82FA4FF048
:1058A000000B96E6F08700080488000818880008B6
:1058B0003488000820880008676666660B9928AA65
:1058C000484602F0FBFB00287FF40CAB2A9D0DF14B
:1058D000AC08FFF741BABB46FFF706BBBB46013336
:1058E0002544072BC8F800B0CDE92935C8F8044095
:1058F0007EF7F5AFFFF745BB28AA5946484602F0A8
:10590000DDFB00287FF4F0AA3B782A992BAA1AE73E
:105910000B9928AA484602F0D1FB00287FF4E2AA9E
:105920002A9D0DF1AC08FEF7C3BF012B069D7FF445
:10593000B2A9FFF73CBB0D9B089953F8042B1160EB
:105940000D93FEF7EBBF299B1699C8F80010159927
:10595000C8F8041001330D44072B2A95299300F34E
:10596000C38008F10808002ABFF67FAF5442103206
:10597000DFF8C4B680F2A4822A4610265D46DDF820
:105980002CB005E008F10808103C102C40F396827A
:1059900001331032072BCDE92932C8E90056F1DD79
:1059A00028AA5946484602F089FB00287FF49CAAA1
:1059B000DDE929320DF1AC08E6E7D146DDF81CA09F
:1059C00001343544072CCDE92945C8E900B67FF7F5
:1059D000CBAA27E43846FBF793FD334607960246E9
:1059E0000A90FFF724B8069B13F4007F0D9B53F831
:1059F000042B0D9314BF5FFA82FA92464FF0000B0E
:105A0000E7E5069B13F4007F0D9B53F8042B0D93E1
:105A100014BF5FFA82FA92464FF0000BFFF75FB8AF
:105A2000069B13F4007F0D9B53F8042B3FF416A93B
:105A30004FFA82FA4FEAEA7B0D9352465B46FFF734
:105A40000FB8AB46154601332544072BCDE9293560
:105A5000C8F800B0C8F8044054DC08F10808FFF7A3
:105A60006DBB2D228DF88320FEF79EBF1B9B1A99DC
:105A7000FF1A1A46384602F0EDFA6B7803B1013589
:105A80000A220023504659460026FAF7B9FB69E579
:105A90000B9928AA484602F011FB00287FF422AA9D
:105AA000229A2A9D0DF1AC08C5E6069B347843F492
:105AB00080630693FEF702BE119ABC18A4EB0B0498
:105AC000D31A9C42A8BF1C46FFF76FBB0D9B0899D9
:105AD00053F8042B0D931180FEF720BF5FFA81FA73
:105AE0004FF0000BFEF7FFBF0B9928AA484602F0C3
:105AF000E5FA00287FF4F6A9DDE92935229A0DF1AF
:105B0000AC0830E70B9928AA484602F0D7FA0028DB
