:020000040800F2
:100000000000022095160008890800088D080008E5
:1000100091080008950800089908000800000000F1
:100020000000000000000000000000009D08000823
:10003000A108000800000000A5080008A9080008A1
:10004000E5160008E5160008E5160008E5160008A4
:10005000E5160008E5160008E5160008E516000894
:10006000E5160008E5160008E5160008E516000884
:10007000E5160008E5160008E5160008E516000874
:10008000E5160008E5160008E5160008E516000864
:10009000E5160008E5160008E5160008E516000854
:1000A000E5160008E5160008E5160008E516000844
:1000B000E5160008E5160008E5160008E516000834
:1000C000E5160008E5160008E5160008E516000824
:1000D000E5160008E5160008E5160008E516000814
:1000E000E5160008E5160008E5160008E516000804
:1000F000E5160008E5160008E5160008E5160008F4
:10010000E5160008E5160008E5160008E5160008E3
:10011000E5160008E5160008E5160008E5160008D3
:10012000E5160008E5160008E5160008E5160008C3
:10013000E5160008E5160008E5160008E5160008B3
:10014000E5160008E5160008E5160008E5160008A3
:10015000E5160008E5160008E5160008E516000893
:10016000E5160008E5160008E5160008E516000883
:10017000E5160008E5160008E51600080000000076
:08018000E5160008E516000871
:1001880010B5054C237833B9044B13B10448AFF3C9
:1001980000800123237010BD4004002000000000EF
:1001A8001018000808B5034B1BB103490348AFF307
:1001B800008008BD0000000044040020101800085A
:1001C80053B94AB9002908BF00281CBF4FF0FF31B6
:1001D8004FF0FF3000F06CB9ADF1080C6DE904CEBA
:1001E80000F006F8DDF804E0DDE9022304B070470A
:1001F8002DE9F047089E0D4604468E46002B40F038
:1002080082808A42174646D9B2FA82F24AB1C2F1CE
:10021800200105FA02F320FA01F1974041EA030EA2
:1002280094404FEA1748230CBEFBF8FCB9B208FB10
:100238001CEE43EA0E430CFB01F098420AD9FB1866
:100248000CF1FF3580F01681984240F21381ACF131
:10025800020C3B441B1AA4B2B3FBF8F008FB1033A2
:1002680044EA034400FB01F1A14209D93C1900F119
:10027800FF3380F00181A14240F2FE8002383C4405
:10028800641A40EA0C4000211EB1D4400023C6E99C
:100298000043BDE8F08702B9FFDEB2FA82F2002A15
:1002A8004FD1CB1B4FEA174E1FFA87F80121B3FB3A
:1002B800FEFC250C0EFB1C3345EA034508FB0CF33A
:1002C800AB4207D97D190CF1FF3002D2AB4200F2E4
:1002D800E7808446ED1AA3B2B5FBFEF00EFB10557D
:1002E80043EA054408FB00F8A04507D93C1900F18A
:1002F800FF3302D2A04500F2D7801846A4EB0804C9
:1003080040EA0C40C0E78B4208D9002E00F0AF80CD
:100318000021C6E900050846BDE8F087B3FA83F175
:1003280000294BD1AB4202D3824200F2B780841A33
:1003380065EB030301209E46002EAAD0C6E9004EB5
:10034800A7E7C2F1200C01FA02F3974020FA0CF05B
:100358004FEA174E21FA0CFC1843BCFBFEF1050CC2
:100368000EFB11CC1FFA87F845EA0C4501FB08F390
:10037800AB4204FA02F409D97D1901F1FF3C80F07F
:100388008B80AB4240F2888002393D44EB1A85B23B
:10039800B3FBFEF00EFB103345EA034500FB08F300
:1003A800AB4207D97D1900F1FF3C71D2AB426FD93E
:1003B80002383D44EB1A40EA014178E7C1F1200CCC
:1003C8008B4022FA0CF71F4320FA0CF405FA01F3CC
:1003D8004FEA174E25FA0CF51C43230CB5FBFEF922
:1003E8001FFA87F80EFB195543EA054509FB08FA79
:1003F800AA4502FA01F200FA01F308D97D1909F1B8
:10040800FF3047D2AA4545D9A9F102093D44A5EBD9
:100418000A05A4B2B5FBFEF00EFB105544EA0544EC
:1004280000FB08F8A04507D93C1900F1FF352DD28B
:10043800A0452BD902383C4440EA0940A4EB080403
:10044800A0FB02894C45C6464D4619D316D05EB16D
:10045800B3EB0E0264EB050404FA0CFCCA404CEA48
:100468000202CC40C6E900240021BDE8F0873146ED
:1004780030460EE7AC46EDE6184601E74345E6D2BE
:10048800B8EB020E69EB07050138E0E72846D3E729
:1004980060468FE78146BAE7614677E708464BE74B
:1004A800ACF1020C3D4415E702383C4426E700BF96
:1004B800704700BF2248234B30B506240025C0E909
:1004C800024500241025C0E904454FF48054002556
:1004D800C0E90A454FF480440025C0E90C450024D2
:1004E800002591B0C0E90645C0E908450F240F254D
:1004F800CDE900453C240025CDE90245102411250D
:10050800CDE90445CDE90C454FF0204203240F25E1
:10051800C0E90023CDE9084500230324002508AAE3
:100528006946CDE90A458363436406930E9300F058
:10053800C3FE08B911B030BD00F084F911B030BD68
:1005480060040020040100A02248234B30B5062493
:100558000025C0E9024500241025C0E904454FF4F0
:1005680080540025C0E90A454FF480440025C0E9BD
:100578000C450024002591B0C0E90645C0E90845AE
:100588000F240F25CDE900453C240025CDE902457F
:1005980010241125CDE90445CDE90C454FF0204242
:1005A80009240F25C0E90023CDE9084500230824C4
:1005B800002508AA6946CDE90A4583634364069382
:1005C8000E9300F079FE08B911B030BD00F03AF989
:1005D80011B030BD60040020040100A0234B1A684C
:1005E80002B170472DE9704388B02149019201207A
:1005F80018608B6B1F4843F001038B638B6B03F010
:100608000103002403250C26019302A94FF4805806
:100618004FF00209019B0696CDE90289CDE9044510
:1006280000F05CFA02A94FF680720223124806967F
:10063800CDE90223CDE9044500F050FA4CF23372BB
:10064800022302A90D480696CDE90223CDE9044507
:1006580000F044FA0A48069602A9CDE90289CDE9D4
:10066800044500F03BFA08B0BDE870835C04002044
:10067800003802400014024000100240000C024002
:100688000018024030B500228FB0CDE90822CDE92C
:100698000A222E4B01920C92196B2D4C41F08001CD
:1006A8001963196B01F08001019101990292196B8C
:1006B80041F020011963196B01F0200102910299A0
:1006C8000392196B41F010011963196B01F01001C5
:1006D800039103990492196B41F002011963196B94
:1006E80001F00201049104990592196B41F0080187
:1006F8001963196B01F00801059105990692196BA8
:1007080041F001011963196B01F001010691069985
:100718000792196B41F0400119631B6B03F040030A
:10072800079320464FF40041079B012500F0E6FAA5
:1007380020460022002308A94FF40044CDE90845CB
:10074800CDE90A2300F0CAF90FB030BD00380240E5
:1007580000040240F0B5002395B0CDE90A33CDE995
:100768000C33CDE90333CDE90533224900930293D5
:10077800086C214A40F080500864096C01F08051EF
:10078800009100990193136843F480431360136840
:1007980003F48043019301244FF4803502224FF47F
:1007A8008003CDE90845CDE90E230424A8250222BB
:1007B800042308A8CDE91045CDE91223019900F0DA
:1007C800A1FA08B172B6FEE70F26022700244FF4FB
:1007D800A0554FF4805302A80521CDE90267CDE961
:1007E8000445069300F0AAFC08B172B6FEE715B0FE
:1007F800F0BD00BF003802400070004008B500F0AE
:10080800CDF8FFF7A7FFFFF73DFFFFF79DFE00F0CC
:100818004BF800F0DBFE4FF6FF7000F0BDFE4FF422
:10082800FA7000F0E7F8002000F0B6FE4FF4FA7016
:1008380000F0E0F81F2000F0AFFE4FF4FA7000F06F
:10084800D9F8E8E772B6FEE782B00C4B00210091B8
:100858005A6C42F480425A645A6C02F48042009204
:10086800009A01911A6C42F080521A641B6C03F0D2
:1008780080530193019B02B0704700BF00380240CB
:10088800FEE700BFFEE700BFFEE700BFFEE700BFD0
:10089800FEE700BF704700BF704700BF704700BF4A
:1008A80000F096B8704700BF0B4808B50B4B0360C3
:1008B8004FF4E13100230C22C0E90233C0E90633CA
:1008C80041604261036100F023FD00B908BDBDE845
:1008D8000840FFF7B7BF00BFB00400200010014078
:1008E80030B50168194A89B000239142CDE9023335
:1008F800CDE90433069301D009B030BD02F5943236
:100908000093516C124841F010015164516C01F090
:100918001001009100990193136B43F001031363D5
:10092800136B03F0010301930723019A0693002236
:10093800032302A94FF4C0640225CDE90245CDE99D
:10094800042300F0CBF809B030BD00BF001001400F
:100958000000024038B50E4A0E4B12781B68054657
:100968004FF47A70B0FBF2F0B3FBF0F000F09EF8B1
:1009780008B90F2D01D9012038BD04460246294681
:100988004FF0FF3000F05AF8034B20461D6038BD89
:1009980004000020000000200800002008B50B4BD0
:1009A8001A6842F400721A601A6842F480621A6087
:1009B8001A6842F480721A60032000F02DF80020B3
:1009C800FFF7C8FFFFF740FF002008BD003C0240CA
:1009D800034A044B11681B780B441360704700BF2F
:1009E800F404002004000020014B1868704700BF81
:1009F800F404002038B50446FFF7F6FF631C0546EB
:100A080002D0044B1B781C44FFF7EEFF401BA042AA
:100A1800FAD338BD040000200749CA6803024FF61C
:100A2800FF0003F4E0630240134343F0BF6343F461
:100A38000033CB60704700BF00ED00E0194BDB6866
:100A4800C3F3022330B4C3F10705042D03F10404F2
:100A580028BF0425062C19D9033B4FF0FF349C40CE
:100A680022EA04024FF0FF34AC4021EA0401994025
:100A7800002841EA02010CDB00F1604000F561400A
:100A88000901C9B280F8001330BC70470022134630
:100A9800E8E7054B00F00F0009010344C9B21976D5
:100AA80030BC704700ED00E0FCEC00E00138B0F12C
:100AB800807F0DD2074B10B4074C5860F02084F8A3
:100AC80023000022072110469A6010BC1960704765
:100AD8000120704710E000E000ED00E02DE9F04F44
:100AE8008B46DFF810A20968DFF80CC285B0002336
:100AF800D94603E00133102B00F0888001229A4088
:100B080002EA010B8A43F5D1D9F8045005F0030233
:100B1800541E012C4FEA43077BD9032A40F0B980C1
:100B2800BA40D44300940768009C3C402243EE003E
:100B38000260DFD500220392DAF8442042F48042B2
:100B4800CAF84420DAF8442023F0030404F180446E
:100B580002F4804204F59C34039203F00306039ADE
:100B6800A768B6000F22B24027EA02025A4FB842DD
:100B780020D007F58067B84200F09080574FB84200
:100B880000F09180564FB84200F09280554FB8421D
:100B980000F09380544FB84200F09480534FB8420D
:100BA80000F09580524FB8420CBF0727082707FA74
:100BB80006F63243A260DCF800206FEA0B06EC036D
:100BC80054BF32404BEA0202CCF80020DCF8044063
:100BD800AA0354BF34404BEA0404CCF80440DCF8C0
:100BE8000840EF0254BF34404BEA0404CCF80840F4
:100BF800DCF80C20AC0203F1010354BF32404BEA8D
:100C08000202102BCCF80C207FF478AF05B0BDE8B9
:100C1800F08F86680324BC4026EA040ED9F80C60DD
:100C2800BE4046EA0E068660D0F804E0C5F300161A
:100C38002EEA0B0E9E4046EA0E06E44300944660F8
:100C4800C66806EA040ED9F80860BE4046EA0E06F1
:100C5800022AC66001D0BA4065E74FEAD30800EB24
:100C6800880803F0070ED8F8204001944FEA8E0E4A
:100C78000F2404FA0EF6019C24EA0606D9F810405F
:100C8800019604FA0EF6019C2643BA40C8F8206083
:100C980049E70324BC40E4430094D1E7012707FA5D
:100CA80006F6324386E7022707FA06F6324381E75B
:100CB800032707FA06F632437CE7042707FA06F605
:100CC800324377E7052707FA06F6324372E7062725
:100CD80007FA06F632436DE70000024000080240BA
:100CE800000C0240001002400014024000180240AC
:100CF800001C024000380240003C014002B90904CF
:100D080081617047002800F0A5812DE9F041036852
:100D1800DD0782B004462FD5AC498A6802F00C0280
:100D2800042A00F0EC808A6802F00C02082A00F01D
:100D3800E2806368B3F5803F00F0EB80B3F5A02F45
:100D480000F07881A14D2A6822F480322A602A684E
:100D580022F480222A60002B40F0E080FFF744FE56
:100D6800064605E0FFF740FE801B642800F200817C
:100D78002B689B03F6D423689F0728D5934A91686C
:100D880011F00C0F00F09080916801F00C01082917
:100D980000F08680E368002B00F006818C4B8B4EB8
:100DA80001221A60FFF720FE054605E0FFF71CFE4A
:100DB800401B022800F2DC8033689807F6D53368B8
:100DC800226923F0F80343EAC203336023681A0751
:100DD80052D458072FD57D4A136C13F080537ED018
:100DE80000257C4E3368D90540F1B280A368012BF9
:100DF80000F0C280052B00F02F81744E326F22F074
:100E080001023267326F22F004023267002B40F091
:100E1800B880FFF7E9FD41F28838074605E0FFF79B
:100E2800E3FDC01B404500F2A380336F9807F6D45A
:100E3800002D40F00981A069D0B1644DAB6803F082
:100E48000C03082B00F0CC80634B002202281A60A8
:100E580000F00C81FFF7C8FD2C46054605E0FFF7BA
:100E6800C3FD401B022800F2838023689B01F6D44F
:100E7800002002B0BDE8F081636903B3574B534EBD
:100E880001221A60FFF7B0FD054604E0FFF7ACFD4C
:100E9800401B02286CD8736F9B07F7D5236898E727
:100EA800526856023FF576AF484A1268950743D50F
:100EB800E268012A40D0012002B0BDE8F081474A2B
:100EC800424E1360FFF790FD054604E0FFF78CFDE6
:100ED800401B02284CD8736F9F07F7D4DEE70193B5
:100EE800136C43F080531364136C03F08053019325
:100EF800019B012575E74A6850027FF51AAF334A0E
:100F0800126891037FF538AF6268002A7FF434AF26
:100F1800D1E72E4A136843F480331360FFF764FD6A
:100F28002A4E054604E0FFF75FFD401B64281FD8E2
:100F380033689A03F7D51EE7244920690A6822F026
:100F4800F80242EAC0020A601A077FF542AF93E747
:100F5800336843F480733360FFF746FD0746336810
:100F6800DA053FF543AFFFF73FFDC01B0228F6D96E
:100F7800032002B0BDE8F081144A136F43F0010367
:100F88001367FFF731FD114F064641F2883804E038
:100F9800FFF72AFD801B4045EAD83B6F9B07F7D532
:100FA800002D3FF448AF4FE0094A084E1360FFF7A1
:100FB8001BFD054604E0FFF717FD401B0228D7D8A4
:100FC80033689907F7D4236801E700BF0038024067
:100FD800000047420070004060004742800E4742D0
:100FE80001283FF446AF6B68E26903F4800191423F
:100FF8007FF461AF226A03F03F0191427FF45BAF57
:10100800616A47F6C0721A40B2EB811F7FF453AF92
:10101800A26A5208013A03F44031B1EB024F7FF45F
:101028004AAFE26A03F07063B3EB026F14BF0120AA
:1010380000201EE7244B1A6842F480221A601A68BE
:1010480042F480321A6069E71F4A136C23F0805318
:101058001364F0E6012070471B4B1A6F42F004023C
:101068001A671A6F42F001021A678AE7FFF7BCFC99
:10107800064605E0FFF7B8FC801B02283FF678AF6C
:101088002B689901F6D4D4E90736D4E90902E16A54
:10109800334343EA8013520843EA0163013A0B4998
:1010A800094E43EA024301226B600A60FFF79CFC89
:1010B800044605E0FFF798FC001B02283FF658AFEE
:1010C80033689A01F6D5D3E60038024060004742FB
:1010D800174908B58B6803F00C03042B1BD0082BA9
:1010E80017D14A684B6813F4800302F03F0214D109
:1010F80049681048C1F38811A1FB0001FFF760F8A7
:101108000B4B5B68C3F3014301335B00B0FBF3F0A7
:1011180008BD084808BD084808BD4B680648C3F321
:101128008813A3FB00010023FFF74AF8E8E700BF94
:10113800003802400024F40000127A00002800F071
:101148008780484A136803F007038B422DE9F04172
:101158000D46044609D2CBB21370136803F0070397
:101168008B4202D00120BDE8F0812368980714D58E
:10117800590704D53C498A6842F4E0528A601A0744
:1011880004D539498A6842F460428A603649A068C1
:101198008A6822F0F00202438A60DF0721D562687C
:1011A800012A57D0931E012B2F4B1B684DD9990745
:1011B800D8D52D4EB36823F003031343B360FFF76C
:1011C80013FC41F28838074604E0FFF70DFCC01B0A
:1011D800404544D8B368626803F00C03B3EB820F50
:1011E800F3D1204A136803F00703AB4206D9EBB2E8
:1011F8001370136803F00703AB42B3D123685A078F
:1012080006D51949E0688A6822F4E05202438A60E8
:101218001B0707D5144A2169936823F4604343EAFE
:10122800C1039360FFF754FF0F4A104C92681049AE
:10123800C2F303120346A25C0E48D34000680B6059
:10124800FFF788FB0020BDE8F0819801B1D489E759
:1012580001207047044B1B689E03AAD482E7032031
:1012680081E700BF003C024000380240281800080F
:101278000000002008000020044B054A9B6805492F
:10128800C3F382230868D35CD84070470038024013
:101298003818000800000020044B054A9B680549DF
:1012A800C3F342330868D35CD84070470038024023
:1012B800381800080000002038B370B590F849309D
:1012C80015460E46044603F0FF02CBB1214651F8FD
:1012D800080B00F0B9F8A2682068314600F0E0F881
:1012E800D4E90102236B294600F0FAF8A1682268C4
:1012F80052F8213043F0010342F82130002070BD3C
:1013080080F84820FFF76AF9E0E70120704700BF3E
:10131800002800F0908070B590F83D30044603F046
:10132800FF02002B00F0828023682669242284F8BB
:101338003D20D86820F40050D4E90225D860196906
:10134800E06921F4405129431961D968656932433C
:1013580021F416412A4321F00C0102430A43DA60C2
:101368005A69A069354922F4407202438B425A6196
:1013780035D0334A934232D0FFF77EFFE369B3F5A5
:10138800004F32D063682F4D19219A00A0FB01014C
:101398009B0FFEF715FFA5FB00214909642202FBFC
:1013A8001102120132322368A5FB0202090101EB86
:1013B80052129A601A6922F490421A615A6922F00C
:1013C8002A025A61DA680025202142F40052DA60C4
:1013D800256484F83D1084F83E10284670BDFFF758
:1013E8005BFFE369B3F5004FCCD16268154E9218E4
:1013F8004FF000034FF019015B41A0FB0101FEF71C
:10140800DFFEA6FB00214D09642202FB1502D20073
:101418003232A6FB0212C2F342111209236801EB11
:10142800051102F4F8720A449A60C3E780F83C2078
:10143800FFF756FA78E70120704700BF0010014017
:10144800001401401F85EB51D1E90132F0B4D1E914
:101458000365134333434C69CF6B2B43D1E90665CE
:1014680023433343D1E908642B433343D1E90A6565
:1014780023430C6833432B430E6B50F82450074921
:101488003B43334329400B43082A08BF43F040033A
:1014980040F824300020F0BC704700BF8000F0FF07
:1014A80070B40B688D694C688E682B4343EA04134B
:1014B800D1E9035400EB820243EA062348695168E4
:1014C80043EA0543013C43EA0453023843EA006314
:1014D80001F040410B43002070BC5360704700BFCF
:1014E800B3F5804F05D06FF0704340F822300020EC
:1014F800704770B40B688D694C682B43D1E902655D
:1015080043EA0413064950F8224043EA062343EA13
:10151800054321400B4340F8223070BC002070473F
:101528000000F0CFB8B9174B998849F2413210B48E
:101538009142154C98711C6001D010BC7047134A39
:101548009A602B229A81124A10BC41F208030321A7
:101558005380118070470B4B0E4A99881A6049F2E4
:10156800413201209142987100D07047074A9A6031
:101578002B229A81064A41F2A80303215380118045
:10158800704700BFF8040020F00040012C002A003A
:101598007E00006C4001F0000A4A30B49588138838
:1015A800518849F24134A54203FB01F102D1064BAF
:1015B80000245C80044B12891A8001B1588030BC29
:1015C800704700BFF80400207E00006C30B5322060
:1015D80085B02B4D2B4CFFF70DFA002201232A80F2
:1015E8006B803220FFF706FA6A88ADF80E20D32305
:1015F800BDF80E102B80ADF80C20BDF80C30ADF8FE
:101608000A20BDF80A30ADF80820BDF80810ADF87A
:101618000620BDF806308AB29BB243EA02239BB289
:1016280049F241329342A3801DD00020FFF77AFF90
:10163800154801224FF40041FFF760FBA188238879
:10164800608849F24132914203FB00F302D10C4A0F
:10165800002151800A4A2189118013B14FF6FF7386
:10166800538005B030BDFEF725FF1123EF222B80F4
:101678006A807820FFF7BEF929232B80D5E700BFC1
:101688007E00006CF804002000040240DFF834D02B
:101698000D480E490E4A002302E0D458C4500433C2
:1016A800C4188C42F9D30B4A0B4C002301E0136099
:1016B8000432A242FBD3FFF7F5F800F011F8FFF768
:1016C8009DF8704700000220000000203C04002024
:1016D80058180008400400202C050020FEE70000F0
:1016E80070B50D4E0D4D761BB61006D0002455F87A
:1016F800043B01349847A642F9D1094E094D761B9F
:1017080000F082F8B61006D0002455F8043B0134E6
:101718009847A642F9D170BD4C1800084C1800082B
:10172800541800084C180008024B13B1024800F086
:1017380005B8704700000000511700080023014653
:101748001A46184600F01AB838B5084B084D5B1B06
:101758009C1007D0043B1D44013C55F804399847B8
:10176800002CF9D1BDE8384000F054B858180008EA
:1017780054180008704700BF704700BF2DE9F047B4
:10178800DFF880A00646DAF8000098460F46914632
:10179800FFF7F0FF1A4B1B68D3F8484124B365687C
:1017A8001F2D26DC5EB9AB1C0135DAF80000656038
:1017B80044F82370FFF7E0FF0020BDE8F08704EB52
:1017C80085030121C3F88890D4F88821A9400A43E9
:1017D800022EC4F88821C3F80881E4D1D4F88C31EA
:1017E8001943C4F88C11DEE703F5A674C3F8484121
:1017F800D5E7DAF80000FFF7BFFF4FF0FF30DCE76E
:101808004018000838040020F8B500BFF8BC08BC30
:101818009E467047F8B500BFF8BC08BC9E467047A6
:101828000000000000000000010203040607080988
:0C1838000000000001020304100000206A
:08184400B4E9FF7F0100000080
:08184C0031170008AD0100088E
:0418540089010008FE
:101858000024F40001000000100000000000000057
:1018680000000000FC02002064030020CC030020DC
:101878000000000000000000000000000000000060
:101888000000000000000000000000000000000050
:101898000000000000000000000000000000000040
:1018A8000000000000000000000000000000000030
:1018B8000000000000000000000000000000000020
:1018C8000000000000000000000000000000000010
:1018D8000000000000000000000000000000000000
:1018E80000000000000000000000000000000000F0
:1018F80000000000000000000000000000000000E0
:1019080000000000000000000100000000000000CE
:101918000E33CDAB34126DE6ECDE05000B00000093
:1019280000000000000000000000000000000000AF
:10193800000000000000000000000000000000009F
:10194800000000000000000000000000000000008F
:10195800000000000000000000000000000000007F
:0C1C880000000000000000000805002023
:040000050800169544
:00000001FF
